{
  "_format": "hh-sol-artifact-1",
  "contractName": "SpacetimeERC721",
  "sourceName": "contracts/spacetimeERC721/SpacetimeERC721.sol",
  "abi": [
    {
      "inputs": [
        {
          "internalType": "address",
          "name": "spacetimeToken",
          "type": "address"
        },
        {
          "internalType": "address",
          "name": "spacetimeClearingHouse",
          "type": "address"
        }
      ],
      "stateMutability": "nonpayable",
      "type": "constructor"
    },
    {
      "anonymous": false,
      "inputs": [
        {
          "indexed": true,
          "internalType": "address",
          "name": "owner",
          "type": "address"
        },
        {
          "indexed": true,
          "internalType": "address",
          "name": "approved",
          "type": "address"
        },
        {
          "indexed": true,
          "internalType": "uint256",
          "name": "tokenId",
          "type": "uint256"
        }
      ],
      "name": "Approval",
      "type": "event"
    },
    {
      "anonymous": false,
      "inputs": [
        {
          "indexed": true,
          "internalType": "address",
          "name": "owner",
          "type": "address"
        },
        {
          "indexed": true,
          "internalType": "address",
          "name": "operator",
          "type": "address"
        },
        {
          "indexed": false,
          "internalType": "bool",
          "name": "approved",
          "type": "bool"
        }
      ],
      "name": "ApprovalForAll",
      "type": "event"
    },
    {
      "anonymous": false,
      "inputs": [
        {
          "indexed": false,
          "internalType": "address",
          "name": "account",
          "type": "address"
        }
      ],
      "name": "Paused",
      "type": "event"
    },
    {
      "anonymous": false,
      "inputs": [
        {
          "indexed": true,
          "internalType": "bytes32",
          "name": "role",
          "type": "bytes32"
        },
        {
          "indexed": true,
          "internalType": "bytes32",
          "name": "previousAdminRole",
          "type": "bytes32"
        },
        {
          "indexed": true,
          "internalType": "bytes32",
          "name": "newAdminRole",
          "type": "bytes32"
        }
      ],
      "name": "RoleAdminChanged",
      "type": "event"
    },
    {
      "anonymous": false,
      "inputs": [
        {
          "indexed": true,
          "internalType": "bytes32",
          "name": "role",
          "type": "bytes32"
        },
        {
          "indexed": true,
          "internalType": "address",
          "name": "account",
          "type": "address"
        },
        {
          "indexed": true,
          "internalType": "address",
          "name": "sender",
          "type": "address"
        }
      ],
      "name": "RoleGranted",
      "type": "event"
    },
    {
      "anonymous": false,
      "inputs": [
        {
          "indexed": true,
          "internalType": "bytes32",
          "name": "role",
          "type": "bytes32"
        },
        {
          "indexed": true,
          "internalType": "address",
          "name": "account",
          "type": "address"
        },
        {
          "indexed": true,
          "internalType": "address",
          "name": "sender",
          "type": "address"
        }
      ],
      "name": "RoleRevoked",
      "type": "event"
    },
    {
      "anonymous": false,
      "inputs": [
        {
          "indexed": true,
          "internalType": "address",
          "name": "from",
          "type": "address"
        },
        {
          "indexed": true,
          "internalType": "address",
          "name": "to",
          "type": "address"
        },
        {
          "indexed": true,
          "internalType": "uint256",
          "name": "tokenId",
          "type": "uint256"
        }
      ],
      "name": "Transfer",
      "type": "event"
    },
    {
      "anonymous": false,
      "inputs": [
        {
          "indexed": false,
          "internalType": "address",
          "name": "account",
          "type": "address"
        }
      ],
      "name": "Unpaused",
      "type": "event"
    },
    {
      "inputs": [],
      "name": "DEFAULT_ADMIN_ROLE",
      "outputs": [
        {
          "internalType": "bytes32",
          "name": "",
          "type": "bytes32"
        }
      ],
      "stateMutability": "view",
      "type": "function"
    },
    {
      "inputs": [],
      "name": "MINTER_ROLE",
      "outputs": [
        {
          "internalType": "bytes32",
          "name": "",
          "type": "bytes32"
        }
      ],
      "stateMutability": "view",
      "type": "function"
    },
    {
      "inputs": [],
      "name": "PAUSER_ROLE",
      "outputs": [
        {
          "internalType": "bytes32",
          "name": "",
          "type": "bytes32"
        }
      ],
      "stateMutability": "view",
      "type": "function"
    },
    {
      "inputs": [
        {
          "internalType": "address",
          "name": "to",
          "type": "address"
        },
        {
          "internalType": "uint256",
          "name": "tokenId",
          "type": "uint256"
        }
      ],
      "name": "approve",
      "outputs": [],
      "stateMutability": "nonpayable",
      "type": "function"
    },
    {
      "inputs": [
        {
          "internalType": "address",
          "name": "owner",
          "type": "address"
        }
      ],
      "name": "balanceOf",
      "outputs": [
        {
          "internalType": "uint256",
          "name": "",
          "type": "uint256"
        }
      ],
      "stateMutability": "view",
      "type": "function"
    },
    {
      "inputs": [
        {
          "internalType": "uint256",
          "name": "tokenId",
          "type": "uint256"
        }
      ],
      "name": "burn",
      "outputs": [],
      "stateMutability": "nonpayable",
      "type": "function"
    },
    {
      "inputs": [
        {
          "internalType": "uint256",
          "name": "tokenId",
          "type": "uint256"
        }
      ],
      "name": "completeDealManual",
      "outputs": [],
      "stateMutability": "nonpayable",
      "type": "function"
    },
    {
      "inputs": [
        {
          "internalType": "uint256",
          "name": "tokenId",
          "type": "uint256"
        }
      ],
      "name": "getApproved",
      "outputs": [
        {
          "internalType": "address",
          "name": "",
          "type": "address"
        }
      ],
      "stateMutability": "view",
      "type": "function"
    },
    {
      "inputs": [],
      "name": "getCount",
      "outputs": [
        {
          "internalType": "uint256",
          "name": "",
          "type": "uint256"
        }
      ],
      "stateMutability": "view",
      "type": "function"
    },
    {
      "inputs": [
        {
          "internalType": "uint256",
          "name": "tokenId",
          "type": "uint256"
        }
      ],
      "name": "getDerivative",
      "outputs": [
        {
          "components": [
            {
              "internalType": "enum DerivativeType",
              "name": "derivativeType",
              "type": "uint8"
            },
            {
              "internalType": "enum DerivativeState",
              "name": "derivativeState",
              "type": "uint8"
            },
            {
              "internalType": "uint64",
              "name": "size",
              "type": "uint64"
            },
            {
              "internalType": "uint64",
              "name": "client",
              "type": "uint64"
            },
            {
              "internalType": "address",
              "name": "clientEthAddress",
              "type": "address"
            },
            {
              "internalType": "uint64",
              "name": "provider",
              "type": "uint64"
            },
            {
              "internalType": "address",
              "name": "providerEthAddress",
              "type": "address"
            },
            {
              "internalType": "int64",
              "name": "dealTermStart",
              "type": "int64"
            },
            {
              "internalType": "int64",
              "name": "dealTermDuration",
              "type": "int64"
            },
            {
              "internalType": "uint256",
              "name": "pricePerEpoch",
              "type": "uint256"
            },
            {
              "internalType": "bool",
              "name": "onSale",
              "type": "bool"
            },
            {
              "internalType": "uint256",
              "name": "salePrice",
              "type": "uint256"
            }
          ],
          "internalType": "struct Derivative",
          "name": "",
          "type": "tuple"
        }
      ],
      "stateMutability": "view",
      "type": "function"
    },
    {
      "inputs": [
        {
          "internalType": "bytes32",
          "name": "role",
          "type": "bytes32"
        }
      ],
      "name": "getRoleAdmin",
      "outputs": [
        {
          "internalType": "bytes32",
          "name": "",
          "type": "bytes32"
        }
      ],
      "stateMutability": "view",
      "type": "function"
    },
    {
      "inputs": [
        {
          "internalType": "bytes32",
          "name": "role",
          "type": "bytes32"
        },
        {
          "internalType": "uint256",
          "name": "index",
          "type": "uint256"
        }
      ],
      "name": "getRoleMember",
      "outputs": [
        {
          "internalType": "address",
          "name": "",
          "type": "address"
        }
      ],
      "stateMutability": "view",
      "type": "function"
    },
    {
      "inputs": [
        {
          "internalType": "bytes32",
          "name": "role",
          "type": "bytes32"
        }
      ],
      "name": "getRoleMemberCount",
      "outputs": [
        {
          "internalType": "uint256",
          "name": "",
          "type": "uint256"
        }
      ],
      "stateMutability": "view",
      "type": "function"
    },
    {
      "inputs": [
        {
          "internalType": "bytes32",
          "name": "role",
          "type": "bytes32"
        },
        {
          "internalType": "address",
          "name": "account",
          "type": "address"
        }
      ],
      "name": "grantRole",
      "outputs": [],
      "stateMutability": "nonpayable",
      "type": "function"
    },
    {
      "inputs": [
        {
          "internalType": "bytes32",
          "name": "role",
          "type": "bytes32"
        },
        {
          "internalType": "address",
          "name": "account",
          "type": "address"
        }
      ],
      "name": "hasRole",
      "outputs": [
        {
          "internalType": "bool",
          "name": "",
          "type": "bool"
        }
      ],
      "stateMutability": "view",
      "type": "function"
    },
    {
      "inputs": [
        {
          "internalType": "address",
          "name": "owner",
          "type": "address"
        },
        {
          "internalType": "address",
          "name": "operator",
          "type": "address"
        }
      ],
      "name": "isApprovedForAll",
      "outputs": [
        {
          "internalType": "bool",
          "name": "",
          "type": "bool"
        }
      ],
      "stateMutability": "view",
      "type": "function"
    },
    {
      "inputs": [
        {
          "internalType": "address",
          "name": "to",
          "type": "address"
        }
      ],
      "name": "mint",
      "outputs": [],
      "stateMutability": "nonpayable",
      "type": "function"
    },
    {
      "inputs": [
        {
          "internalType": "enum DerivativeType",
          "name": "derivativeType",
          "type": "uint8"
        },
        {
          "internalType": "uint64",
          "name": "size",
          "type": "uint64"
        },
        {
          "internalType": "uint64",
          "name": "provider",
          "type": "uint64"
        },
        {
          "internalType": "int64",
          "name": "dealTermStart",
          "type": "int64"
        },
        {
          "internalType": "int64",
          "name": "dealTermDuration",
          "type": "int64"
        },
        {
          "internalType": "uint256",
          "name": "pricePerEpoch",
          "type": "uint256"
        },
        {
          "internalType": "address",
          "name": "providerEthAddress",
          "type": "address"
        }
      ],
      "name": "mintDerivative",
      "outputs": [],
      "stateMutability": "nonpayable",
      "type": "function"
    },
    {
      "inputs": [],
      "name": "name",
      "outputs": [
        {
          "internalType": "string",
          "name": "",
          "type": "string"
        }
      ],
      "stateMutability": "view",
      "type": "function"
    },
    {
      "inputs": [
        {
          "internalType": "uint256",
          "name": "tokenId",
          "type": "uint256"
        }
      ],
      "name": "ownerOf",
      "outputs": [
        {
          "internalType": "address",
          "name": "",
          "type": "address"
        }
      ],
      "stateMutability": "view",
      "type": "function"
    },
    {
      "inputs": [],
      "name": "pause",
      "outputs": [],
      "stateMutability": "nonpayable",
      "type": "function"
    },
    {
      "inputs": [],
      "name": "paused",
      "outputs": [
        {
          "internalType": "bool",
          "name": "",
          "type": "bool"
        }
      ],
      "stateMutability": "view",
      "type": "function"
    },
    {
      "inputs": [
        {
          "internalType": "uint256",
          "name": "tokenId",
          "type": "uint256"
        },
        {
          "internalType": "uint64",
          "name": "client",
          "type": "uint64"
        }
      ],
      "name": "purchase",
      "outputs": [],
      "stateMutability": "nonpayable",
      "type": "function"
    },
    {
      "inputs": [
        {
          "internalType": "bytes32",
          "name": "role",
          "type": "bytes32"
        },
        {
          "internalType": "address",
          "name": "account",
          "type": "address"
        }
      ],
      "name": "renounceRole",
      "outputs": [],
      "stateMutability": "nonpayable",
      "type": "function"
    },
    {
      "inputs": [
        {
          "internalType": "bytes32",
          "name": "role",
          "type": "bytes32"
        },
        {
          "internalType": "address",
          "name": "account",
          "type": "address"
        }
      ],
      "name": "revokeRole",
      "outputs": [],
      "stateMutability": "nonpayable",
      "type": "function"
    },
    {
      "inputs": [
        {
          "internalType": "address",
          "name": "from",
          "type": "address"
        },
        {
          "internalType": "address",
          "name": "to",
          "type": "address"
        },
        {
          "internalType": "uint256",
          "name": "tokenId",
          "type": "uint256"
        }
      ],
      "name": "safeTransferFrom",
      "outputs": [],
      "stateMutability": "nonpayable",
      "type": "function"
    },
    {
      "inputs": [
        {
          "internalType": "address",
          "name": "from",
          "type": "address"
        },
        {
          "internalType": "address",
          "name": "to",
          "type": "address"
        },
        {
          "internalType": "uint256",
          "name": "tokenId",
          "type": "uint256"
        },
        {
          "internalType": "bytes",
          "name": "data",
          "type": "bytes"
        }
      ],
      "name": "safeTransferFrom",
      "outputs": [],
      "stateMutability": "nonpayable",
      "type": "function"
    },
    {
      "inputs": [
        {
          "internalType": "address",
          "name": "operator",
          "type": "address"
        },
        {
          "internalType": "bool",
          "name": "approved",
          "type": "bool"
        }
      ],
      "name": "setApprovalForAll",
      "outputs": [],
      "stateMutability": "nonpayable",
      "type": "function"
    },
    {
      "inputs": [
        {
          "internalType": "uint256",
          "name": "tokenId",
          "type": "uint256"
        },
        {
          "internalType": "uint64",
          "name": "client",
          "type": "uint64"
        }
      ],
      "name": "setClient",
      "outputs": [],
      "stateMutability": "nonpayable",
      "type": "function"
    },
    {
      "inputs": [
        {
          "internalType": "uint256",
          "name": "tokenId",
          "type": "uint256"
        },
        {
          "internalType": "uint256",
          "name": "price",
          "type": "uint256"
        }
      ],
      "name": "setPrice",
      "outputs": [],
      "stateMutability": "nonpayable",
      "type": "function"
    },
    {
      "inputs": [
        {
          "internalType": "uint256",
          "name": "tokenId",
          "type": "uint256"
        }
      ],
      "name": "submitDealProposal",
      "outputs": [],
      "stateMutability": "nonpayable",
      "type": "function"
    },
    {
      "inputs": [
        {
          "internalType": "bytes4",
          "name": "interfaceId",
          "type": "bytes4"
        }
      ],
      "name": "supportsInterface",
      "outputs": [
        {
          "internalType": "bool",
          "name": "",
          "type": "bool"
        }
      ],
      "stateMutability": "view",
      "type": "function"
    },
    {
      "inputs": [],
      "name": "symbol",
      "outputs": [
        {
          "internalType": "string",
          "name": "",
          "type": "string"
        }
      ],
      "stateMutability": "view",
      "type": "function"
    },
    {
      "inputs": [
        {
          "internalType": "uint256",
          "name": "index",
          "type": "uint256"
        }
      ],
      "name": "tokenByIndex",
      "outputs": [
        {
          "internalType": "uint256",
          "name": "",
          "type": "uint256"
        }
      ],
      "stateMutability": "view",
      "type": "function"
    },
    {
      "inputs": [
        {
          "internalType": "address",
          "name": "owner",
          "type": "address"
        },
        {
          "internalType": "uint256",
          "name": "index",
          "type": "uint256"
        }
      ],
      "name": "tokenOfOwnerByIndex",
      "outputs": [
        {
          "internalType": "uint256",
          "name": "",
          "type": "uint256"
        }
      ],
      "stateMutability": "view",
      "type": "function"
    },
    {
      "inputs": [
        {
          "internalType": "uint256",
          "name": "tokenId",
          "type": "uint256"
        }
      ],
      "name": "tokenURI",
      "outputs": [
        {
          "internalType": "string",
          "name": "",
          "type": "string"
        }
      ],
      "stateMutability": "view",
      "type": "function"
    },
    {
      "inputs": [],
      "name": "totalSupply",
      "outputs": [
        {
          "internalType": "uint256",
          "name": "",
          "type": "uint256"
        }
      ],
      "stateMutability": "view",
      "type": "function"
    },
    {
      "inputs": [
        {
          "internalType": "address",
          "name": "from",
          "type": "address"
        },
        {
          "internalType": "address",
          "name": "to",
          "type": "address"
        },
        {
          "internalType": "uint256",
          "name": "tokenId",
          "type": "uint256"
        }
      ],
      "name": "transferFrom",
      "outputs": [],
      "stateMutability": "nonpayable",
      "type": "function"
    },
    {
      "inputs": [],
      "name": "unpause",
      "outputs": [],
      "stateMutability": "nonpayable",
      "type": "function"
    }
  ],
  "bytecode": "0x60806040523480156200001157600080fd5b506040516200685c3803806200685c83398181016040528101906200003791906200053b565b6040518060400160405280601581526020017f537061636574696d6520446572697661746976657300000000000000000000008152506040518060400160405280600481526020017f53504458000000000000000000000000000000000000000000000000000000008152506040518060200160405280600081525082828160029081620000c69190620007fc565b508060039081620000d89190620007fc565b5050506000600c60006101000a81548160ff02191690831515021790555080600e9081620001079190620007fc565b506200012c6000801b620001206200023b60201b60201c565b6200024360201b60201c565b6200016d7f9f2df0fed2c77648de5860a4cc508cd0818c85b8b8a1ab4ceeef8d981c8956a6620001616200023b60201b60201c565b6200024360201b60201c565b620001ae7f65d7a28e3265b37a6474929f336521b332c1681b933f6cb9f3376673440d862a620001a26200023b60201b60201c565b6200024360201b60201c565b50505081601360006101000a81548173ffffffffffffffffffffffffffffffffffffffff021916908373ffffffffffffffffffffffffffffffffffffffff16021790555080601460006101000a81548173ffffffffffffffffffffffffffffffffffffffff021916908373ffffffffffffffffffffffffffffffffffffffff1602179055505050620008e3565b600033905090565b6200025582826200025960201b60201c565b5050565b620002708282620002a160201b620021e81760201c565b6200029c81600160008581526020019081526020016000206200039260201b620022c81790919060201c565b505050565b620002b38282620003ca60201b60201c565b6200038e57600160008084815260200190815260200160002060000160008373ffffffffffffffffffffffffffffffffffffffff1673ffffffffffffffffffffffffffffffffffffffff16815260200190815260200160002060006101000a81548160ff021916908315150217905550620003336200023b60201b60201c565b73ffffffffffffffffffffffffffffffffffffffff168173ffffffffffffffffffffffffffffffffffffffff16837f2f8788117e7eff1d82e926ec794901d17c78024a50270940304540a733656f0d60405160405180910390a45b5050565b6000620003c2836000018373ffffffffffffffffffffffffffffffffffffffff1660001b6200043460201b60201c565b905092915050565b600080600084815260200190815260200160002060000160008373ffffffffffffffffffffffffffffffffffffffff1673ffffffffffffffffffffffffffffffffffffffff16815260200190815260200160002060009054906101000a900460ff16905092915050565b6000620004488383620004ae60201b60201c565b620004a3578260000182908060018154018082558091505060019003906000526020600020016000909190919091505582600001805490508360010160008481526020019081526020016000208190555060019050620004a8565b600090505b92915050565b600080836001016000848152602001908152602001600020541415905092915050565b600080fd5b600073ffffffffffffffffffffffffffffffffffffffff82169050919050565b60006200050382620004d6565b9050919050565b6200051581620004f6565b81146200052157600080fd5b50565b60008151905062000535816200050a565b92915050565b60008060408385031215620005555762000554620004d1565b5b6000620005658582860162000524565b9250506020620005788582860162000524565b9150509250929050565b600081519050919050565b7f4e487b7100000000000000000000000000000000000000000000000000000000600052604160045260246000fd5b7f4e487b7100000000000000000000000000000000000000000000000000000000600052602260045260246000fd5b600060028204905060018216806200060457607f821691505b6020821081036200061a5762000619620005bc565b5b50919050565b60008190508160005260206000209050919050565b60006020601f8301049050919050565b600082821b905092915050565b600060088302620006847fffffffffffffffffffffffffffffffffffffffffffffffffffffffffffffffff8262000645565b62000690868362000645565b95508019841693508086168417925050509392505050565b6000819050919050565b6000819050919050565b6000620006dd620006d7620006d184620006a8565b620006b2565b620006a8565b9050919050565b6000819050919050565b620006f983620006bc565b620007116200070882620006e4565b84845462000652565b825550505050565b600090565b6200072862000719565b62000735818484620006ee565b505050565b5b818110156200075d57620007516000826200071e565b6001810190506200073b565b5050565b601f821115620007ac57620007768162000620565b620007818462000635565b8101602085101562000791578190505b620007a9620007a08562000635565b8301826200073a565b50505b505050565b600082821c905092915050565b6000620007d160001984600802620007b1565b1980831691505092915050565b6000620007ec8383620007be565b9150826002028217905092915050565b620008078262000582565b67ffffffffffffffff8111156200082357620008226200058d565b5b6200082f8254620005eb565b6200083c82828562000761565b600060209050601f8311600181146200087457600084156200085f578287015190505b6200086b8582620007de565b865550620008db565b601f198416620008848662000620565b60005b82811015620008ae5784890151825560018201915060208501945060208101905062000887565b86831015620008ce5784890151620008ca601f891682620007be565b8355505b6001600288020188555050505b505050505050565b615f6980620008f36000396000f3fe608060405234801561001057600080fd5b506004361061023d5760003560e01c80636a6278421161013b578063a87d942c116100b8578063d53913931161007c578063d5391393146106d2578063d547741f146106f0578063e63ab1e91461070c578063e985e9c51461072a578063f7d975771461075a5761023d565b8063a87d942c1461061c578063b79bd6501461063a578063b88d4fde14610656578063c87b56dd14610672578063ca15c873146106a25761023d565b806394f5bf6c116100ff57806394f5bf6c1461057857806395d89b41146105945780639743eae6146105b2578063a217fddf146105e2578063a22cb465146106005761023d565b80636a627842146104c257806370a08231146104de5780638456cb591461050e5780639010d07c1461051857806391d14854146105485761023d565b8063248a9ca3116101c957806342842e0e1161018d57806342842e0e1461040c57806342966c68146104285780634f6ccce7146104445780635c975abb146104745780636352211e146104925761023d565b8063248a9ca31461036a5780632f2ff15d1461039a5780632f745c59146103b657806336568abe146103e65780633f4ba83a146104025761023d565b8063095ea7b311610210578063095ea7b3146102dc5780630cdc0783146102f857806318160ddd146103145780631ecb24c41461033257806323b872dd1461034e5761023d565b806301ffc9a714610242578063035936221461027257806306fdde031461028e578063081812fc146102ac575b600080fd5b61025c600480360381019061025791906143a3565b610776565b60405161026991906143eb565b60405180910390f35b61028c6004803603810190610287919061443c565b610788565b005b610296610858565b6040516102a391906144f9565b60405180910390f35b6102c660048036038101906102c1919061443c565b6108ea565b6040516102d3919061455c565b60405180910390f35b6102f660048036038101906102f191906145a3565b610930565b005b610312600480360381019061030d9190614623565b610a47565b005b61031c610c4f565b6040516103299190614672565b60405180910390f35b61034c600480360381019061034791906146eb565b610c5c565b005b6103686004803603810190610363919061478d565b611089565b005b610384600480360381019061037f9190614816565b6110e9565b6040516103919190614852565b60405180910390f35b6103b460048036038101906103af919061486d565b611108565b005b6103d060048036038101906103cb91906145a3565b611129565b6040516103dd9190614672565b60405180910390f35b61040060048036038101906103fb919061486d565b6111ce565b005b61040a611251565b005b6104266004803603810190610421919061478d565b6112cb565b005b610442600480360381019061043d919061443c565b6112eb565b005b61045e6004803603810190610459919061443c565b611347565b60405161046b9190614672565b60405180910390f35b61047c6113b8565b60405161048991906143eb565b60405180910390f35b6104ac60048036038101906104a7919061443c565b6113cf565b6040516104b9919061455c565b60405180910390f35b6104dc60048036038101906104d791906148ad565b611455565b005b6104f860048036038101906104f391906148ad565b6114e5565b6040516105059190614672565b60405180910390f35b61051661159c565b005b610532600480360381019061052d91906148da565b611616565b60405161053f919061455c565b60405180910390f35b610562600480360381019061055d919061486d565b611645565b60405161056f91906143eb565b60405180910390f35b610592600480360381019061058d919061443c565b6116af565b005b61059c611797565b6040516105a991906144f9565b60405180910390f35b6105cc60048036038101906105c7919061443c565b611829565b6040516105d99190614b1a565b60405180910390f35b6105ea611a7e565b6040516105f79190614852565b60405180910390f35b61061a60048036038101906106159190614b62565b611a85565b005b610624611a9b565b6040516106319190614672565b60405180910390f35b610654600480360381019061064f9190614623565b611aa5565b005b610670600480360381019061066b9190614cd7565b611dee565b005b61068c6004803603810190610687919061443c565b611e50565b60405161069991906144f9565b60405180910390f35b6106bc60048036038101906106b79190614816565b611eb8565b6040516106c99190614672565b60405180910390f35b6106da611edc565b6040516106e79190614852565b60405180910390f35b61070a6004803603810190610705919061486d565b611f00565b005b610714611f21565b6040516107219190614852565b60405180910390f35b610744600480360381019061073f9190614d5a565b611f45565b60405161075191906143eb565b60405180910390f35b610774600480360381019061076f9190614d9a565b611fd9565b005b6000610781826122f8565b9050919050565b6107b97f9f2df0fed2c77648de5860a4cc508cd0818c85b8b8a1ab4ceeef8d981c8956a66107b4612372565b611645565b6107c257600080fd5b600060068111156107d6576107d561491a565b5b6010600083815260200190815260200160002060000160019054906101000a900460ff16600681111561080c5761080b61491a565b5b1461081657600080fd5b60026010600083815260200190815260200160002060000160016101000a81548160ff021916908360068111156108505761084f61491a565b5b021790555050565b60606002805461086790614e09565b80601f016020809104026020016040519081016040528092919081815260200182805461089390614e09565b80156108e05780601f106108b5576101008083540402835291602001916108e0565b820191906000526020600020905b8154815290600101906020018083116108c357829003601f168201915b5050505050905090565b60006108f58261237a565b6006600083815260200190815260200160002060009054906101000a900473ffffffffffffffffffffffffffffffffffffffff169050919050565b600061093b826113cf565b90508073ffffffffffffffffffffffffffffffffffffffff168373ffffffffffffffffffffffffffffffffffffffff16036109ab576040517f08c379a00000000000000000000000000000000000000000000000000000000081526004016109a290614eac565b60405180910390fd5b8073ffffffffffffffffffffffffffffffffffffffff166109ca612372565b73ffffffffffffffffffffffffffffffffffffffff1614806109f957506109f8816109f3612372565b611f45565b5b610a38576040517f08c379a0000000000000000000000000000000000000000000000000000000008152600401610a2f90614f3e565b60405180910390fd5b610a4283836123c5565b505050565b60006006811115610a5b57610a5a61491a565b5b6010600084815260200190815260200160002060000160019054906101000a900460ff166006811115610a9157610a9061491a565b5b14610a9b57600080fd5b601360009054906101000a900473ffffffffffffffffffffffffffffffffffffffff1673ffffffffffffffffffffffffffffffffffffffff1663445d1a4d336010600086815260200190815260200160002060020160009054906101000a900473ffffffffffffffffffffffffffffffffffffffff166103e86040518463ffffffff1660e01b8152600401610b3293929190614fa3565b600060405180830381600087803b158015610b4c57600080fd5b505af1158015610b60573d6000803e3d6000fd5b50505050336010600084815260200190815260200160002060010160006101000a81548173ffffffffffffffffffffffffffffffffffffffff021916908373ffffffffffffffffffffffffffffffffffffffff1602179055508060106000848152602001908152602001600020600001600a6101000a81548167ffffffffffffffff021916908367ffffffffffffffff160217905550601160003373ffffffffffffffffffffffffffffffffffffffff1673ffffffffffffffffffffffffffffffffffffffff1681526020019081526020016000206000815480929190610c4690615009565b91905055505050565b6000600a80549050905090565b610c867f9f2df0fed2c77648de5860a4cc508cd0818c85b8b8a1ab4ceeef8d981c8956a633611645565b610cc5576040517f08c379a0000000000000000000000000000000000000000000000000000000008152600401610cbc9061509d565b60405180910390fd5b610ccd614260565b8781600001906002811115610ce557610ce461491a565b5b90816002811115610cf957610cf861491a565b5b81525050600081602001906006811115610d1657610d1561491a565b5b90816006811115610d2a57610d2961491a565b5b8152505086816040019067ffffffffffffffff16908167ffffffffffffffff1681525050858160a0019067ffffffffffffffff16908167ffffffffffffffff1681525050818160c0019073ffffffffffffffffffffffffffffffffffffffff16908173ffffffffffffffffffffffffffffffffffffffff1681525050848160e0019060070b908160070b815250508381610100019060070b908160070b815250508281610120018181525050610de233600f5461247e565b8060106000600f54815260200190815260200160002060008201518160000160006101000a81548160ff02191690836002811115610e2357610e2261491a565b5b021790555060208201518160000160016101000a81548160ff02191690836006811115610e5357610e5261491a565b5b021790555060408201518160000160026101000a81548167ffffffffffffffff021916908367ffffffffffffffff160217905550606082015181600001600a6101000a81548167ffffffffffffffff021916908367ffffffffffffffff16021790555060808201518160010160006101000a81548173ffffffffffffffffffffffffffffffffffffffff021916908373ffffffffffffffffffffffffffffffffffffffff16021790555060a08201518160010160146101000a81548167ffffffffffffffff021916908367ffffffffffffffff16021790555060c08201518160020160006101000a81548173ffffffffffffffffffffffffffffffffffffffff021916908373ffffffffffffffffffffffffffffffffffffffff16021790555060e08201518160020160146101000a81548167ffffffffffffffff021916908360070b67ffffffffffffffff1602179055506101008201518160030160006101000a81548167ffffffffffffffff021916908360070b67ffffffffffffffff16021790555061012082015181600401556101408201518160050160006101000a81548160ff0219169083151502179055506101608201518160060155905050601260008373ffffffffffffffffffffffffffffffffffffffff1673ffffffffffffffffffffffffffffffffffffffff168152602001908152602001600020600081548092919061106290615009565b9190505550600f600081548092919061107a90615009565b91905055505050505050505050565b61109a611094612372565b8261269b565b6110d9576040517f08c379a00000000000000000000000000000000000000000000000000000000081526004016110d09061512f565b60405180910390fd5b6110e4838383612730565b505050565b6000806000838152602001908152602001600020600101549050919050565b611111826110e9565b61111a81612a29565b6111248383612a3d565b505050565b6000611134836114e5565b8210611175576040517f08c379a000000000000000000000000000000000000000000000000000000000815260040161116c906151c1565b60405180910390fd5b600860008473ffffffffffffffffffffffffffffffffffffffff1673ffffffffffffffffffffffffffffffffffffffff168152602001908152602001600020600083815260200190815260200160002054905092915050565b6111d6612372565b73ffffffffffffffffffffffffffffffffffffffff168173ffffffffffffffffffffffffffffffffffffffff1614611243576040517f08c379a000000000000000000000000000000000000000000000000000000000815260040161123a90615253565b60405180910390fd5b61124d8282612a71565b5050565b6112827f65d7a28e3265b37a6474929f336521b332c1681b933f6cb9f3376673440d862a61127d612372565b611645565b6112c1576040517f08c379a00000000000000000000000000000000000000000000000000000000081526004016112b8906152e5565b60405180910390fd5b6112c9612aa5565b565b6112e683838360405180602001604052806000815250611dee565b505050565b6112fc6112f6612372565b8261269b565b61133b576040517f08c379a00000000000000000000000000000000000000000000000000000000081526004016113329061512f565b60405180910390fd5b61134481612b08565b50565b6000611351610c4f565b8210611392576040517f08c379a000000000000000000000000000000000000000000000000000000000815260040161138990615377565b60405180910390fd5b600a82815481106113a6576113a5615397565b5b90600052602060002001549050919050565b6000600c60009054906101000a900460ff16905090565b6000806113db83612c56565b9050600073ffffffffffffffffffffffffffffffffffffffff168173ffffffffffffffffffffffffffffffffffffffff160361144c576040517f08c379a000000000000000000000000000000000000000000000000000000000815260040161144390615412565b60405180910390fd5b80915050919050565b6114867f9f2df0fed2c77648de5860a4cc508cd0818c85b8b8a1ab4ceeef8d981c8956a6611481612372565b611645565b6114c5576040517f08c379a00000000000000000000000000000000000000000000000000000000081526004016114bc906154a4565b60405180910390fd5b6114d8816114d3600d612c93565b61247e565b6114e2600d612ca1565b50565b60008073ffffffffffffffffffffffffffffffffffffffff168273ffffffffffffffffffffffffffffffffffffffff1603611555576040517f08c379a000000000000000000000000000000000000000000000000000000000815260040161154c90615536565b60405180910390fd5b600560008373ffffffffffffffffffffffffffffffffffffffff1673ffffffffffffffffffffffffffffffffffffffff168152602001908152602001600020549050919050565b6115cd7f65d7a28e3265b37a6474929f336521b332c1681b933f6cb9f3376673440d862a6115c8612372565b611645565b61160c576040517f08c379a0000000000000000000000000000000000000000000000000000000008152600401611603906155c8565b60405180910390fd5b611614612cb7565b565b600061163d8260016000868152602001908152602001600020612d1a90919063ffffffff16565b905092915050565b600080600084815260200190815260200160002060000160008373ffffffffffffffffffffffffffffffffffffffff1673ffffffffffffffffffffffffffffffffffffffff16815260200190815260200160002060009054906101000a900460ff16905092915050565b600060068111156116c3576116c261491a565b5b6010600083815260200190815260200160002060000160019054906101000a900460ff1660068111156116f9576116f861491a565b5b148061174c5750600260068111156117145761171361491a565b5b6010600083815260200190815260200160002060000160019054906101000a900460ff16600681111561174a5761174961491a565b5b145b61175557600080fd5b60036010600083815260200190815260200160002060000160016101000a81548160ff0219169083600681111561178f5761178e61491a565b5b021790555050565b6060600380546117a690614e09565b80601f01602080910402602001604051908101604052809291908181526020018280546117d290614e09565b801561181f5780601f106117f45761010080835404028352916020019161181f565b820191906000526020600020905b81548152906001019060200180831161180257829003601f168201915b5050505050905090565b611831614260565b600060106000848152602001908152602001600020604051806101800160405290816000820160009054906101000a900460ff1660028111156118775761187661491a565b5b60028111156118895761188861491a565b5b81526020016000820160019054906101000a900460ff1660068111156118b2576118b161491a565b5b60068111156118c4576118c361491a565b5b81526020016000820160029054906101000a900467ffffffffffffffff1667ffffffffffffffff1667ffffffffffffffff16815260200160008201600a9054906101000a900467ffffffffffffffff1667ffffffffffffffff1667ffffffffffffffff1681526020016001820160009054906101000a900473ffffffffffffffffffffffffffffffffffffffff1673ffffffffffffffffffffffffffffffffffffffff1673ffffffffffffffffffffffffffffffffffffffff1681526020016001820160149054906101000a900467ffffffffffffffff1667ffffffffffffffff1667ffffffffffffffff1681526020016002820160009054906101000a900473ffffffffffffffffffffffffffffffffffffffff1673ffffffffffffffffffffffffffffffffffffffff1673ffffffffffffffffffffffffffffffffffffffff1681526020016002820160149054906101000a900460070b60070b60070b81526020016003820160009054906101000a900460070b60070b60070b8152602001600482015481526020016005820160009054906101000a900460ff16151515158152602001600682015481525050905080915050919050565b6000801b81565b611a97611a90612372565b8383612d34565b5050565b6000600f54905090565b60016006811115611ab957611ab861491a565b5b6010600084815260200190815260200160002060000160019054906101000a900460ff166006811115611aef57611aee61491a565b5b14611af957600080fd5b600115156010600084815260200190815260200160002060050160009054906101000a900460ff16151514611b2d57600080fd5b6000601060008481526020019081526020016000206006015411611b5057600080fd5b601160006010600085815260200190815260200160002060010160009054906101000a900473ffffffffffffffffffffffffffffffffffffffff1673ffffffffffffffffffffffffffffffffffffffff1673ffffffffffffffffffffffffffffffffffffffff1681526020019081526020016000206000815480929190611bd6906155e8565b9190505550601360009054906101000a900473ffffffffffffffffffffffffffffffffffffffff1673ffffffffffffffffffffffffffffffffffffffff1663445d1a4d336010600086815260200190815260200160002060010160009054906101000a900473ffffffffffffffffffffffffffffffffffffffff1660106000878152602001908152602001600020600601546040518463ffffffff1660e01b8152600401611c8693929190615611565b600060405180830381600087803b158015611ca057600080fd5b505af1158015611cb4573d6000803e3d6000fd5b50505050601160003373ffffffffffffffffffffffffffffffffffffffff1673ffffffffffffffffffffffffffffffffffffffff1681526020019081526020016000206000815480929190611d0890615009565b91905055508060106000848152602001908152602001600020600001600a6101000a81548167ffffffffffffffff021916908367ffffffffffffffff160217905550336010600084815260200190815260200160002060010160006101000a81548173ffffffffffffffffffffffffffffffffffffffff021916908373ffffffffffffffffffffffffffffffffffffffff16021790555060006010600084815260200190815260200160002060050160006101000a81548160ff021916908315150217905550600060106000848152602001908152602001600020600601819055505050565b611dff611df9612372565b8361269b565b611e3e576040517f08c379a0000000000000000000000000000000000000000000000000000000008152600401611e359061512f565b60405180910390fd5b611e4a84848484612ea0565b50505050565b6060611e5b8261237a565b6000611e65612efc565b90506000815111611e855760405180602001604052806000815250611eb0565b80611e8f84612f8e565b604051602001611ea0929190615684565b6040516020818303038152906040525b915050919050565b6000611ed56001600084815260200190815260200160002061305c565b9050919050565b7f9f2df0fed2c77648de5860a4cc508cd0818c85b8b8a1ab4ceeef8d981c8956a681565b611f09826110e9565b611f1281612a29565b611f1c8383612a71565b505050565b7f65d7a28e3265b37a6474929f336521b332c1681b933f6cb9f3376673440d862a81565b6000600760008473ffffffffffffffffffffffffffffffffffffffff1673ffffffffffffffffffffffffffffffffffffffff16815260200190815260200160002060008373ffffffffffffffffffffffffffffffffffffffff1673ffffffffffffffffffffffffffffffffffffffff16815260200190815260200160002060009054906101000a900460ff16905092915050565b60016006811115611fed57611fec61491a565b5b6010600084815260200190815260200160002060000160019054906101000a900460ff1660068111156120235761202261491a565b5b14612063576040517f08c379a000000000000000000000000000000000000000000000000000000000815260040161205a906156f4565b60405180910390fd5b6010600083815260200190815260200160002060010160009054906101000a900473ffffffffffffffffffffffffffffffffffffffff1673ffffffffffffffffffffffffffffffffffffffff163373ffffffffffffffffffffffffffffffffffffffff16146120d157600080fd5b601360009054906101000a900473ffffffffffffffffffffffffffffffffffffffff1673ffffffffffffffffffffffffffffffffffffffff1663445d1a4d336010600086815260200190815260200160002060010160009054906101000a900473ffffffffffffffffffffffffffffffffffffffff166103e86040518463ffffffff1660e01b815260040161216893929190614fa3565b600060405180830381600087803b15801561218257600080fd5b505af1158015612196573d6000803e3d6000fd5b5050505080601060008481526020019081526020016000206006018190555060016010600084815260200190815260200160002060050160006101000a81548160ff0219169083151502179055505050565b6121f28282611645565b6122c457600160008084815260200190815260200160002060000160008373ffffffffffffffffffffffffffffffffffffffff1673ffffffffffffffffffffffffffffffffffffffff16815260200190815260200160002060006101000a81548160ff021916908315150217905550612269612372565b73ffffffffffffffffffffffffffffffffffffffff168173ffffffffffffffffffffffffffffffffffffffff16837f2f8788117e7eff1d82e926ec794901d17c78024a50270940304540a733656f0d60405160405180910390a45b5050565b60006122f0836000018373ffffffffffffffffffffffffffffffffffffffff1660001b613071565b905092915050565b60007f780e9d63000000000000000000000000000000000000000000000000000000007bffffffffffffffffffffffffffffffffffffffffffffffffffffffff1916827bffffffffffffffffffffffffffffffffffffffffffffffffffffffff1916148061236b575061236a826130e1565b5b9050919050565b600033905090565b612383816131c3565b6123c2576040517f08c379a00000000000000000000000000000000000000000000000000000000081526004016123b990615412565b60405180910390fd5b50565b816006600083815260200190815260200160002060006101000a81548173ffffffffffffffffffffffffffffffffffffffff021916908373ffffffffffffffffffffffffffffffffffffffff160217905550808273ffffffffffffffffffffffffffffffffffffffff16612438836113cf565b73ffffffffffffffffffffffffffffffffffffffff167f8c5be1e5ebec7d5bd14f71427d1e84f3dd0314c0f7b2291e5b200ac8c7c3b92560405160405180910390a45050565b600073ffffffffffffffffffffffffffffffffffffffff168273ffffffffffffffffffffffffffffffffffffffff16036124ed576040517f08c379a00000000000000000000000000000000000000000000000000000000081526004016124e490615760565b60405180910390fd5b6124f6816131c3565b15612536576040517f08c379a000000000000000000000000000000000000000000000000000000000815260040161252d906157cc565b60405180910390fd5b612544600083836001613204565b61254d816131c3565b1561258d576040517f08c379a0000000000000000000000000000000000000000000000000000000008152600401612584906157cc565b60405180910390fd5b6001600560008473ffffffffffffffffffffffffffffffffffffffff1673ffffffffffffffffffffffffffffffffffffffff16815260200190815260200160002060008282540192505081905550816004600083815260200190815260200160002060006101000a81548173ffffffffffffffffffffffffffffffffffffffff021916908373ffffffffffffffffffffffffffffffffffffffff160217905550808273ffffffffffffffffffffffffffffffffffffffff16600073ffffffffffffffffffffffffffffffffffffffff167fddf252ad1be2c89b69c2b068fc378daa952ba7f163c4a11628f55a4df523b3ef60405160405180910390a4612697600083836001613216565b5050565b6000806126a7836113cf565b90508073ffffffffffffffffffffffffffffffffffffffff168473ffffffffffffffffffffffffffffffffffffffff1614806126e957506126e88185611f45565b5b8061272757508373ffffffffffffffffffffffffffffffffffffffff1661270f846108ea565b73ffffffffffffffffffffffffffffffffffffffff16145b91505092915050565b8273ffffffffffffffffffffffffffffffffffffffff16612750826113cf565b73ffffffffffffffffffffffffffffffffffffffff16146127a6576040517f08c379a000000000000000000000000000000000000000000000000000000000815260040161279d9061585e565b60405180910390fd5b600073ffffffffffffffffffffffffffffffffffffffff168273ffffffffffffffffffffffffffffffffffffffff1603612815576040517f08c379a000000000000000000000000000000000000000000000000000000000815260040161280c906158f0565b60405180910390fd5b6128228383836001613204565b8273ffffffffffffffffffffffffffffffffffffffff16612842826113cf565b73ffffffffffffffffffffffffffffffffffffffff1614612898576040517f08c379a000000000000000000000000000000000000000000000000000000000815260040161288f9061585e565b60405180910390fd5b6006600082815260200190815260200160002060006101000a81549073ffffffffffffffffffffffffffffffffffffffff02191690556001600560008573ffffffffffffffffffffffffffffffffffffffff1673ffffffffffffffffffffffffffffffffffffffff168152602001908152602001600020600082825403925050819055506001600560008473ffffffffffffffffffffffffffffffffffffffff1673ffffffffffffffffffffffffffffffffffffffff16815260200190815260200160002060008282540192505081905550816004600083815260200190815260200160002060006101000a81548173ffffffffffffffffffffffffffffffffffffffff021916908373ffffffffffffffffffffffffffffffffffffffff160217905550808273ffffffffffffffffffffffffffffffffffffffff168473ffffffffffffffffffffffffffffffffffffffff167fddf252ad1be2c89b69c2b068fc378daa952ba7f163c4a11628f55a4df523b3ef60405160405180910390a4612a248383836001613216565b505050565b612a3a81612a35612372565b61321c565b50565b612a4782826121e8565b612a6c81600160008581526020019081526020016000206122c890919063ffffffff16565b505050565b612a7b82826132a1565b612aa0816001600085815260200190815260200160002061338290919063ffffffff16565b505050565b612aad6133b2565b6000600c60006101000a81548160ff0219169083151502179055507f5db9ee0a495bf2e6ff9c91a7834c1ba4fdd244a5e8aa4e537bd38aeae4b073aa612af1612372565b604051612afe919061455c565b60405180910390a1565b6000612b13826113cf565b9050612b23816000846001613204565b612b2c826113cf565b90506006600083815260200190815260200160002060006101000a81549073ffffffffffffffffffffffffffffffffffffffff02191690556001600560008373ffffffffffffffffffffffffffffffffffffffff1673ffffffffffffffffffffffffffffffffffffffff168152602001908152602001600020600082825403925050819055506004600083815260200190815260200160002060006101000a81549073ffffffffffffffffffffffffffffffffffffffff021916905581600073ffffffffffffffffffffffffffffffffffffffff168273ffffffffffffffffffffffffffffffffffffffff167fddf252ad1be2c89b69c2b068fc378daa952ba7f163c4a11628f55a4df523b3ef60405160405180910390a4612c52816000846001613216565b5050565b60006004600083815260200190815260200160002060009054906101000a900473ffffffffffffffffffffffffffffffffffffffff169050919050565b600081600001549050919050565b6001816000016000828254019250508190555050565b612cbf6133fb565b6001600c60006101000a81548160ff0219169083151502179055507f62e78cea01bee320cd4e420270b5ea74000d11b0c9f74754ebdbfc544b05a258612d03612372565b604051612d10919061455c565b60405180910390a1565b6000612d298360000183613445565b60001c905092915050565b8173ffffffffffffffffffffffffffffffffffffffff168373ffffffffffffffffffffffffffffffffffffffff1603612da2576040517f08c379a0000000000000000000000000000000000000000000000000000000008152600401612d999061595c565b60405180910390fd5b80600760008573ffffffffffffffffffffffffffffffffffffffff1673ffffffffffffffffffffffffffffffffffffffff16815260200190815260200160002060008473ffffffffffffffffffffffffffffffffffffffff1673ffffffffffffffffffffffffffffffffffffffff16815260200190815260200160002060006101000a81548160ff0219169083151502179055508173ffffffffffffffffffffffffffffffffffffffff168373ffffffffffffffffffffffffffffffffffffffff167f17307eab39ab6107e8899845ad3d59bd9653f200f220920489ca2b5937696c3183604051612e9391906143eb565b60405180910390a3505050565b612eab848484612730565b612eb784848484613470565b612ef6576040517f08c379a0000000000000000000000000000000000000000000000000000000008152600401612eed906159ee565b60405180910390fd5b50505050565b6060600e8054612f0b90614e09565b80601f0160208091040260200160405190810160405280929190818152602001828054612f3790614e09565b8015612f845780601f10612f5957610100808354040283529160200191612f84565b820191906000526020600020905b815481529060010190602001808311612f6757829003601f168201915b5050505050905090565b606060006001612f9d846135f7565b01905060008167ffffffffffffffff811115612fbc57612fbb614bac565b5b6040519080825280601f01601f191660200182016040528015612fee5781602001600182028036833780820191505090505b509050600082602001820190505b600115613051578080600190039150507f3031323334353637383961626364656600000000000000000000000000000000600a86061a8153600a858161304557613044615a0e565b5b04945060008503612ffc575b819350505050919050565b600061306a8260000161374a565b9050919050565b600061307d838361375b565b6130d65782600001829080600181540180825580915050600190039060005260206000200160009091909190915055826000018054905083600101600084815260200190815260200160002081905550600190506130db565b600090505b92915050565b60007f80ac58cd000000000000000000000000000000000000000000000000000000007bffffffffffffffffffffffffffffffffffffffffffffffffffffffff1916827bffffffffffffffffffffffffffffffffffffffffffffffffffffffff191614806131ac57507f5b5e139f000000000000000000000000000000000000000000000000000000007bffffffffffffffffffffffffffffffffffffffffffffffffffffffff1916827bffffffffffffffffffffffffffffffffffffffffffffffffffffffff1916145b806131bc57506131bb8261377e565b5b9050919050565b60008073ffffffffffffffffffffffffffffffffffffffff166131e583612c56565b73ffffffffffffffffffffffffffffffffffffffff1614159050919050565b613210848484846137f8565b50505050565b50505050565b6132268282611645565b61329d5761323381613852565b6132418360001c602061387f565b604051602001613252929190615ad5565b6040516020818303038152906040526040517f08c379a000000000000000000000000000000000000000000000000000000000815260040161329491906144f9565b60405180910390fd5b5050565b6132ab8282611645565b1561337e57600080600084815260200190815260200160002060000160008373ffffffffffffffffffffffffffffffffffffffff1673ffffffffffffffffffffffffffffffffffffffff16815260200190815260200160002060006101000a81548160ff021916908315150217905550613323612372565b73ffffffffffffffffffffffffffffffffffffffff168173ffffffffffffffffffffffffffffffffffffffff16837ff6391f5c32d9c69d2a47ea670b442974b53935d1edc7fd64eb21e047a839171b60405160405180910390a45b5050565b60006133aa836000018373ffffffffffffffffffffffffffffffffffffffff1660001b613abb565b905092915050565b6133ba6113b8565b6133f9576040517f08c379a00000000000000000000000000000000000000000000000000000000081526004016133f090615b5b565b60405180910390fd5b565b6134036113b8565b15613443576040517f08c379a000000000000000000000000000000000000000000000000000000000815260040161343a90615bc7565b60405180910390fd5b565b600082600001828154811061345d5761345c615397565b5b9060005260206000200154905092915050565b60006134918473ffffffffffffffffffffffffffffffffffffffff16613bcf565b156135ea578373ffffffffffffffffffffffffffffffffffffffff1663150b7a026134ba612372565b8786866040518563ffffffff1660e01b81526004016134dc9493929190615c3c565b6020604051808303816000875af192505050801561351857506040513d601f19601f820116820180604052508101906135159190615c9d565b60015b61359a573d8060008114613548576040519150601f19603f3d011682016040523d82523d6000602084013e61354d565b606091505b506000815103613592576040517f08c379a0000000000000000000000000000000000000000000000000000000008152600401613589906159ee565b60405180910390fd5b805181602001fd5b63150b7a0260e01b7bffffffffffffffffffffffffffffffffffffffffffffffffffffffff1916817bffffffffffffffffffffffffffffffffffffffffffffffffffffffff1916149150506135ef565b600190505b949350505050565b600080600090507a184f03e93ff9f4daa797ed6e38ed64bf6a1f0100000000000000008310613655577a184f03e93ff9f4daa797ed6e38ed64bf6a1f010000000000000000838161364b5761364a615a0e565b5b0492506040810190505b6d04ee2d6d415b85acef81000000008310613692576d04ee2d6d415b85acef8100000000838161368857613687615a0e565b5b0492506020810190505b662386f26fc1000083106136c157662386f26fc1000083816136b7576136b6615a0e565b5b0492506010810190505b6305f5e10083106136ea576305f5e10083816136e0576136df615a0e565b5b0492506008810190505b612710831061370f57612710838161370557613704615a0e565b5b0492506004810190505b60648310613732576064838161372857613727615a0e565b5b0492506002810190505b600a8310613741576001810190505b80915050919050565b600081600001805490509050919050565b600080836001016000848152602001908152602001600020541415905092915050565b60007f5a05180f000000000000000000000000000000000000000000000000000000007bffffffffffffffffffffffffffffffffffffffffffffffffffffffff1916827bffffffffffffffffffffffffffffffffffffffffffffffffffffffff191614806137f157506137f082613bf2565b5b9050919050565b61380484848484613c6c565b61380c6113b8565b1561384c576040517f08c379a000000000000000000000000000000000000000000000000000000000815260040161384390615d3c565b60405180910390fd5b50505050565b60606138788273ffffffffffffffffffffffffffffffffffffffff16601460ff1661387f565b9050919050565b6060600060028360026138929190615d5c565b61389c9190615d9e565b67ffffffffffffffff8111156138b5576138b4614bac565b5b6040519080825280601f01601f1916602001820160405280156138e75781602001600182028036833780820191505090505b5090507f30000000000000000000000000000000000000000000000000000000000000008160008151811061391f5761391e615397565b5b60200101907effffffffffffffffffffffffffffffffffffffffffffffffffffffffffffff1916908160001a9053507f78000000000000000000000000000000000000000000000000000000000000008160018151811061398357613982615397565b5b60200101907effffffffffffffffffffffffffffffffffffffffffffffffffffffffffffff1916908160001a905350600060018460026139c39190615d5c565b6139cd9190615d9e565b90505b6001811115613a6d577f3031323334353637383961626364656600000000000000000000000000000000600f861660108110613a0f57613a0e615397565b5b1a60f81b828281518110613a2657613a25615397565b5b60200101907effffffffffffffffffffffffffffffffffffffffffffffffffffffffffffff1916908160001a905350600485901c945080613a66906155e8565b90506139d0565b5060008414613ab1576040517f08c379a0000000000000000000000000000000000000000000000000000000008152600401613aa890615e1e565b60405180910390fd5b8091505092915050565b60008083600101600084815260200190815260200160002054905060008114613bc3576000600182613aed9190615e3e565b9050600060018660000180549050613b059190615e3e565b9050818114613b74576000866000018281548110613b2657613b25615397565b5b9060005260206000200154905080876000018481548110613b4a57613b49615397565b5b90600052602060002001819055508387600101600083815260200190815260200160002081905550505b85600001805480613b8857613b87615e72565b5b600190038181906000526020600020016000905590558560010160008681526020019081526020016000206000905560019350505050613bc9565b60009150505b92915050565b6000808273ffffffffffffffffffffffffffffffffffffffff163b119050919050565b60007f7965db0b000000000000000000000000000000000000000000000000000000007bffffffffffffffffffffffffffffffffffffffffffffffffffffffff1916827bffffffffffffffffffffffffffffffffffffffffffffffffffffffff19161480613c655750613c6482613dca565b5b9050919050565b613c7884848484613e34565b6001811115613cbc576040517f08c379a0000000000000000000000000000000000000000000000000000000008152600401613cb390615f13565b60405180910390fd5b6000829050600073ffffffffffffffffffffffffffffffffffffffff168573ffffffffffffffffffffffffffffffffffffffff1603613d0357613cfe81613f5a565b613d42565b8373ffffffffffffffffffffffffffffffffffffffff168573ffffffffffffffffffffffffffffffffffffffff1614613d4157613d408582613fa3565b5b5b600073ffffffffffffffffffffffffffffffffffffffff168473ffffffffffffffffffffffffffffffffffffffff1603613d8457613d7f81614110565b613dc3565b8473ffffffffffffffffffffffffffffffffffffffff168473ffffffffffffffffffffffffffffffffffffffff1614613dc257613dc184826141e1565b5b5b5050505050565b60007f01ffc9a7000000000000000000000000000000000000000000000000000000007bffffffffffffffffffffffffffffffffffffffffffffffffffffffff1916827bffffffffffffffffffffffffffffffffffffffffffffffffffffffff1916149050919050565b6001811115613f5457600073ffffffffffffffffffffffffffffffffffffffff168473ffffffffffffffffffffffffffffffffffffffff1614613ec85780600560008673ffffffffffffffffffffffffffffffffffffffff1673ffffffffffffffffffffffffffffffffffffffff1681526020019081526020016000206000828254613ec09190615e3e565b925050819055505b600073ffffffffffffffffffffffffffffffffffffffff168373ffffffffffffffffffffffffffffffffffffffff1614613f535780600560008573ffffffffffffffffffffffffffffffffffffffff1673ffffffffffffffffffffffffffffffffffffffff1681526020019081526020016000206000828254613f4b9190615d9e565b925050819055505b5b50505050565b600a80549050600b600083815260200190815260200160002081905550600a81908060018154018082558091505060019003906000526020600020016000909190919091505550565b60006001613fb0846114e5565b613fba9190615e3e565b905060006009600084815260200190815260200160002054905081811461409f576000600860008673ffffffffffffffffffffffffffffffffffffffff1673ffffffffffffffffffffffffffffffffffffffff168152602001908152602001600020600084815260200190815260200160002054905080600860008773ffffffffffffffffffffffffffffffffffffffff1673ffffffffffffffffffffffffffffffffffffffff168152602001908152602001600020600084815260200190815260200160002081905550816009600083815260200190815260200160002081905550505b6009600084815260200190815260200160002060009055600860008573ffffffffffffffffffffffffffffffffffffffff1673ffffffffffffffffffffffffffffffffffffffff16815260200190815260200160002060008381526020019081526020016000206000905550505050565b60006001600a805490506141249190615e3e565b90506000600b60008481526020019081526020016000205490506000600a838154811061415457614153615397565b5b9060005260206000200154905080600a838154811061417657614175615397565b5b906000526020600020018190555081600b600083815260200190815260200160002081905550600b600085815260200190815260200160002060009055600a8054806141c5576141c4615e72565b5b6001900381819060005260206000200160009055905550505050565b60006141ec836114e5565b905081600860008573ffffffffffffffffffffffffffffffffffffffff1673ffffffffffffffffffffffffffffffffffffffff168152602001908152602001600020600083815260200190815260200160002081905550806009600084815260200190815260200160002081905550505050565b604051806101800160405280600060028111156142805761427f61491a565b5b8152602001600060068111156142995761429861491a565b5b8152602001600067ffffffffffffffff168152602001600067ffffffffffffffff168152602001600073ffffffffffffffffffffffffffffffffffffffff168152602001600067ffffffffffffffff168152602001600073ffffffffffffffffffffffffffffffffffffffff168152602001600060070b8152602001600060070b815260200160008152602001600015158152602001600081525090565b6000604051905090565b600080fd5b600080fd5b60007fffffffff0000000000000000000000000000000000000000000000000000000082169050919050565b6143808161434b565b811461438b57600080fd5b50565b60008135905061439d81614377565b92915050565b6000602082840312156143b9576143b8614341565b5b60006143c78482850161438e565b91505092915050565b60008115159050919050565b6143e5816143d0565b82525050565b600060208201905061440060008301846143dc565b92915050565b6000819050919050565b61441981614406565b811461442457600080fd5b50565b60008135905061443681614410565b92915050565b60006020828403121561445257614451614341565b5b600061446084828501614427565b91505092915050565b600081519050919050565b600082825260208201905092915050565b60005b838110156144a3578082015181840152602081019050614488565b60008484015250505050565b6000601f19601f8301169050919050565b60006144cb82614469565b6144d58185614474565b93506144e5818560208601614485565b6144ee816144af565b840191505092915050565b6000602082019050818103600083015261451381846144c0565b905092915050565b600073ffffffffffffffffffffffffffffffffffffffff82169050919050565b60006145468261451b565b9050919050565b6145568161453b565b82525050565b6000602082019050614571600083018461454d565b92915050565b6145808161453b565b811461458b57600080fd5b50565b60008135905061459d81614577565b92915050565b600080604083850312156145ba576145b9614341565b5b60006145c88582860161458e565b92505060206145d985828601614427565b9150509250929050565b600067ffffffffffffffff82169050919050565b614600816145e3565b811461460b57600080fd5b50565b60008135905061461d816145f7565b92915050565b6000806040838503121561463a57614639614341565b5b600061464885828601614427565b92505060206146598582860161460e565b9150509250929050565b61466c81614406565b82525050565b60006020820190506146876000830184614663565b92915050565b6003811061469a57600080fd5b50565b6000813590506146ac8161468d565b92915050565b60008160070b9050919050565b6146c8816146b2565b81146146d357600080fd5b50565b6000813590506146e5816146bf565b92915050565b600080600080600080600060e0888a03121561470a57614709614341565b5b60006147188a828b0161469d565b97505060206147298a828b0161460e565b965050604061473a8a828b0161460e565b955050606061474b8a828b016146d6565b945050608061475c8a828b016146d6565b93505060a061476d8a828b01614427565b92505060c061477e8a828b0161458e565b91505092959891949750929550565b6000806000606084860312156147a6576147a5614341565b5b60006147b48682870161458e565b93505060206147c58682870161458e565b92505060406147d686828701614427565b9150509250925092565b6000819050919050565b6147f3816147e0565b81146147fe57600080fd5b50565b600081359050614810816147ea565b92915050565b60006020828403121561482c5761482b614341565b5b600061483a84828501614801565b91505092915050565b61484c816147e0565b82525050565b60006020820190506148676000830184614843565b92915050565b6000806040838503121561488457614883614341565b5b600061489285828601614801565b92505060206148a38582860161458e565b9150509250929050565b6000602082840312156148c3576148c2614341565b5b60006148d18482850161458e565b91505092915050565b600080604083850312156148f1576148f0614341565b5b60006148ff85828601614801565b925050602061491085828601614427565b9150509250929050565b7f4e487b7100000000000000000000000000000000000000000000000000000000600052602160045260246000fd5b6003811061495a5761495961491a565b5b50565b600081905061496b82614949565b919050565b600061497b8261495d565b9050919050565b61498b81614970565b82525050565b600781106149a2576149a161491a565b5b50565b60008190506149b382614991565b919050565b60006149c3826149a5565b9050919050565b6149d3816149b8565b82525050565b6149e2816145e3565b82525050565b6149f18161453b565b82525050565b614a00816146b2565b82525050565b614a0f81614406565b82525050565b614a1e816143d0565b82525050565b61018082016000820151614a3b6000850182614982565b506020820151614a4e60208501826149ca565b506040820151614a6160408501826149d9565b506060820151614a7460608501826149d9565b506080820151614a8760808501826149e8565b5060a0820151614a9a60a08501826149d9565b5060c0820151614aad60c08501826149e8565b5060e0820151614ac060e08501826149f7565b50610100820151614ad56101008501826149f7565b50610120820151614aea610120850182614a06565b50610140820151614aff610140850182614a15565b50610160820151614b14610160850182614a06565b50505050565b600061018082019050614b306000830184614a24565b92915050565b614b3f816143d0565b8114614b4a57600080fd5b50565b600081359050614b5c81614b36565b92915050565b60008060408385031215614b7957614b78614341565b5b6000614b878582860161458e565b9250506020614b9885828601614b4d565b9150509250929050565b600080fd5b600080fd5b7f4e487b7100000000000000000000000000000000000000000000000000000000600052604160045260246000fd5b614be4826144af565b810181811067ffffffffffffffff82111715614c0357614c02614bac565b5b80604052505050565b6000614c16614337565b9050614c228282614bdb565b919050565b600067ffffffffffffffff821115614c4257614c41614bac565b5b614c4b826144af565b9050602081019050919050565b82818337600083830152505050565b6000614c7a614c7584614c27565b614c0c565b905082815260208101848484011115614c9657614c95614ba7565b5b614ca1848285614c58565b509392505050565b600082601f830112614cbe57614cbd614ba2565b5b8135614cce848260208601614c67565b91505092915050565b60008060008060808587031215614cf157614cf0614341565b5b6000614cff8782880161458e565b9450506020614d108782880161458e565b9350506040614d2187828801614427565b925050606085013567ffffffffffffffff811115614d4257614d41614346565b5b614d4e87828801614ca9565b91505092959194509250565b60008060408385031215614d7157614d70614341565b5b6000614d7f8582860161458e565b9250506020614d908582860161458e565b9150509250929050565b60008060408385031215614db157614db0614341565b5b6000614dbf85828601614427565b9250506020614dd085828601614427565b9150509250929050565b7f4e487b7100000000000000000000000000000000000000000000000000000000600052602260045260246000fd5b60006002820490506001821680614e2157607f821691505b602082108103614e3457614e33614dda565b5b50919050565b7f4552433732313a20617070726f76616c20746f2063757272656e74206f776e6560008201527f7200000000000000000000000000000000000000000000000000000000000000602082015250565b6000614e96602183614474565b9150614ea182614e3a565b604082019050919050565b60006020820190508181036000830152614ec581614e89565b9050919050565b7f4552433732313a20617070726f76652063616c6c6572206973206e6f7420746f60008201527f6b656e206f776e6572206f7220617070726f76656420666f7220616c6c000000602082015250565b6000614f28603d83614474565b9150614f3382614ecc565b604082019050919050565b60006020820190508181036000830152614f5781614f1b565b9050919050565b6000819050919050565b6000819050919050565b6000614f8d614f88614f8384614f5e565b614f68565b614406565b9050919050565b614f9d81614f72565b82525050565b6000606082019050614fb8600083018661454d565b614fc5602083018561454d565b614fd26040830184614f94565b949350505050565b7f4e487b7100000000000000000000000000000000000000000000000000000000600052601160045260246000fd5b600061501482614406565b91507fffffffffffffffffffffffffffffffffffffffffffffffffffffffffffffffff820361504657615045614fda565b5b600182019050919050565b7f55736572206973206e6f742061206d696e746572000000000000000000000000600082015250565b6000615087601483614474565b915061509282615051565b602082019050919050565b600060208201905081810360008301526150b68161507a565b9050919050565b7f4552433732313a2063616c6c6572206973206e6f7420746f6b656e206f776e6560008201527f72206f7220617070726f76656400000000000000000000000000000000000000602082015250565b6000615119602d83614474565b9150615124826150bd565b604082019050919050565b600060208201905081810360008301526151488161510c565b9050919050565b7f455243373231456e756d657261626c653a206f776e657220696e646578206f7560008201527f74206f6620626f756e6473000000000000000000000000000000000000000000602082015250565b60006151ab602b83614474565b91506151b68261514f565b604082019050919050565b600060208201905081810360008301526151da8161519e565b9050919050565b7f416363657373436f6e74726f6c3a2063616e206f6e6c792072656e6f756e636560008201527f20726f6c657320666f722073656c660000000000000000000000000000000000602082015250565b600061523d602f83614474565b9150615248826151e1565b604082019050919050565b6000602082019050818103600083015261526c81615230565b9050919050565b7f4552433732315072657365744d696e7465725061757365724175746f49643a2060008201527f6d75737420686176652070617573657220726f6c6520746f20756e7061757365602082015250565b60006152cf604083614474565b91506152da82615273565b604082019050919050565b600060208201905081810360008301526152fe816152c2565b9050919050565b7f455243373231456e756d657261626c653a20676c6f62616c20696e646578206f60008201527f7574206f6620626f756e64730000000000000000000000000000000000000000602082015250565b6000615361602c83614474565b915061536c82615305565b604082019050919050565b6000602082019050818103600083015261539081615354565b9050919050565b7f4e487b7100000000000000000000000000000000000000000000000000000000600052603260045260246000fd5b7f4552433732313a20696e76616c696420746f6b656e2049440000000000000000600082015250565b60006153fc601883614474565b9150615407826153c6565b602082019050919050565b6000602082019050818103600083015261542b816153ef565b9050919050565b7f4552433732315072657365744d696e7465725061757365724175746f49643a2060008201527f6d7573742068617665206d696e74657220726f6c6520746f206d696e74000000602082015250565b600061548e603d83614474565b915061549982615432565b604082019050919050565b600060208201905081810360008301526154bd81615481565b9050919050565b7f4552433732313a2061646472657373207a65726f206973206e6f74206120766160008201527f6c6964206f776e65720000000000000000000000000000000000000000000000602082015250565b6000615520602983614474565b915061552b826154c4565b604082019050919050565b6000602082019050818103600083015261554f81615513565b9050919050565b7f4552433732315072657365744d696e7465725061757365724175746f49643a2060008201527f6d75737420686176652070617573657220726f6c6520746f2070617573650000602082015250565b60006155b2603e83614474565b91506155bd82615556565b604082019050919050565b600060208201905081810360008301526155e1816155a5565b9050919050565b60006155f382614406565b91506000820361560657615605614fda565b5b600182039050919050565b6000606082019050615626600083018661454d565b615633602083018561454d565b6156406040830184614663565b949350505050565b600081905092915050565b600061565e82614469565b6156688185615648565b9350615678818560208601614485565b80840191505092915050565b60006156908285615653565b915061569c8284615653565b91508190509392505050565b7f43616e6e6f742073656c6c207468697300000000000000000000000000000000600082015250565b60006156de601083614474565b91506156e9826156a8565b602082019050919050565b6000602082019050818103600083015261570d816156d1565b9050919050565b7f4552433732313a206d696e7420746f20746865207a65726f2061646472657373600082015250565b600061574a602083614474565b915061575582615714565b602082019050919050565b600060208201905081810360008301526157798161573d565b9050919050565b7f4552433732313a20746f6b656e20616c7265616479206d696e74656400000000600082015250565b60006157b6601c83614474565b91506157c182615780565b602082019050919050565b600060208201905081810360008301526157e5816157a9565b9050919050565b7f4552433732313a207472616e736665722066726f6d20696e636f72726563742060008201527f6f776e6572000000000000000000000000000000000000000000000000000000602082015250565b6000615848602583614474565b9150615853826157ec565b604082019050919050565b600060208201905081810360008301526158778161583b565b9050919050565b7f4552433732313a207472616e7366657220746f20746865207a65726f2061646460008201527f7265737300000000000000000000000000000000000000000000000000000000602082015250565b60006158da602483614474565b91506158e58261587e565b604082019050919050565b60006020820190508181036000830152615909816158cd565b9050919050565b7f4552433732313a20617070726f766520746f2063616c6c657200000000000000600082015250565b6000615946601983614474565b915061595182615910565b602082019050919050565b6000602082019050818103600083015261597581615939565b9050919050565b7f4552433732313a207472616e7366657220746f206e6f6e20455243373231526560008201527f63656976657220696d706c656d656e7465720000000000000000000000000000602082015250565b60006159d8603283614474565b91506159e38261597c565b604082019050919050565b60006020820190508181036000830152615a07816159cb565b9050919050565b7f4e487b7100000000000000000000000000000000000000000000000000000000600052601260045260246000fd5b7f416363657373436f6e74726f6c3a206163636f756e7420000000000000000000600082015250565b6000615a73601783615648565b9150615a7e82615a3d565b601782019050919050565b7f206973206d697373696e6720726f6c6520000000000000000000000000000000600082015250565b6000615abf601183615648565b9150615aca82615a89565b601182019050919050565b6000615ae082615a66565b9150615aec8285615653565b9150615af782615ab2565b9150615b038284615653565b91508190509392505050565b7f5061757361626c653a206e6f7420706175736564000000000000000000000000600082015250565b6000615b45601483614474565b9150615b5082615b0f565b602082019050919050565b60006020820190508181036000830152615b7481615b38565b9050919050565b7f5061757361626c653a2070617573656400000000000000000000000000000000600082015250565b6000615bb1601083614474565b9150615bbc82615b7b565b602082019050919050565b60006020820190508181036000830152615be081615ba4565b9050919050565b600081519050919050565b600082825260208201905092915050565b6000615c0e82615be7565b615c188185615bf2565b9350615c28818560208601614485565b615c31816144af565b840191505092915050565b6000608082019050615c51600083018761454d565b615c5e602083018661454d565b615c6b6040830185614663565b8181036060830152615c7d8184615c03565b905095945050505050565b600081519050615c9781614377565b92915050565b600060208284031215615cb357615cb2614341565b5b6000615cc184828501615c88565b91505092915050565b7f4552433732315061757361626c653a20746f6b656e207472616e73666572207760008201527f68696c6520706175736564000000000000000000000000000000000000000000602082015250565b6000615d26602b83614474565b9150615d3182615cca565b604082019050919050565b60006020820190508181036000830152615d5581615d19565b9050919050565b6000615d6782614406565b9150615d7283614406565b9250828202615d8081614406565b91508282048414831517615d9757615d96614fda565b5b5092915050565b6000615da982614406565b9150615db483614406565b9250828201905080821115615dcc57615dcb614fda565b5b92915050565b7f537472696e67733a20686578206c656e67746820696e73756666696369656e74600082015250565b6000615e08602083614474565b9150615e1382615dd2565b602082019050919050565b60006020820190508181036000830152615e3781615dfb565b9050919050565b6000615e4982614406565b9150615e5483614406565b9250828203905081811115615e6c57615e6b614fda565b5b92915050565b7f4e487b7100000000000000000000000000000000000000000000000000000000600052603160045260246000fd5b7f455243373231456e756d657261626c653a20636f6e736563757469766520747260008201527f616e7366657273206e6f7420737570706f727465640000000000000000000000602082015250565b6000615efd603583614474565b9150615f0882615ea1565b604082019050919050565b60006020820190508181036000830152615f2c81615ef0565b905091905056fea26469706673582212207ea2e2be2a4bb4e32c5c961e636a0954dbeb885568ec2caa9be2ad0887dd022864736f6c63430008110033",
  "linkReferences": {},
  "deployedLinkReferences": {}
}