{
  "_format": "hh-sol-artifact-1",
  "contractName": "SpacetimeClearingHouse",
  "sourceName": "contracts/spacetimeClearingHouse/SpacetimeClearingHouse.sol",
  "abi": [
    {
      "inputs": [],
      "stateMutability": "nonpayable",
      "type": "constructor"
    },
    {
      "anonymous": false,
      "inputs": [
        {
          "indexed": true,
          "internalType": "bytes32",
          "name": "role",
          "type": "bytes32"
        },
        {
          "indexed": true,
          "internalType": "bytes32",
          "name": "previousAdminRole",
          "type": "bytes32"
        },
        {
          "indexed": true,
          "internalType": "bytes32",
          "name": "newAdminRole",
          "type": "bytes32"
        }
      ],
      "name": "RoleAdminChanged",
      "type": "event"
    },
    {
      "anonymous": false,
      "inputs": [
        {
          "indexed": true,
          "internalType": "bytes32",
          "name": "role",
          "type": "bytes32"
        },
        {
          "indexed": true,
          "internalType": "address",
          "name": "account",
          "type": "address"
        },
        {
          "indexed": true,
          "internalType": "address",
          "name": "sender",
          "type": "address"
        }
      ],
      "name": "RoleGranted",
      "type": "event"
    },
    {
      "anonymous": false,
      "inputs": [
        {
          "indexed": true,
          "internalType": "bytes32",
          "name": "role",
          "type": "bytes32"
        },
        {
          "indexed": true,
          "internalType": "address",
          "name": "account",
          "type": "address"
        },
        {
          "indexed": true,
          "internalType": "address",
          "name": "sender",
          "type": "address"
        }
      ],
      "name": "RoleRevoked",
      "type": "event"
    },
    {
      "inputs": [],
      "name": "DEFAULT_ADMIN_ROLE",
      "outputs": [
        {
          "internalType": "bytes32",
          "name": "",
          "type": "bytes32"
        }
      ],
      "stateMutability": "view",
      "type": "function"
    },
    {
      "inputs": [
        {
          "internalType": "bytes32",
          "name": "role",
          "type": "bytes32"
        }
      ],
      "name": "getRoleAdmin",
      "outputs": [
        {
          "internalType": "bytes32",
          "name": "",
          "type": "bytes32"
        }
      ],
      "stateMutability": "view",
      "type": "function"
    },
    {
      "inputs": [
        {
          "internalType": "bytes32",
          "name": "role",
          "type": "bytes32"
        },
        {
          "internalType": "address",
          "name": "account",
          "type": "address"
        }
      ],
      "name": "grantRole",
      "outputs": [],
      "stateMutability": "nonpayable",
      "type": "function"
    },
    {
      "inputs": [
        {
          "internalType": "bytes32",
          "name": "role",
          "type": "bytes32"
        },
        {
          "internalType": "address",
          "name": "account",
          "type": "address"
        }
      ],
      "name": "hasRole",
      "outputs": [
        {
          "internalType": "bool",
          "name": "",
          "type": "bool"
        }
      ],
      "stateMutability": "view",
      "type": "function"
    },
    {
      "inputs": [
        {
          "internalType": "bytes32",
          "name": "role",
          "type": "bytes32"
        },
        {
          "internalType": "address",
          "name": "account",
          "type": "address"
        }
      ],
      "name": "renounceRole",
      "outputs": [],
      "stateMutability": "nonpayable",
      "type": "function"
    },
    {
      "inputs": [
        {
          "internalType": "bytes32",
          "name": "role",
          "type": "bytes32"
        },
        {
          "internalType": "address",
          "name": "account",
          "type": "address"
        }
      ],
      "name": "revokeRole",
      "outputs": [],
      "stateMutability": "nonpayable",
      "type": "function"
    },
    {
      "inputs": [
        {
          "internalType": "bytes4",
          "name": "interfaceId",
          "type": "bytes4"
        }
      ],
      "name": "supportsInterface",
      "outputs": [
        {
          "internalType": "bool",
          "name": "",
          "type": "bool"
        }
      ],
      "stateMutability": "view",
      "type": "function"
    },
    {
      "inputs": [
        {
          "internalType": "enum DerivativeType",
          "name": "derivativeType",
          "type": "uint8"
        },
        {
          "internalType": "uint64",
          "name": "size",
          "type": "uint64"
        },
        {
          "internalType": "uint64",
          "name": "provider",
          "type": "uint64"
        },
        {
          "internalType": "int64",
          "name": "dealTermStart",
          "type": "int64"
        },
        {
          "internalType": "int64",
          "name": "dealTermDuration",
          "type": "int64"
        },
        {
          "internalType": "uint256",
          "name": "pricePerEpoch",
          "type": "uint256"
        },
        {
          "internalType": "uint64",
          "name": "client",
          "type": "uint64"
        },
        {
          "internalType": "uint64",
          "name": "_networkDealID",
          "type": "uint64"
        }
      ],
      "name": "verifyDealData",
      "outputs": [
        {
          "internalType": "bool",
          "name": "",
          "type": "bool"
        }
      ],
      "stateMutability": "nonpayable",
      "type": "function"
    }
  ],
  "bytecode": "0x608060405234801561001057600080fd5b50613047806100206000396000f3fe608060405234801561001057600080fd5b50600436106100885760003560e01c806361f1b7ba1161005b57806361f1b7ba1461012557806391d1485414610155578063a217fddf14610185578063d547741f146101a357610088565b806301ffc9a71461008d578063248a9ca3146100bd5780632f2ff15d146100ed57806336568abe14610109575b600080fd5b6100a760048036038101906100a29190611f6e565b6101bf565b6040516100b49190611fb6565b60405180910390f35b6100d760048036038101906100d29190612007565b610239565b6040516100e49190612043565b60405180910390f35b610107600480360381019061010291906120bc565b610258565b005b610123600480360381019061011e91906120bc565b610279565b005b61013f600480360381019061013a91906121d0565b6102fc565b60405161014c9190611fb6565b60405180910390f35b61016f600480360381019061016a91906120bc565b6104fb565b60405161017c9190611fb6565b60405180910390f35b61018d610565565b60405161019a9190612043565b60405180910390f35b6101bd60048036038101906101b891906120bc565b61056c565b005b60007f7965db0b000000000000000000000000000000000000000000000000000000007bffffffffffffffffffffffffffffffffffffffffffffffffffffffff1916827bffffffffffffffffffffffffffffffffffffffffffffffffffffffff1916148061023257506102318261058d565b5b9050919050565b6000806000838152602001908152602001600020600101549050919050565b61026182610239565b61026a816105f7565b610274838361060b565b505050565b6102816106eb565b73ffffffffffffffffffffffffffffffffffffffff168173ffffffffffffffffffffffffffffffffffffffff16146102ee576040517f08c379a00000000000000000000000000000000000000000000000000000000081526004016102e590612309565b60405180910390fd5b6102f882826106f3565b5050565b600080610308836107d4565b90508367ffffffffffffffff16816000015167ffffffffffffffff1614610364576040517f08c379a000000000000000000000000000000000000000000000000000000000815260040161035b90612375565b60405180910390fd5b600061036f84610871565b90508967ffffffffffffffff16816020015167ffffffffffffffff1610156103cc576040517f08c379a00000000000000000000000000000000000000000000000000000000081526004016103c3906123e1565b60405180910390fd5b60006103d78561090e565b90508967ffffffffffffffff16816000015167ffffffffffffffff1614610433576040517f08c379a000000000000000000000000000000000000000000000000000000000815260040161042a9061244d565b60405180910390fd5b600061043e866109ab565b90508960070b816000015160070b1361048c576040517f08c379a0000000000000000000000000000000000000000000000000000000008152600401610483906124b9565b60405180910390fd5b8860070b816000015182602001516104a49190612508565b60070b136104e7576040517f08c379a00000000000000000000000000000000000000000000000000000000081526004016104de906125da565b60405180910390fd5b600194505050505098975050505050505050565b600080600084815260200190815260200160002060000160008373ffffffffffffffffffffffffffffffffffffffff1673ffffffffffffffffffffffffffffffffffffffff16815260200190815260200160002060009054906101000a900460ff16905092915050565b6000801b81565b61057582610239565b61057e816105f7565b61058883836106f3565b505050565b60007f01ffc9a7000000000000000000000000000000000000000000000000000000007bffffffffffffffffffffffffffffffffffffffffffffffffffffffff1916827bffffffffffffffffffffffffffffffffffffffffffffffffffffffff1916149050919050565b610608816106036106eb565b610a48565b50565b61061582826104fb565b6106e757600160008084815260200190815260200160002060000160008373ffffffffffffffffffffffffffffffffffffffff1673ffffffffffffffffffffffffffffffffffffffff16815260200190815260200160002060006101000a81548160ff02191690831515021790555061068c6106eb565b73ffffffffffffffffffffffffffffffffffffffff168173ffffffffffffffffffffffffffffffffffffffff16837f2f8788117e7eff1d82e926ec794901d17c78024a50270940304540a733656f0d60405160405180910390a45b5050565b600033905090565b6106fd82826104fb565b156107d057600080600084815260200190815260200160002060000160008373ffffffffffffffffffffffffffffffffffffffff1673ffffffffffffffffffffffffffffffffffffffff16815260200190815260200160002060006101000a81548160ff0219169083151502179055506107756106eb565b73ffffffffffffffffffffffffffffffffffffffff168173ffffffffffffffffffffffffffffffffffffffff16837ff6391f5c32d9c69d2a47ea670b442974b53935d1edc7fd64eb21e047a839171b60405160405180910390a45b5050565b6107dc611e4a565b60006107f18367ffffffffffffffff16610acd565b9050600061083b6307a1f0516040518060400160405280600281526020017e0500000000000000000000000000000000000000000000000000000000000081525084607134610b01565b9050600061084882610c3c565b9050610852611e4a565b6108658282610d2d90919063ffffffff16565b80945050505050919050565b610879611e67565b600061088e8367ffffffffffffffff16610acd565b905060006108d8634505760a6040518060400160405280600281526020017e0500000000000000000000000000000000000000000000000000000000000081525084607134610b01565b905060006108e582610c3c565b90506108ef611e67565b6109028282610d6890919063ffffffff16565b80945050505050919050565b610916611e8b565b600061092b8367ffffffffffffffff16610acd565b905060006109756337bc36da6040518060400160405280600281526020017e0500000000000000000000000000000000000000000000000000000000000081525084607134610b01565b9050600061098282610c3c565b905061098c611e8b565b61099f8282610de990919063ffffffff16565b80945050505050919050565b6109b3611ea8565b60006109c88367ffffffffffffffff16610acd565b90506000610a126309c30b206040518060400160405280600281526020017e0500000000000000000000000000000000000000000000000000000000000081525084607134610b01565b90506000610a1f82610c3c565b9050610a29611ea8565b610a3c8282610e2490919063ffffffff16565b80945050505050919050565b610a5282826104fb565b610ac957610a5f81610eb8565b610a6d8360001c6020610ee5565b604051602001610a7e929190612703565b6040516020818303038152906040526040517f08c379a0000000000000000000000000000000000000000000000000000000008152600401610ac09190612787565b60405180910390fd5b5050565b60606000610adb6040611121565b9050610af0838261114890919063ffffffff16565b610af981611158565b915050919050565b606060008073fe0000000000000000000000000000000000000373ffffffffffffffffffffffffffffffffffffffff1688856000888a8c604051602001610b4d9695949392919061281c565b604051602081830303815290604052604051610b6991906128c7565b600060405180830381855af49150503d8060008114610ba4576040519150601f19603f3d011682016040523d82523d6000602084013e610ba9565b606091505b509150915060011515821515146040518060400160405280601181526020017f6163746f722063616c6c206661696c656400000000000000000000000000000081525090610c2d576040517f08c379a0000000000000000000000000000000000000000000000000000000008152600401610c249190612787565b60405180910390fd5b50809250505095945050505050565b6060600080600084806020019051810190610c579190612a4f565b925092509250600067ffffffffffffffff168267ffffffffffffffff161480610c945750607167ffffffffffffffff168267ffffffffffffffff16145b610cd3576040517f08c379a0000000000000000000000000000000000000000000000000000000008152600401610cca90612b0a565b60405180910390fd5b60008314610ce0846111b1565b90610d21576040517f08c379a0000000000000000000000000000000000000000000000000000000008152600401610d189190612787565b60405180910390fd5b50809350505050919050565b6000610d42818361121b90919063ffffffff16565b846000018193508267ffffffffffffffff1667ffffffffffffffff168152505050505050565b600080610d7e828461126a90919063ffffffff16565b80935081925050506000811115610de357610da282846112b990919063ffffffff16565b856000018194508290525050610dc1828461121b90919063ffffffff16565b856020018194508267ffffffffffffffff1667ffffffffffffffff1681525050505b50505050565b6000610dfe818361121b90919063ffffffff16565b846000018193508267ffffffffffffffff1667ffffffffffffffff168152505050505050565b600080600080610e3d828661126a90919063ffffffff16565b809350819250505060028114610e5657610e55612b2a565b5b610e69828661146390919063ffffffff16565b8093508195505050610e84828661146390919063ffffffff16565b809350819450505083866000019060070b908160070b8152505082866020019060070b908160070b81525050505050505050565b6060610ede8273ffffffffffffffffffffffffffffffffffffffff16601460ff16610ee5565b9050919050565b606060006002836002610ef89190612b59565b610f029190612b9b565b67ffffffffffffffff811115610f1b57610f1a612933565b5b6040519080825280601f01601f191660200182016040528015610f4d5781602001600182028036833780820191505090505b5090507f300000000000000000000000000000000000000000000000000000000000000081600081518110610f8557610f84612bcf565b5b60200101907effffffffffffffffffffffffffffffffffffffffffffffffffffffffffffff1916908160001a9053507f780000000000000000000000000000000000000000000000000000000000000081600181518110610fe957610fe8612bcf565b5b60200101907effffffffffffffffffffffffffffffffffffffffffffffffffffffffffffff1916908160001a905350600060018460026110299190612b59565b6110339190612b9b565b90505b60018111156110d3577f3031323334353637383961626364656600000000000000000000000000000000600f86166010811061107557611074612bcf565b5b1a60f81b82828151811061108c5761108b612bcf565b5b60200101907effffffffffffffffffffffffffffffffffffffffffffffffffffffffffffff1916908160001a905350600485901c9450806110cc90612bfe565b9050611036565b5060008414611117576040517f08c379a000000000000000000000000000000000000000000000000000000000815260040161110e90612c73565b60405180910390fd5b8091505092915050565b611129611ec8565b6111378160000151836114c3565b506000816020018181525050919050565b6111548260008361153c565b5050565b606060008260200151146111a1576040517f08c379a000000000000000000000000000000000000000000000000000000000815260040161119890612cdf565b60405180910390fd5b8160000151600001519050919050565b606060008212156111eb576111c5826116e5565b6040516020016111d59190612d25565b6040516020818303038152906040529050611216565b6111f4826116e5565b6040516020016112049190612d25565b60405160208183030381529060405290505b919050565b60008060008061122b86866117b3565b8167ffffffffffffffff169150809750819350829450505050600060ff168260ff161461125b5761125a612b2a565b5b80859350935050509250929050565b60008060008061127a86866117b3565b8167ffffffffffffffff169150809750819350829450505050600460ff168260ff16146112aa576112a9612b2a565b5b80859350935050509250929050565b606060008060006112ca86866117b3565b8167ffffffffffffffff169150809750819350829450505050600660ff168260ff1614806112fe5750600260ff168260ff16145b61130b5761130a612b2a565b5b600660ff168260ff16036113545761132386866117b3565b8167ffffffffffffffff169150809750819350829450505050600260ff168260ff161461135357611352612b2a565b5b5b600081866113629190612b9b565b905060008267ffffffffffffffff8111156113805761137f612933565b5b6040519080825280601f01601f1916602001820160405280156113b25781602001600182028036833780820191505090505b5090506000808890505b83811015611445578981815181106113d7576113d6612bcf565b5b602001015160f81c60f81b8383815181106113f5576113f4612bcf565b5b60200101907effffffffffffffffffffffffffffffffffffffffffffffffffffffffffffff1916908160001a905350818061142f90612d4b565b925050808061143d90612d4b565b9150506113bc565b508184896114539190612b9b565b9650965050505050509250929050565b60008060008061147386866117b3565b8167ffffffffffffffff169150809750819350829450505050600160ff168260ff1614806114a75750600060ff168260ff16145b6114b4576114b3612b2a565b5b80859350935050509250929050565b6114cb611ee8565b60006020836114da9190612dc2565b14611506576020826114ec9190612dc2565b60206114f89190612df3565b826115039190612b9b565b91505b81836020018181525050604051808452600081528281016020018181101561152d57600080fd5b80604052505082905092915050565b60178167ffffffffffffffff1611611577576115718160058460ff16901b60ff1617846000015161194190919063ffffffff16565b506116e0565b60ff8167ffffffffffffffff16116115d5576115aa601860058460ff16901b17846000015161194190919063ffffffff16565b506115cf8167ffffffffffffffff16600185600001516119ab9092919063ffffffff16565b506116df565b61ffff8167ffffffffffffffff161161163457611609601960058460ff16901b17846000015161194190919063ffffffff16565b5061162e8167ffffffffffffffff16600285600001516119ab9092919063ffffffff16565b506116de565b63ffffffff8167ffffffffffffffff16116116955761166a601a60058460ff16901b17846000015161194190919063ffffffff16565b5061168f8167ffffffffffffffff16600485600001516119ab9092919063ffffffff16565b506116dd565b6116b6601b60058460ff16901b17846000015161194190919063ffffffff16565b506116db8167ffffffffffffffff16600885600001516119ab9092919063ffffffff16565b505b5b5b5b505050565b6060600060016116f484611a38565b01905060008167ffffffffffffffff81111561171357611712612933565b5b6040519080825280601f01601f1916602001820160405280156117455781602001600182028036833780820191505090505b509050600082602001820190505b6001156117a8578080600190039150507f3031323334353637383961626364656600000000000000000000000000000000600a86061a8153600a858161179c5761179b612d93565b5b04945060008503611753575b819350505050919050565b6000806000806117c38686611b8b565b90506001856117d29190612b9b565b94506000600560e0831660ff16901c90506000601f83169050601c8160ff16106117ff576117fe612b2a565b5b60188160ff161015611822578181888160ff16915095509550955050505061193a565b60188160ff16036118775760006118398989611b8b565b90506001886118489190612b9b565b975060188160ff16101561185f5761185e612b2a565b5b8281898160ff1691509650965096505050505061193a565b60198160ff16036118b857600061188e8989611bf2565b905060028861189d9190612b9b565b97508281898161ffff1691509650965096505050505061193a565b601a8160ff16036118fb5760006118cf8989611c59565b90506004886118de9190612b9b565b97508281898163ffffffff1691509650965096505050505061193a565b601b8160ff161461190f5761190e612b2a565b5b600061191b8989611cc0565b905060088861192a9190612b9b565b9750828189965096509650505050505b9250925092565b611949611ee8565b6000836000015151905060006001826119629190612b9b565b90508460200151821061198657611985856002836119809190612b59565b611d27565b5b8451602083820101858153815183111561199e578282525b5050849250505092915050565b6119b3611ee8565b60008460000151519050600081846119cb9190612b9b565b905085602001518111156119f0576119ef866002836119ea9190612b59565b611d27565b5b6000600185610100611a029190612f5a565b611a0c9190612df3565b905086518281018783198251161781528151841115611a29578382525b50508693505050509392505050565b600080600090507a184f03e93ff9f4daa797ed6e38ed64bf6a1f0100000000000000008310611a96577a184f03e93ff9f4daa797ed6e38ed64bf6a1f0100000000000000008381611a8c57611a8b612d93565b5b0492506040810190505b6d04ee2d6d415b85acef81000000008310611ad3576d04ee2d6d415b85acef81000000008381611ac957611ac8612d93565b5b0492506020810190505b662386f26fc100008310611b0257662386f26fc100008381611af857611af7612d93565b5b0492506010810190505b6305f5e1008310611b2b576305f5e1008381611b2157611b20612d93565b5b0492506008810190505b6127108310611b50576127108381611b4657611b45612d93565b5b0492506004810190505b60648310611b735760648381611b6957611b68612d93565b5b0492506002810190505b600a8310611b82576001810190505b80915050919050565b6000600182611b9a9190612b9b565b83511015611bdd576040517f08c379a0000000000000000000000000000000000000000000000000000000008152600401611bd490612ff1565b60405180910390fd5b60008260010184015190508091505092915050565b6000600282611c019190612b9b565b83511015611c44576040517f08c379a0000000000000000000000000000000000000000000000000000000008152600401611c3b90612ff1565b60405180910390fd5b60008260020184015190508091505092915050565b6000600482611c689190612b9b565b83511015611cab576040517f08c379a0000000000000000000000000000000000000000000000000000000008152600401611ca290612ff1565b60405180910390fd5b60008260040184015190508091505092915050565b6000600882611ccf9190612b9b565b83511015611d12576040517f08c379a0000000000000000000000000000000000000000000000000000000008152600401611d0990612ff1565b60405180910390fd5b60008260080184015190508091505092915050565b600082600001519050611d3a83836114c3565b50611d458382611d4b565b50505050565b611d53611ee8565b611d5f83838451611d67565b905092915050565b611d6f611ee8565b8251821115611d7d57600080fd5b6000846000015151905060008382611d959190612b9b565b90508560200151811115611dba57611db986600283611db49190612b59565b611d27565b5b60008087518051856020830101935080851115611dd5578482525b60208901925050505b60208610611e1c5780518252602082611df79190612b9b565b9150602081611e069190612b9b565b9050602086611e159190612df3565b9550611dde565b60006001876020036101000a0390508019825116818451168181178552505050879450505050509392505050565b6040518060200160405280600067ffffffffffffffff1681525090565b604051806040016040528060608152602001600067ffffffffffffffff1681525090565b6040518060200160405280600067ffffffffffffffff1681525090565b6040518060400160405280600060070b8152602001600060070b81525090565b6040518060400160405280611edb611ee8565b8152602001600081525090565b604051806040016040528060608152602001600081525090565b6000604051905090565b600080fd5b600080fd5b60007fffffffff0000000000000000000000000000000000000000000000000000000082169050919050565b611f4b81611f16565b8114611f5657600080fd5b50565b600081359050611f6881611f42565b92915050565b600060208284031215611f8457611f83611f0c565b5b6000611f9284828501611f59565b91505092915050565b60008115159050919050565b611fb081611f9b565b82525050565b6000602082019050611fcb6000830184611fa7565b92915050565b6000819050919050565b611fe481611fd1565b8114611fef57600080fd5b50565b60008135905061200181611fdb565b92915050565b60006020828403121561201d5761201c611f0c565b5b600061202b84828501611ff2565b91505092915050565b61203d81611fd1565b82525050565b60006020820190506120586000830184612034565b92915050565b600073ffffffffffffffffffffffffffffffffffffffff82169050919050565b60006120898261205e565b9050919050565b6120998161207e565b81146120a457600080fd5b50565b6000813590506120b681612090565b92915050565b600080604083850312156120d3576120d2611f0c565b5b60006120e185828601611ff2565b92505060206120f2858286016120a7565b9150509250929050565b6003811061210957600080fd5b50565b60008135905061211b816120fc565b92915050565b600067ffffffffffffffff82169050919050565b61213e81612121565b811461214957600080fd5b50565b60008135905061215b81612135565b92915050565b60008160070b9050919050565b61217781612161565b811461218257600080fd5b50565b6000813590506121948161216e565b92915050565b6000819050919050565b6121ad8161219a565b81146121b857600080fd5b50565b6000813590506121ca816121a4565b92915050565b600080600080600080600080610100898b0312156121f1576121f0611f0c565b5b60006121ff8b828c0161210c565b98505060206122108b828c0161214c565b97505060406122218b828c0161214c565b96505060606122328b828c01612185565b95505060806122438b828c01612185565b94505060a06122548b828c016121bb565b93505060c06122658b828c0161214c565b92505060e06122768b828c0161214c565b9150509295985092959890939650565b600082825260208201905092915050565b7f416363657373436f6e74726f6c3a2063616e206f6e6c792072656e6f756e636560008201527f20726f6c657320666f722073656c660000000000000000000000000000000000602082015250565b60006122f3602f83612286565b91506122fe82612297565b604082019050919050565b60006020820190508181036000830152612322816122e6565b9050919050565b7f436c69656e7420646f6573206e6f74206d617463680000000000000000000000600082015250565b600061235f601583612286565b915061236a82612329565b602082019050919050565b6000602082019050818103600083015261238e81612352565b9050919050565b7f53697a65206c6573736572207468616e20636f6d6d6974746564000000000000600082015250565b60006123cb601a83612286565b91506123d682612395565b602082019050919050565b600060208201905081810360008301526123fa816123be565b9050919050565b7f50726f766964657220646f6573206e6f74206d61746368000000000000000000600082015250565b6000612437601783612286565b915061244282612401565b602082019050919050565b600060208201905081810360008301526124668161242a565b9050919050565b7f4465616c2073746172746564206265666f72652074696d650000000000000000600082015250565b60006124a3601883612286565b91506124ae8261246d565b602082019050919050565b600060208201905081810360008301526124d281612496565b9050919050565b7f4e487b7100000000000000000000000000000000000000000000000000000000600052601160045260246000fd5b600061251382612161565b915061251e83612161565b92508282039050677fffffffffffffff81137fffffffffffffffffffffffffffffffffffffffffffffffff800000000000000082121715612562576125616124d9565b5b92915050565b7f4465616c206475726174696f6e206c6573736572207468616e2065787065637460008201527f6564000000000000000000000000000000000000000000000000000000000000602082015250565b60006125c4602283612286565b91506125cf82612568565b604082019050919050565b600060208201905081810360008301526125f3816125b7565b9050919050565b600081905092915050565b7f416363657373436f6e74726f6c3a206163636f756e7420000000000000000000600082015250565b600061263b6017836125fa565b915061264682612605565b601782019050919050565b600081519050919050565b60005b8381101561267a57808201518184015260208101905061265f565b60008484015250505050565b600061269182612651565b61269b81856125fa565b93506126ab81856020860161265c565b80840191505092915050565b7f206973206d697373696e6720726f6c6520000000000000000000000000000000600082015250565b60006126ed6011836125fa565b91506126f8826126b7565b601182019050919050565b600061270e8261262e565b915061271a8285612686565b9150612725826126e0565b91506127318284612686565b91508190509392505050565b6000601f19601f8301169050919050565b600061275982612651565b6127638185612286565b935061277381856020860161265c565b61277c8161273d565b840191505092915050565b600060208201905081810360008301526127a1818461274e565b905092915050565b6127b281612121565b82525050565b6127c18161219a565b82525050565b600081519050919050565b600082825260208201905092915050565b60006127ee826127c7565b6127f881856127d2565b935061280881856020860161265c565b6128118161273d565b840191505092915050565b600060c08201905061283160008301896127a9565b61283e60208301886127b8565b61284b60408301876127a9565b61285860608301866127a9565b818103608083015261286a81856127e3565b905081810360a083015261287e81846127e3565b9050979650505050505050565b600081905092915050565b60006128a1826127c7565b6128ab818561288b565b93506128bb81856020860161265c565b80840191505092915050565b60006128d38284612896565b915081905092915050565b6000819050919050565b6128f1816128de565b81146128fc57600080fd5b50565b60008151905061290e816128e8565b92915050565b60008151905061292381612135565b92915050565b600080fd5b600080fd5b7f4e487b7100000000000000000000000000000000000000000000000000000000600052604160045260246000fd5b61296b8261273d565b810181811067ffffffffffffffff8211171561298a57612989612933565b5b80604052505050565b600061299d611f02565b90506129a98282612962565b919050565b600067ffffffffffffffff8211156129c9576129c8612933565b5b6129d28261273d565b9050602081019050919050565b60006129f26129ed846129ae565b612993565b905082815260208101848484011115612a0e57612a0d61292e565b5b612a1984828561265c565b509392505050565b600082601f830112612a3657612a35612929565b5b8151612a468482602086016129df565b91505092915050565b600080600060608486031215612a6857612a67611f0c565b5b6000612a76868287016128ff565b9350506020612a8786828701612914565b925050604084015167ffffffffffffffff811115612aa857612aa7611f11565b5b612ab486828701612a21565b9150509250925092565b7f726573706f6e736520636f646563206e6f7420737570706f7274656400000000600082015250565b6000612af4601c83612286565b9150612aff82612abe565b602082019050919050565b60006020820190508181036000830152612b2381612ae7565b9050919050565b7f4e487b7100000000000000000000000000000000000000000000000000000000600052600160045260246000fd5b6000612b648261219a565b9150612b6f8361219a565b9250828202612b7d8161219a565b91508282048414831517612b9457612b936124d9565b5b5092915050565b6000612ba68261219a565b9150612bb18361219a565b9250828201905080821115612bc957612bc86124d9565b5b92915050565b7f4e487b7100000000000000000000000000000000000000000000000000000000600052603260045260246000fd5b6000612c098261219a565b915060008203612c1c57612c1b6124d9565b5b600182039050919050565b7f537472696e67733a20686578206c656e67746820696e73756666696369656e74600082015250565b6000612c5d602083612286565b9150612c6882612c27565b602082019050919050565b60006020820190508181036000830152612c8c81612c50565b9050919050565b7f496e76616c69642043424f520000000000000000000000000000000000000000600082015250565b6000612cc9600c83612286565b9150612cd482612c93565b602082019050919050565b60006020820190508181036000830152612cf881612cbc565b9050919050565b7f6163746f72206572726f7220636f6465202d0000000000000000000000000000815250565b6000612d3082612cff565b601282019150612d408284612686565b915081905092915050565b6000612d568261219a565b91507fffffffffffffffffffffffffffffffffffffffffffffffffffffffffffffffff8203612d8857612d876124d9565b5b600182019050919050565b7f4e487b7100000000000000000000000000000000000000000000000000000000600052601260045260246000fd5b6000612dcd8261219a565b9150612dd88361219a565b925082612de857612de7612d93565b5b828206905092915050565b6000612dfe8261219a565b9150612e098361219a565b9250828203905081811115612e2157612e206124d9565b5b92915050565b60008160011c9050919050565b6000808291508390505b6001851115612e7e57808604811115612e5a57612e596124d9565b5b6001851615612e695780820291505b8081029050612e7785612e27565b9450612e3e565b94509492505050565b600082612e975760019050612f53565b81612ea55760009050612f53565b8160018114612ebb5760028114612ec557612ef4565b6001915050612f53565b60ff841115612ed757612ed66124d9565b5b8360020a915084821115612eee57612eed6124d9565b5b50612f53565b5060208310610133831016604e8410600b8410161715612f295782820a905083811115612f2457612f236124d9565b5b612f53565b612f368484846001612e34565b92509050818404811115612f4d57612f4c6124d9565b5b81810290505b9392505050565b6000612f658261219a565b9150612f708361219a565b9250612f9d7fffffffffffffffffffffffffffffffffffffffffffffffffffffffffffffffff8484612e87565b905092915050565b7f736c6963696e67206f7574206f662072616e6765000000000000000000000000600082015250565b6000612fdb601483612286565b9150612fe682612fa5565b602082019050919050565b6000602082019050818103600083015261300a81612fce565b905091905056fea26469706673582212200cdaf1d461b823b85427a4c1f0576719d119572ebd79eb21ff94c7517bf3e6e464736f6c63430008110033",
  "linkReferences": {},
  "deployedLinkReferences": {}
}