{
  "_format": "hh-sol-artifact-1",
  "contractName": "SpacetimeToken",
  "sourceName": "contracts/spacetimeToken/SpacetimeToken.sol",
  "abi": [
    {
      "inputs": [],
      "stateMutability": "nonpayable",
      "type": "constructor"
    },
    {
      "anonymous": false,
      "inputs": [
        {
          "indexed": true,
          "internalType": "address",
          "name": "owner",
          "type": "address"
        },
        {
          "indexed": true,
          "internalType": "address",
          "name": "spender",
          "type": "address"
        },
        {
          "indexed": false,
          "internalType": "uint256",
          "name": "value",
          "type": "uint256"
        }
      ],
      "name": "Approval",
      "type": "event"
    },
    {
      "anonymous": false,
      "inputs": [
        {
          "indexed": false,
          "internalType": "address",
          "name": "account",
          "type": "address"
        }
      ],
      "name": "Paused",
      "type": "event"
    },
    {
      "anonymous": false,
      "inputs": [
        {
          "indexed": true,
          "internalType": "bytes32",
          "name": "role",
          "type": "bytes32"
        },
        {
          "indexed": true,
          "internalType": "bytes32",
          "name": "previousAdminRole",
          "type": "bytes32"
        },
        {
          "indexed": true,
          "internalType": "bytes32",
          "name": "newAdminRole",
          "type": "bytes32"
        }
      ],
      "name": "RoleAdminChanged",
      "type": "event"
    },
    {
      "anonymous": false,
      "inputs": [
        {
          "indexed": true,
          "internalType": "bytes32",
          "name": "role",
          "type": "bytes32"
        },
        {
          "indexed": true,
          "internalType": "address",
          "name": "account",
          "type": "address"
        },
        {
          "indexed": true,
          "internalType": "address",
          "name": "sender",
          "type": "address"
        }
      ],
      "name": "RoleGranted",
      "type": "event"
    },
    {
      "anonymous": false,
      "inputs": [
        {
          "indexed": true,
          "internalType": "bytes32",
          "name": "role",
          "type": "bytes32"
        },
        {
          "indexed": true,
          "internalType": "address",
          "name": "account",
          "type": "address"
        },
        {
          "indexed": true,
          "internalType": "address",
          "name": "sender",
          "type": "address"
        }
      ],
      "name": "RoleRevoked",
      "type": "event"
    },
    {
      "anonymous": false,
      "inputs": [
        {
          "indexed": true,
          "internalType": "address",
          "name": "from",
          "type": "address"
        },
        {
          "indexed": true,
          "internalType": "address",
          "name": "to",
          "type": "address"
        },
        {
          "indexed": false,
          "internalType": "uint256",
          "name": "value",
          "type": "uint256"
        }
      ],
      "name": "Transfer",
      "type": "event"
    },
    {
      "anonymous": false,
      "inputs": [
        {
          "indexed": false,
          "internalType": "address",
          "name": "account",
          "type": "address"
        }
      ],
      "name": "Unpaused",
      "type": "event"
    },
    {
      "inputs": [],
      "name": "DEFAULT_ADMIN_ROLE",
      "outputs": [
        {
          "internalType": "bytes32",
          "name": "",
          "type": "bytes32"
        }
      ],
      "stateMutability": "view",
      "type": "function"
    },
    {
      "inputs": [],
      "name": "MINTER_ROLE",
      "outputs": [
        {
          "internalType": "bytes32",
          "name": "",
          "type": "bytes32"
        }
      ],
      "stateMutability": "view",
      "type": "function"
    },
    {
      "inputs": [],
      "name": "PAUSER_ROLE",
      "outputs": [
        {
          "internalType": "bytes32",
          "name": "",
          "type": "bytes32"
        }
      ],
      "stateMutability": "view",
      "type": "function"
    },
    {
      "inputs": [
        {
          "internalType": "address",
          "name": "owner",
          "type": "address"
        },
        {
          "internalType": "address",
          "name": "spender",
          "type": "address"
        }
      ],
      "name": "allowance",
      "outputs": [
        {
          "internalType": "uint256",
          "name": "",
          "type": "uint256"
        }
      ],
      "stateMutability": "view",
      "type": "function"
    },
    {
      "inputs": [
        {
          "internalType": "address",
          "name": "spender",
          "type": "address"
        },
        {
          "internalType": "uint256",
          "name": "amount",
          "type": "uint256"
        }
      ],
      "name": "approve",
      "outputs": [
        {
          "internalType": "bool",
          "name": "",
          "type": "bool"
        }
      ],
      "stateMutability": "nonpayable",
      "type": "function"
    },
    {
      "inputs": [
        {
          "internalType": "address",
          "name": "account",
          "type": "address"
        }
      ],
      "name": "balanceOf",
      "outputs": [
        {
          "internalType": "uint256",
          "name": "",
          "type": "uint256"
        }
      ],
      "stateMutability": "view",
      "type": "function"
    },
    {
      "inputs": [
        {
          "internalType": "uint256",
          "name": "amount",
          "type": "uint256"
        }
      ],
      "name": "burn",
      "outputs": [],
      "stateMutability": "nonpayable",
      "type": "function"
    },
    {
      "inputs": [
        {
          "internalType": "address",
          "name": "account",
          "type": "address"
        },
        {
          "internalType": "uint256",
          "name": "amount",
          "type": "uint256"
        }
      ],
      "name": "burnFrom",
      "outputs": [],
      "stateMutability": "nonpayable",
      "type": "function"
    },
    {
      "inputs": [],
      "name": "decimals",
      "outputs": [
        {
          "internalType": "uint8",
          "name": "",
          "type": "uint8"
        }
      ],
      "stateMutability": "view",
      "type": "function"
    },
    {
      "inputs": [
        {
          "internalType": "address",
          "name": "spender",
          "type": "address"
        },
        {
          "internalType": "uint256",
          "name": "subtractedValue",
          "type": "uint256"
        }
      ],
      "name": "decreaseAllowance",
      "outputs": [
        {
          "internalType": "bool",
          "name": "",
          "type": "bool"
        }
      ],
      "stateMutability": "nonpayable",
      "type": "function"
    },
    {
      "inputs": [
        {
          "internalType": "bytes32",
          "name": "role",
          "type": "bytes32"
        }
      ],
      "name": "getRoleAdmin",
      "outputs": [
        {
          "internalType": "bytes32",
          "name": "",
          "type": "bytes32"
        }
      ],
      "stateMutability": "view",
      "type": "function"
    },
    {
      "inputs": [
        {
          "internalType": "bytes32",
          "name": "role",
          "type": "bytes32"
        },
        {
          "internalType": "uint256",
          "name": "index",
          "type": "uint256"
        }
      ],
      "name": "getRoleMember",
      "outputs": [
        {
          "internalType": "address",
          "name": "",
          "type": "address"
        }
      ],
      "stateMutability": "view",
      "type": "function"
    },
    {
      "inputs": [
        {
          "internalType": "bytes32",
          "name": "role",
          "type": "bytes32"
        }
      ],
      "name": "getRoleMemberCount",
      "outputs": [
        {
          "internalType": "uint256",
          "name": "",
          "type": "uint256"
        }
      ],
      "stateMutability": "view",
      "type": "function"
    },
    {
      "inputs": [
        {
          "internalType": "bytes32",
          "name": "role",
          "type": "bytes32"
        },
        {
          "internalType": "address",
          "name": "account",
          "type": "address"
        }
      ],
      "name": "grantRole",
      "outputs": [],
      "stateMutability": "nonpayable",
      "type": "function"
    },
    {
      "inputs": [
        {
          "internalType": "bytes32",
          "name": "role",
          "type": "bytes32"
        },
        {
          "internalType": "address",
          "name": "account",
          "type": "address"
        }
      ],
      "name": "hasRole",
      "outputs": [
        {
          "internalType": "bool",
          "name": "",
          "type": "bool"
        }
      ],
      "stateMutability": "view",
      "type": "function"
    },
    {
      "inputs": [
        {
          "internalType": "address",
          "name": "spender",
          "type": "address"
        },
        {
          "internalType": "uint256",
          "name": "addedValue",
          "type": "uint256"
        }
      ],
      "name": "increaseAllowance",
      "outputs": [
        {
          "internalType": "bool",
          "name": "",
          "type": "bool"
        }
      ],
      "stateMutability": "nonpayable",
      "type": "function"
    },
    {
      "inputs": [
        {
          "internalType": "address",
          "name": "to",
          "type": "address"
        },
        {
          "internalType": "uint256",
          "name": "amount",
          "type": "uint256"
        }
      ],
      "name": "mint",
      "outputs": [],
      "stateMutability": "nonpayable",
      "type": "function"
    },
    {
      "inputs": [],
      "name": "name",
      "outputs": [
        {
          "internalType": "string",
          "name": "",
          "type": "string"
        }
      ],
      "stateMutability": "view",
      "type": "function"
    },
    {
      "inputs": [],
      "name": "pause",
      "outputs": [],
      "stateMutability": "nonpayable",
      "type": "function"
    },
    {
      "inputs": [],
      "name": "paused",
      "outputs": [
        {
          "internalType": "bool",
          "name": "",
          "type": "bool"
        }
      ],
      "stateMutability": "view",
      "type": "function"
    },
    {
      "inputs": [
        {
          "internalType": "address",
          "name": "from",
          "type": "address"
        },
        {
          "internalType": "address",
          "name": "to",
          "type": "address"
        },
        {
          "internalType": "uint256",
          "name": "amount",
          "type": "uint256"
        }
      ],
      "name": "permissionlessTransferFrom",
      "outputs": [],
      "stateMutability": "nonpayable",
      "type": "function"
    },
    {
      "inputs": [
        {
          "internalType": "bytes32",
          "name": "role",
          "type": "bytes32"
        },
        {
          "internalType": "address",
          "name": "account",
          "type": "address"
        }
      ],
      "name": "renounceRole",
      "outputs": [],
      "stateMutability": "nonpayable",
      "type": "function"
    },
    {
      "inputs": [
        {
          "internalType": "bytes32",
          "name": "role",
          "type": "bytes32"
        },
        {
          "internalType": "address",
          "name": "account",
          "type": "address"
        }
      ],
      "name": "revokeRole",
      "outputs": [],
      "stateMutability": "nonpayable",
      "type": "function"
    },
    {
      "inputs": [
        {
          "internalType": "bytes4",
          "name": "interfaceId",
          "type": "bytes4"
        }
      ],
      "name": "supportsInterface",
      "outputs": [
        {
          "internalType": "bool",
          "name": "",
          "type": "bool"
        }
      ],
      "stateMutability": "view",
      "type": "function"
    },
    {
      "inputs": [],
      "name": "symbol",
      "outputs": [
        {
          "internalType": "string",
          "name": "",
          "type": "string"
        }
      ],
      "stateMutability": "view",
      "type": "function"
    },
    {
      "inputs": [],
      "name": "totalSupply",
      "outputs": [
        {
          "internalType": "uint256",
          "name": "",
          "type": "uint256"
        }
      ],
      "stateMutability": "view",
      "type": "function"
    },
    {
      "inputs": [
        {
          "internalType": "address",
          "name": "to",
          "type": "address"
        },
        {
          "internalType": "uint256",
          "name": "amount",
          "type": "uint256"
        }
      ],
      "name": "transfer",
      "outputs": [
        {
          "internalType": "bool",
          "name": "",
          "type": "bool"
        }
      ],
      "stateMutability": "nonpayable",
      "type": "function"
    },
    {
      "inputs": [
        {
          "internalType": "address",
          "name": "from",
          "type": "address"
        },
        {
          "internalType": "address",
          "name": "to",
          "type": "address"
        },
        {
          "internalType": "uint256",
          "name": "amount",
          "type": "uint256"
        }
      ],
      "name": "transferFrom",
      "outputs": [
        {
          "internalType": "bool",
          "name": "",
          "type": "bool"
        }
      ],
      "stateMutability": "nonpayable",
      "type": "function"
    },
    {
      "inputs": [],
      "name": "unpause",
      "outputs": [],
      "stateMutability": "nonpayable",
      "type": "function"
    }
  ],
  "bytecode": "0x60806040523480156200001157600080fd5b506040518060400160405280600981526020017f537061636574696d6500000000000000000000000000000000000000000000008152506040518060400160405280600381526020017f5350540000000000000000000000000000000000000000000000000000000000815250818181600590816200009191906200067f565b508060069081620000a391906200067f565b5050506000600760006101000a81548160ff021916908315150217905550620000e56000801b620000d96200016f60201b60201c565b6200017760201b60201c565b620001267f9f2df0fed2c77648de5860a4cc508cd0818c85b8b8a1ab4ceeef8d981c8956a66200011a6200016f60201b60201c565b6200017760201b60201c565b620001677f65d7a28e3265b37a6474929f336521b332c1681b933f6cb9f3376673440d862a6200015b6200016f60201b60201c565b6200017760201b60201c565b505062000766565b600033905090565b6200018982826200018d60201b60201c565b5050565b620001a48282620001d560201b62000da61760201c565b620001d08160016000858152602001908152602001600020620002c660201b62000e861790919060201c565b505050565b620001e78282620002fe60201b60201c565b620002c257600160008084815260200190815260200160002060000160008373ffffffffffffffffffffffffffffffffffffffff1673ffffffffffffffffffffffffffffffffffffffff16815260200190815260200160002060006101000a81548160ff021916908315150217905550620002676200016f60201b60201c565b73ffffffffffffffffffffffffffffffffffffffff168173ffffffffffffffffffffffffffffffffffffffff16837f2f8788117e7eff1d82e926ec794901d17c78024a50270940304540a733656f0d60405160405180910390a45b5050565b6000620002f6836000018373ffffffffffffffffffffffffffffffffffffffff1660001b6200036860201b60201c565b905092915050565b600080600084815260200190815260200160002060000160008373ffffffffffffffffffffffffffffffffffffffff1673ffffffffffffffffffffffffffffffffffffffff16815260200190815260200160002060009054906101000a900460ff16905092915050565b60006200037c8383620003e260201b60201c565b620003d7578260000182908060018154018082558091505060019003906000526020600020016000909190919091505582600001805490508360010160008481526020019081526020016000208190555060019050620003dc565b600090505b92915050565b600080836001016000848152602001908152602001600020541415905092915050565b600081519050919050565b7f4e487b7100000000000000000000000000000000000000000000000000000000600052604160045260246000fd5b7f4e487b7100000000000000000000000000000000000000000000000000000000600052602260045260246000fd5b600060028204905060018216806200048757607f821691505b6020821081036200049d576200049c6200043f565b5b50919050565b60008190508160005260206000209050919050565b60006020601f8301049050919050565b600082821b905092915050565b600060088302620005077fffffffffffffffffffffffffffffffffffffffffffffffffffffffffffffffff82620004c8565b620005138683620004c8565b95508019841693508086168417925050509392505050565b6000819050919050565b6000819050919050565b6000620005606200055a62000554846200052b565b62000535565b6200052b565b9050919050565b6000819050919050565b6200057c836200053f565b620005946200058b8262000567565b848454620004d5565b825550505050565b600090565b620005ab6200059c565b620005b881848462000571565b505050565b5b81811015620005e057620005d4600082620005a1565b600181019050620005be565b5050565b601f8211156200062f57620005f981620004a3565b6200060484620004b8565b8101602085101562000614578190505b6200062c6200062385620004b8565b830182620005bd565b50505b505050565b600082821c905092915050565b6000620006546000198460080262000634565b1980831691505092915050565b60006200066f838362000641565b9150826002028217905092915050565b6200068a8262000405565b67ffffffffffffffff811115620006a657620006a562000410565b5b620006b282546200046e565b620006bf828285620005e4565b600060209050601f831160018114620006f75760008415620006e2578287015190505b620006ee858262000661565b8655506200075e565b601f1984166200070786620004a3565b60005b8281101562000731578489015182556001820191506020850194506020810190506200070a565b868310156200075157848901516200074d601f89168262000641565b8355505b6001600288020188555050505b505050505050565b6131de80620007766000396000f3fe608060405234801561001057600080fd5b50600436106101cf5760003560e01c80635c975abb11610104578063a217fddf116100a2578063d539139311610071578063d539139314610554578063d547741f14610572578063dd62ed3e1461058e578063e63ab1e9146105be576101cf565b8063a217fddf146104a6578063a457c2d7146104c4578063a9059cbb146104f4578063ca15c87314610524576101cf565b80638456cb59116100de5780638456cb591461041e5780639010d07c1461042857806391d148541461045857806395d89b4114610488576101cf565b80635c975abb146103b457806370a08231146103d257806379cc679014610402576101cf565b8063313ce567116101715780633f4ba83a1161014b5780633f4ba83a1461035657806340c10f191461036057806342966c681461037c578063445d1a4d14610398576101cf565b8063313ce567146102ec57806336568abe1461030a5780633950935114610326576101cf565b806318160ddd116101ad57806318160ddd1461025257806323b872dd14610270578063248a9ca3146102a05780632f2ff15d146102d0576101cf565b806301ffc9a7146101d457806306fdde0314610204578063095ea7b314610222575b600080fd5b6101ee60048036038101906101e9919061204b565b6105dc565b6040516101fb9190612093565b60405180910390f35b61020c610656565b604051610219919061213e565b60405180910390f35b61023c600480360381019061023791906121f4565b6106e8565b6040516102499190612093565b60405180910390f35b61025a61070b565b6040516102679190612243565b60405180910390f35b61028a6004803603810190610285919061225e565b610715565b6040516102979190612093565b60405180910390f35b6102ba60048036038101906102b591906122e7565b610744565b6040516102c79190612323565b60405180910390f35b6102ea60048036038101906102e5919061233e565b610763565b005b6102f4610784565b604051610301919061239a565b60405180910390f35b610324600480360381019061031f919061233e565b61078d565b005b610340600480360381019061033b91906121f4565b610810565b60405161034d9190612093565b60405180910390f35b61035e610847565b005b61037a600480360381019061037591906121f4565b6108c1565b005b610396600480360381019061039191906123b5565b61093f565b005b6103b260048036038101906103ad919061225e565b610953565b005b6103bc6109cc565b6040516103c99190612093565b60405180910390f35b6103ec60048036038101906103e791906123e2565b6109e3565b6040516103f99190612243565b60405180910390f35b61041c600480360381019061041791906121f4565b610a2c565b005b610426610a4c565b005b610442600480360381019061043d919061240f565b610ac6565b60405161044f919061245e565b60405180910390f35b610472600480360381019061046d919061233e565b610af5565b60405161047f9190612093565b60405180910390f35b610490610b5f565b60405161049d919061213e565b60405180910390f35b6104ae610bf1565b6040516104bb9190612323565b60405180910390f35b6104de60048036038101906104d991906121f4565b610bf8565b6040516104eb9190612093565b60405180910390f35b61050e600480360381019061050991906121f4565b610c6f565b60405161051b9190612093565b60405180910390f35b61053e600480360381019061053991906122e7565b610c92565b60405161054b9190612243565b60405180910390f35b61055c610cb6565b6040516105699190612323565b60405180910390f35b61058c6004803603810190610587919061233e565b610cda565b005b6105a860048036038101906105a39190612479565b610cfb565b6040516105b59190612243565b60405180910390f35b6105c6610d82565b6040516105d39190612323565b60405180910390f35b60007f5a05180f000000000000000000000000000000000000000000000000000000007bffffffffffffffffffffffffffffffffffffffffffffffffffffffff1916827bffffffffffffffffffffffffffffffffffffffffffffffffffffffff1916148061064f575061064e82610eb6565b5b9050919050565b606060058054610665906124e8565b80601f0160208091040260200160405190810160405280929190818152602001828054610691906124e8565b80156106de5780601f106106b3576101008083540402835291602001916106de565b820191906000526020600020905b8154815290600101906020018083116106c157829003601f168201915b5050505050905090565b6000806106f3610f30565b9050610700818585610f38565b600191505092915050565b6000600454905090565b600080610720610f30565b905061072d858285611101565b61073885858561118d565b60019150509392505050565b6000806000838152602001908152602001600020600101549050919050565b61076c82610744565b61077581611406565b61077f838361141a565b505050565b60006012905090565b610795610f30565b73ffffffffffffffffffffffffffffffffffffffff168173ffffffffffffffffffffffffffffffffffffffff1614610802576040517f08c379a00000000000000000000000000000000000000000000000000000000081526004016107f99061258b565b60405180910390fd5b61080c828261144e565b5050565b60008061081b610f30565b905061083c81858561082d8589610cfb565b61083791906125da565b610f38565b600191505092915050565b6108787f65d7a28e3265b37a6474929f336521b332c1681b933f6cb9f3376673440d862a610873610f30565b610af5565b6108b7576040517f08c379a00000000000000000000000000000000000000000000000000000000081526004016108ae90612680565b60405180910390fd5b6108bf611482565b565b6108f27f9f2df0fed2c77648de5860a4cc508cd0818c85b8b8a1ab4ceeef8d981c8956a66108ed610f30565b610af5565b610931576040517f08c379a000000000000000000000000000000000000000000000000000000000815260040161092890612712565b60405180910390fd5b61093b82826114e5565b5050565b61095061094a610f30565b8261163c565b50565b61097d7ff0887ba65ee2024ea881d91b74c2450ef19e1557f03bed3ea9f16b037cbe2dc933610af5565b6109bc576040517f08c379a00000000000000000000000000000000000000000000000000000000081526004016109b39061277e565b60405180910390fd5b6109c783838361118d565b505050565b6000600760009054906101000a900460ff16905090565b6000600260008373ffffffffffffffffffffffffffffffffffffffff1673ffffffffffffffffffffffffffffffffffffffff168152602001908152602001600020549050919050565b610a3e82610a38610f30565b83611101565b610a48828261163c565b5050565b610a7d7f65d7a28e3265b37a6474929f336521b332c1681b933f6cb9f3376673440d862a610a78610f30565b610af5565b610abc576040517f08c379a0000000000000000000000000000000000000000000000000000000008152600401610ab390612810565b60405180910390fd5b610ac461180b565b565b6000610aed826001600086815260200190815260200160002061186e90919063ffffffff16565b905092915050565b600080600084815260200190815260200160002060000160008373ffffffffffffffffffffffffffffffffffffffff1673ffffffffffffffffffffffffffffffffffffffff16815260200190815260200160002060009054906101000a900460ff16905092915050565b606060068054610b6e906124e8565b80601f0160208091040260200160405190810160405280929190818152602001828054610b9a906124e8565b8015610be75780601f10610bbc57610100808354040283529160200191610be7565b820191906000526020600020905b815481529060010190602001808311610bca57829003601f168201915b5050505050905090565b6000801b81565b600080610c03610f30565b90506000610c118286610cfb565b905083811015610c56576040517f08c379a0000000000000000000000000000000000000000000000000000000008152600401610c4d906128a2565b60405180910390fd5b610c638286868403610f38565b60019250505092915050565b600080610c7a610f30565b9050610c8781858561118d565b600191505092915050565b6000610caf60016000848152602001908152602001600020611888565b9050919050565b7f9f2df0fed2c77648de5860a4cc508cd0818c85b8b8a1ab4ceeef8d981c8956a681565b610ce382610744565b610cec81611406565b610cf6838361144e565b505050565b6000600360008473ffffffffffffffffffffffffffffffffffffffff1673ffffffffffffffffffffffffffffffffffffffff16815260200190815260200160002060008373ffffffffffffffffffffffffffffffffffffffff1673ffffffffffffffffffffffffffffffffffffffff16815260200190815260200160002054905092915050565b7f65d7a28e3265b37a6474929f336521b332c1681b933f6cb9f3376673440d862a81565b610db08282610af5565b610e8257600160008084815260200190815260200160002060000160008373ffffffffffffffffffffffffffffffffffffffff1673ffffffffffffffffffffffffffffffffffffffff16815260200190815260200160002060006101000a81548160ff021916908315150217905550610e27610f30565b73ffffffffffffffffffffffffffffffffffffffff168173ffffffffffffffffffffffffffffffffffffffff16837f2f8788117e7eff1d82e926ec794901d17c78024a50270940304540a733656f0d60405160405180910390a45b5050565b6000610eae836000018373ffffffffffffffffffffffffffffffffffffffff1660001b61189d565b905092915050565b60007f7965db0b000000000000000000000000000000000000000000000000000000007bffffffffffffffffffffffffffffffffffffffffffffffffffffffff1916827bffffffffffffffffffffffffffffffffffffffffffffffffffffffff19161480610f295750610f288261190d565b5b9050919050565b600033905090565b600073ffffffffffffffffffffffffffffffffffffffff168373ffffffffffffffffffffffffffffffffffffffff1603610fa7576040517f08c379a0000000000000000000000000000000000000000000000000000000008152600401610f9e90612934565b60405180910390fd5b600073ffffffffffffffffffffffffffffffffffffffff168273ffffffffffffffffffffffffffffffffffffffff1603611016576040517f08c379a000000000000000000000000000000000000000000000000000000000815260040161100d906129c6565b60405180910390fd5b80600360008573ffffffffffffffffffffffffffffffffffffffff1673ffffffffffffffffffffffffffffffffffffffff16815260200190815260200160002060008473ffffffffffffffffffffffffffffffffffffffff1673ffffffffffffffffffffffffffffffffffffffff168152602001908152602001600020819055508173ffffffffffffffffffffffffffffffffffffffff168373ffffffffffffffffffffffffffffffffffffffff167f8c5be1e5ebec7d5bd14f71427d1e84f3dd0314c0f7b2291e5b200ac8c7c3b925836040516110f49190612243565b60405180910390a3505050565b600061110d8484610cfb565b90507fffffffffffffffffffffffffffffffffffffffffffffffffffffffffffffffff81146111875781811015611179576040517f08c379a000000000000000000000000000000000000000000000000000000000815260040161117090612a32565b60405180910390fd5b6111868484848403610f38565b5b50505050565b600073ffffffffffffffffffffffffffffffffffffffff168373ffffffffffffffffffffffffffffffffffffffff16036111fc576040517f08c379a00000000000000000000000000000000000000000000000000000000081526004016111f390612ac4565b60405180910390fd5b600073ffffffffffffffffffffffffffffffffffffffff168273ffffffffffffffffffffffffffffffffffffffff160361126b576040517f08c379a000000000000000000000000000000000000000000000000000000000815260040161126290612b56565b60405180910390fd5b611276838383611977565b6000600260008573ffffffffffffffffffffffffffffffffffffffff1673ffffffffffffffffffffffffffffffffffffffff168152602001908152602001600020549050818110156112fd576040517f08c379a00000000000000000000000000000000000000000000000000000000081526004016112f490612be8565b60405180910390fd5b818103600260008673ffffffffffffffffffffffffffffffffffffffff1673ffffffffffffffffffffffffffffffffffffffff1681526020019081526020016000208190555081600260008573ffffffffffffffffffffffffffffffffffffffff1673ffffffffffffffffffffffffffffffffffffffff168152602001908152602001600020600082825401925050819055508273ffffffffffffffffffffffffffffffffffffffff168473ffffffffffffffffffffffffffffffffffffffff167fddf252ad1be2c89b69c2b068fc378daa952ba7f163c4a11628f55a4df523b3ef846040516113ed9190612243565b60405180910390a3611400848484611987565b50505050565b61141781611412610f30565b61198c565b50565b6114248282610da6565b6114498160016000858152602001908152602001600020610e8690919063ffffffff16565b505050565b6114588282611a11565b61147d8160016000858152602001908152602001600020611af290919063ffffffff16565b505050565b61148a611b22565b6000600760006101000a81548160ff0219169083151502179055507f5db9ee0a495bf2e6ff9c91a7834c1ba4fdd244a5e8aa4e537bd38aeae4b073aa6114ce610f30565b6040516114db919061245e565b60405180910390a1565b600073ffffffffffffffffffffffffffffffffffffffff168273ffffffffffffffffffffffffffffffffffffffff1603611554576040517f08c379a000000000000000000000000000000000000000000000000000000000815260040161154b90612c54565b60405180910390fd5b61156060008383611977565b806004600082825461157291906125da565b9250508190555080600260008473ffffffffffffffffffffffffffffffffffffffff1673ffffffffffffffffffffffffffffffffffffffff168152602001908152602001600020600082825401925050819055508173ffffffffffffffffffffffffffffffffffffffff16600073ffffffffffffffffffffffffffffffffffffffff167fddf252ad1be2c89b69c2b068fc378daa952ba7f163c4a11628f55a4df523b3ef836040516116249190612243565b60405180910390a361163860008383611987565b5050565b600073ffffffffffffffffffffffffffffffffffffffff168273ffffffffffffffffffffffffffffffffffffffff16036116ab576040517f08c379a00000000000000000000000000000000000000000000000000000000081526004016116a290612ce6565b60405180910390fd5b6116b782600083611977565b6000600260008473ffffffffffffffffffffffffffffffffffffffff1673ffffffffffffffffffffffffffffffffffffffff1681526020019081526020016000205490508181101561173e576040517f08c379a000000000000000000000000000000000000000000000000000000000815260040161173590612d78565b60405180910390fd5b818103600260008573ffffffffffffffffffffffffffffffffffffffff1673ffffffffffffffffffffffffffffffffffffffff1681526020019081526020016000208190555081600460008282540392505081905550600073ffffffffffffffffffffffffffffffffffffffff168373ffffffffffffffffffffffffffffffffffffffff167fddf252ad1be2c89b69c2b068fc378daa952ba7f163c4a11628f55a4df523b3ef846040516117f29190612243565b60405180910390a361180683600084611987565b505050565b611813611b6b565b6001600760006101000a81548160ff0219169083151502179055507f62e78cea01bee320cd4e420270b5ea74000d11b0c9f74754ebdbfc544b05a258611857610f30565b604051611864919061245e565b60405180910390a1565b600061187d8360000183611bb5565b60001c905092915050565b600061189682600001611be0565b9050919050565b60006118a98383611bf1565b611902578260000182908060018154018082558091505060019003906000526020600020016000909190919091505582600001805490508360010160008481526020019081526020016000208190555060019050611907565b600090505b92915050565b60007f01ffc9a7000000000000000000000000000000000000000000000000000000007bffffffffffffffffffffffffffffffffffffffffffffffffffffffff1916827bffffffffffffffffffffffffffffffffffffffffffffffffffffffff1916149050919050565b611982838383611c14565b505050565b505050565b6119968282610af5565b611a0d576119a381611c6c565b6119b18360001c6020611c99565b6040516020016119c2929190612e6c565b6040516020818303038152906040526040517f08c379a0000000000000000000000000000000000000000000000000000000008152600401611a04919061213e565b60405180910390fd5b5050565b611a1b8282610af5565b15611aee57600080600084815260200190815260200160002060000160008373ffffffffffffffffffffffffffffffffffffffff1673ffffffffffffffffffffffffffffffffffffffff16815260200190815260200160002060006101000a81548160ff021916908315150217905550611a93610f30565b73ffffffffffffffffffffffffffffffffffffffff168173ffffffffffffffffffffffffffffffffffffffff16837ff6391f5c32d9c69d2a47ea670b442974b53935d1edc7fd64eb21e047a839171b60405160405180910390a45b5050565b6000611b1a836000018373ffffffffffffffffffffffffffffffffffffffff1660001b611ed5565b905092915050565b611b2a6109cc565b611b69576040517f08c379a0000000000000000000000000000000000000000000000000000000008152600401611b6090612ef2565b60405180910390fd5b565b611b736109cc565b15611bb3576040517f08c379a0000000000000000000000000000000000000000000000000000000008152600401611baa90612f5e565b60405180910390fd5b565b6000826000018281548110611bcd57611bcc612f7e565b5b9060005260206000200154905092915050565b600081600001805490509050919050565b600080836001016000848152602001908152602001600020541415905092915050565b611c1f838383611fe9565b611c276109cc565b15611c67576040517f08c379a0000000000000000000000000000000000000000000000000000000008152600401611c5e9061301f565b60405180910390fd5b505050565b6060611c928273ffffffffffffffffffffffffffffffffffffffff16601460ff16611c99565b9050919050565b606060006002836002611cac919061303f565b611cb691906125da565b67ffffffffffffffff811115611ccf57611cce613081565b5b6040519080825280601f01601f191660200182016040528015611d015781602001600182028036833780820191505090505b5090507f300000000000000000000000000000000000000000000000000000000000000081600081518110611d3957611d38612f7e565b5b60200101907effffffffffffffffffffffffffffffffffffffffffffffffffffffffffffff1916908160001a9053507f780000000000000000000000000000000000000000000000000000000000000081600181518110611d9d57611d9c612f7e565b5b60200101907effffffffffffffffffffffffffffffffffffffffffffffffffffffffffffff1916908160001a90535060006001846002611ddd919061303f565b611de791906125da565b90505b6001811115611e87577f3031323334353637383961626364656600000000000000000000000000000000600f861660108110611e2957611e28612f7e565b5b1a60f81b828281518110611e4057611e3f612f7e565b5b60200101907effffffffffffffffffffffffffffffffffffffffffffffffffffffffffffff1916908160001a905350600485901c945080611e80906130b0565b9050611dea565b5060008414611ecb576040517f08c379a0000000000000000000000000000000000000000000000000000000008152600401611ec290613125565b60405180910390fd5b8091505092915050565b60008083600101600084815260200190815260200160002054905060008114611fdd576000600182611f079190613145565b9050600060018660000180549050611f1f9190613145565b9050818114611f8e576000866000018281548110611f4057611f3f612f7e565b5b9060005260206000200154905080876000018481548110611f6457611f63612f7e565b5b90600052602060002001819055508387600101600083815260200190815260200160002081905550505b85600001805480611fa257611fa1613179565b5b600190038181906000526020600020016000905590558560010160008681526020019081526020016000206000905560019350505050611fe3565b60009150505b92915050565b505050565b600080fd5b60007fffffffff0000000000000000000000000000000000000000000000000000000082169050919050565b61202881611ff3565b811461203357600080fd5b50565b6000813590506120458161201f565b92915050565b60006020828403121561206157612060611fee565b5b600061206f84828501612036565b91505092915050565b60008115159050919050565b61208d81612078565b82525050565b60006020820190506120a86000830184612084565b92915050565b600081519050919050565b600082825260208201905092915050565b60005b838110156120e85780820151818401526020810190506120cd565b60008484015250505050565b6000601f19601f8301169050919050565b6000612110826120ae565b61211a81856120b9565b935061212a8185602086016120ca565b612133816120f4565b840191505092915050565b600060208201905081810360008301526121588184612105565b905092915050565b600073ffffffffffffffffffffffffffffffffffffffff82169050919050565b600061218b82612160565b9050919050565b61219b81612180565b81146121a657600080fd5b50565b6000813590506121b881612192565b92915050565b6000819050919050565b6121d1816121be565b81146121dc57600080fd5b50565b6000813590506121ee816121c8565b92915050565b6000806040838503121561220b5761220a611fee565b5b6000612219858286016121a9565b925050602061222a858286016121df565b9150509250929050565b61223d816121be565b82525050565b60006020820190506122586000830184612234565b92915050565b60008060006060848603121561227757612276611fee565b5b6000612285868287016121a9565b9350506020612296868287016121a9565b92505060406122a7868287016121df565b9150509250925092565b6000819050919050565b6122c4816122b1565b81146122cf57600080fd5b50565b6000813590506122e1816122bb565b92915050565b6000602082840312156122fd576122fc611fee565b5b600061230b848285016122d2565b91505092915050565b61231d816122b1565b82525050565b60006020820190506123386000830184612314565b92915050565b6000806040838503121561235557612354611fee565b5b6000612363858286016122d2565b9250506020612374858286016121a9565b9150509250929050565b600060ff82169050919050565b6123948161237e565b82525050565b60006020820190506123af600083018461238b565b92915050565b6000602082840312156123cb576123ca611fee565b5b60006123d9848285016121df565b91505092915050565b6000602082840312156123f8576123f7611fee565b5b6000612406848285016121a9565b91505092915050565b6000806040838503121561242657612425611fee565b5b6000612434858286016122d2565b9250506020612445858286016121df565b9150509250929050565b61245881612180565b82525050565b6000602082019050612473600083018461244f565b92915050565b600080604083850312156124905761248f611fee565b5b600061249e858286016121a9565b92505060206124af858286016121a9565b9150509250929050565b7f4e487b7100000000000000000000000000000000000000000000000000000000600052602260045260246000fd5b6000600282049050600182168061250057607f821691505b602082108103612513576125126124b9565b5b50919050565b7f416363657373436f6e74726f6c3a2063616e206f6e6c792072656e6f756e636560008201527f20726f6c657320666f722073656c660000000000000000000000000000000000602082015250565b6000612575602f836120b9565b915061258082612519565b604082019050919050565b600060208201905081810360008301526125a481612568565b9050919050565b7f4e487b7100000000000000000000000000000000000000000000000000000000600052601160045260246000fd5b60006125e5826121be565b91506125f0836121be565b9250828201905080821115612608576126076125ab565b5b92915050565b7f45524332305072657365744d696e7465725061757365723a206d75737420686160008201527f76652070617573657220726f6c6520746f20756e706175736500000000000000602082015250565b600061266a6039836120b9565b91506126758261260e565b604082019050919050565b600060208201905081810360008301526126998161265d565b9050919050565b7f45524332305072657365744d696e7465725061757365723a206d75737420686160008201527f7665206d696e74657220726f6c6520746f206d696e7400000000000000000000602082015250565b60006126fc6036836120b9565b9150612707826126a0565b604082019050919050565b6000602082019050818103600083015261272b816126ef565b9050919050565b7f5065726d697373696f6e206e6f74206772616e74656400000000000000000000600082015250565b60006127686016836120b9565b915061277382612732565b602082019050919050565b600060208201905081810360008301526127978161275b565b9050919050565b7f45524332305072657365744d696e7465725061757365723a206d75737420686160008201527f76652070617573657220726f6c6520746f207061757365000000000000000000602082015250565b60006127fa6037836120b9565b91506128058261279e565b604082019050919050565b60006020820190508181036000830152612829816127ed565b9050919050565b7f45524332303a2064656372656173656420616c6c6f77616e63652062656c6f7760008201527f207a65726f000000000000000000000000000000000000000000000000000000602082015250565b600061288c6025836120b9565b915061289782612830565b604082019050919050565b600060208201905081810360008301526128bb8161287f565b9050919050565b7f45524332303a20617070726f76652066726f6d20746865207a65726f2061646460008201527f7265737300000000000000000000000000000000000000000000000000000000602082015250565b600061291e6024836120b9565b9150612929826128c2565b604082019050919050565b6000602082019050818103600083015261294d81612911565b9050919050565b7f45524332303a20617070726f766520746f20746865207a65726f20616464726560008201527f7373000000000000000000000000000000000000000000000000000000000000602082015250565b60006129b06022836120b9565b91506129bb82612954565b604082019050919050565b600060208201905081810360008301526129df816129a3565b9050919050565b7f45524332303a20696e73756666696369656e7420616c6c6f77616e6365000000600082015250565b6000612a1c601d836120b9565b9150612a27826129e6565b602082019050919050565b60006020820190508181036000830152612a4b81612a0f565b9050919050565b7f45524332303a207472616e736665722066726f6d20746865207a65726f20616460008201527f6472657373000000000000000000000000000000000000000000000000000000602082015250565b6000612aae6025836120b9565b9150612ab982612a52565b604082019050919050565b60006020820190508181036000830152612add81612aa1565b9050919050565b7f45524332303a207472616e7366657220746f20746865207a65726f206164647260008201527f6573730000000000000000000000000000000000000000000000000000000000602082015250565b6000612b406023836120b9565b9150612b4b82612ae4565b604082019050919050565b60006020820190508181036000830152612b6f81612b33565b9050919050565b7f45524332303a207472616e7366657220616d6f756e742065786365656473206260008201527f616c616e63650000000000000000000000000000000000000000000000000000602082015250565b6000612bd26026836120b9565b9150612bdd82612b76565b604082019050919050565b60006020820190508181036000830152612c0181612bc5565b9050919050565b7f45524332303a206d696e7420746f20746865207a65726f206164647265737300600082015250565b6000612c3e601f836120b9565b9150612c4982612c08565b602082019050919050565b60006020820190508181036000830152612c6d81612c31565b9050919050565b7f45524332303a206275726e2066726f6d20746865207a65726f2061646472657360008201527f7300000000000000000000000000000000000000000000000000000000000000602082015250565b6000612cd06021836120b9565b9150612cdb82612c74565b604082019050919050565b60006020820190508181036000830152612cff81612cc3565b9050919050565b7f45524332303a206275726e20616d6f756e7420657863656564732062616c616e60008201527f6365000000000000000000000000000000000000000000000000000000000000602082015250565b6000612d626022836120b9565b9150612d6d82612d06565b604082019050919050565b60006020820190508181036000830152612d9181612d55565b9050919050565b600081905092915050565b7f416363657373436f6e74726f6c3a206163636f756e7420000000000000000000600082015250565b6000612dd9601783612d98565b9150612de482612da3565b601782019050919050565b6000612dfa826120ae565b612e048185612d98565b9350612e148185602086016120ca565b80840191505092915050565b7f206973206d697373696e6720726f6c6520000000000000000000000000000000600082015250565b6000612e56601183612d98565b9150612e6182612e20565b601182019050919050565b6000612e7782612dcc565b9150612e838285612def565b9150612e8e82612e49565b9150612e9a8284612def565b91508190509392505050565b7f5061757361626c653a206e6f7420706175736564000000000000000000000000600082015250565b6000612edc6014836120b9565b9150612ee782612ea6565b602082019050919050565b60006020820190508181036000830152612f0b81612ecf565b9050919050565b7f5061757361626c653a2070617573656400000000000000000000000000000000600082015250565b6000612f486010836120b9565b9150612f5382612f12565b602082019050919050565b60006020820190508181036000830152612f7781612f3b565b9050919050565b7f4e487b7100000000000000000000000000000000000000000000000000000000600052603260045260246000fd5b7f45524332305061757361626c653a20746f6b656e207472616e7366657220776860008201527f696c652070617573656400000000000000000000000000000000000000000000602082015250565b6000613009602a836120b9565b915061301482612fad565b604082019050919050565b6000602082019050818103600083015261303881612ffc565b9050919050565b600061304a826121be565b9150613055836121be565b9250828202613063816121be565b9150828204841483151761307a576130796125ab565b5b5092915050565b7f4e487b7100000000000000000000000000000000000000000000000000000000600052604160045260246000fd5b60006130bb826121be565b9150600082036130ce576130cd6125ab565b5b600182039050919050565b7f537472696e67733a20686578206c656e67746820696e73756666696369656e74600082015250565b600061310f6020836120b9565b915061311a826130d9565b602082019050919050565b6000602082019050818103600083015261313e81613102565b9050919050565b6000613150826121be565b915061315b836121be565b9250828203905081811115613173576131726125ab565b5b92915050565b7f4e487b7100000000000000000000000000000000000000000000000000000000600052603160045260246000fdfea264697066735822122011aa75961f9daebf167264a818c822c2ebadc4e4eb348d0c33805031c571759464736f6c63430008110033",
  "linkReferences": {},
  "deployedLinkReferences": {}
}