{
  "_format": "hh-sol-artifact-1",
  "contractName": "SpacetimeERC721",
  "sourceName": "contracts/spacetimeERC721/SpacetimeERC721.sol",
  "abi": [
    {
      "inputs": [],
      "stateMutability": "nonpayable",
      "type": "constructor"
    },
    {
      "anonymous": false,
      "inputs": [
        {
          "indexed": true,
          "internalType": "address",
          "name": "owner",
          "type": "address"
        },
        {
          "indexed": true,
          "internalType": "address",
          "name": "approved",
          "type": "address"
        },
        {
          "indexed": true,
          "internalType": "uint256",
          "name": "tokenId",
          "type": "uint256"
        }
      ],
      "name": "Approval",
      "type": "event"
    },
    {
      "anonymous": false,
      "inputs": [
        {
          "indexed": true,
          "internalType": "address",
          "name": "owner",
          "type": "address"
        },
        {
          "indexed": true,
          "internalType": "address",
          "name": "operator",
          "type": "address"
        },
        {
          "indexed": false,
          "internalType": "bool",
          "name": "approved",
          "type": "bool"
        }
      ],
      "name": "ApprovalForAll",
      "type": "event"
    },
    {
      "anonymous": false,
      "inputs": [
        {
          "indexed": false,
          "internalType": "address",
          "name": "account",
          "type": "address"
        }
      ],
      "name": "Paused",
      "type": "event"
    },
    {
      "anonymous": false,
      "inputs": [
        {
          "indexed": true,
          "internalType": "bytes32",
          "name": "role",
          "type": "bytes32"
        },
        {
          "indexed": true,
          "internalType": "bytes32",
          "name": "previousAdminRole",
          "type": "bytes32"
        },
        {
          "indexed": true,
          "internalType": "bytes32",
          "name": "newAdminRole",
          "type": "bytes32"
        }
      ],
      "name": "RoleAdminChanged",
      "type": "event"
    },
    {
      "anonymous": false,
      "inputs": [
        {
          "indexed": true,
          "internalType": "bytes32",
          "name": "role",
          "type": "bytes32"
        },
        {
          "indexed": true,
          "internalType": "address",
          "name": "account",
          "type": "address"
        },
        {
          "indexed": true,
          "internalType": "address",
          "name": "sender",
          "type": "address"
        }
      ],
      "name": "RoleGranted",
      "type": "event"
    },
    {
      "anonymous": false,
      "inputs": [
        {
          "indexed": true,
          "internalType": "bytes32",
          "name": "role",
          "type": "bytes32"
        },
        {
          "indexed": true,
          "internalType": "address",
          "name": "account",
          "type": "address"
        },
        {
          "indexed": true,
          "internalType": "address",
          "name": "sender",
          "type": "address"
        }
      ],
      "name": "RoleRevoked",
      "type": "event"
    },
    {
      "anonymous": false,
      "inputs": [
        {
          "indexed": true,
          "internalType": "address",
          "name": "from",
          "type": "address"
        },
        {
          "indexed": true,
          "internalType": "address",
          "name": "to",
          "type": "address"
        },
        {
          "indexed": true,
          "internalType": "uint256",
          "name": "tokenId",
          "type": "uint256"
        }
      ],
      "name": "Transfer",
      "type": "event"
    },
    {
      "anonymous": false,
      "inputs": [
        {
          "indexed": false,
          "internalType": "address",
          "name": "account",
          "type": "address"
        }
      ],
      "name": "Unpaused",
      "type": "event"
    },
    {
      "inputs": [],
      "name": "DEFAULT_ADMIN_ROLE",
      "outputs": [
        {
          "internalType": "bytes32",
          "name": "",
          "type": "bytes32"
        }
      ],
      "stateMutability": "view",
      "type": "function"
    },
    {
      "inputs": [],
      "name": "MINTER_ROLE",
      "outputs": [
        {
          "internalType": "bytes32",
          "name": "",
          "type": "bytes32"
        }
      ],
      "stateMutability": "view",
      "type": "function"
    },
    {
      "inputs": [],
      "name": "PAUSER_ROLE",
      "outputs": [
        {
          "internalType": "bytes32",
          "name": "",
          "type": "bytes32"
        }
      ],
      "stateMutability": "view",
      "type": "function"
    },
    {
      "inputs": [
        {
          "internalType": "address",
          "name": "to",
          "type": "address"
        },
        {
          "internalType": "uint256",
          "name": "tokenId",
          "type": "uint256"
        }
      ],
      "name": "approve",
      "outputs": [],
      "stateMutability": "nonpayable",
      "type": "function"
    },
    {
      "inputs": [
        {
          "internalType": "address",
          "name": "owner",
          "type": "address"
        }
      ],
      "name": "balanceOf",
      "outputs": [
        {
          "internalType": "uint256",
          "name": "",
          "type": "uint256"
        }
      ],
      "stateMutability": "view",
      "type": "function"
    },
    {
      "inputs": [
        {
          "internalType": "uint256",
          "name": "tokenId",
          "type": "uint256"
        }
      ],
      "name": "burn",
      "outputs": [],
      "stateMutability": "nonpayable",
      "type": "function"
    },
    {
      "inputs": [
        {
          "internalType": "uint256",
          "name": "tokenId",
          "type": "uint256"
        }
      ],
      "name": "completeDealManual",
      "outputs": [],
      "stateMutability": "nonpayable",
      "type": "function"
    },
    {
      "inputs": [
        {
          "internalType": "uint256",
          "name": "tokenId",
          "type": "uint256"
        }
      ],
      "name": "getApproved",
      "outputs": [
        {
          "internalType": "address",
          "name": "",
          "type": "address"
        }
      ],
      "stateMutability": "view",
      "type": "function"
    },
    {
      "inputs": [],
      "name": "getCount",
      "outputs": [
        {
          "internalType": "uint256",
          "name": "",
          "type": "uint256"
        }
      ],
      "stateMutability": "view",
      "type": "function"
    },
    {
      "inputs": [
        {
          "internalType": "uint256",
          "name": "tokenId",
          "type": "uint256"
        }
      ],
      "name": "getDerivative",
      "outputs": [
        {
          "components": [
            {
              "internalType": "enum DerivativeType",
              "name": "derivativeType",
              "type": "uint8"
            },
            {
              "internalType": "enum DerivativeState",
              "name": "derivativeState",
              "type": "uint8"
            },
            {
              "internalType": "uint64",
              "name": "size",
              "type": "uint64"
            },
            {
              "internalType": "uint64",
              "name": "client",
              "type": "uint64"
            },
            {
              "internalType": "address",
              "name": "clientEthAddress",
              "type": "address"
            },
            {
              "internalType": "uint64",
              "name": "provider",
              "type": "uint64"
            },
            {
              "internalType": "address",
              "name": "providerEthAddress",
              "type": "address"
            },
            {
              "internalType": "int64",
              "name": "dealTermStart",
              "type": "int64"
            },
            {
              "internalType": "int64",
              "name": "dealTermDuration",
              "type": "int64"
            },
            {
              "internalType": "uint256",
              "name": "pricePerEpoch",
              "type": "uint256"
            },
            {
              "internalType": "bool",
              "name": "onSale",
              "type": "bool"
            },
            {
              "internalType": "uint256",
              "name": "salePrice",
              "type": "uint256"
            }
          ],
          "internalType": "struct Derivative",
          "name": "",
          "type": "tuple"
        }
      ],
      "stateMutability": "view",
      "type": "function"
    },
    {
      "inputs": [
        {
          "internalType": "bytes32",
          "name": "role",
          "type": "bytes32"
        }
      ],
      "name": "getRoleAdmin",
      "outputs": [
        {
          "internalType": "bytes32",
          "name": "",
          "type": "bytes32"
        }
      ],
      "stateMutability": "view",
      "type": "function"
    },
    {
      "inputs": [
        {
          "internalType": "bytes32",
          "name": "role",
          "type": "bytes32"
        },
        {
          "internalType": "uint256",
          "name": "index",
          "type": "uint256"
        }
      ],
      "name": "getRoleMember",
      "outputs": [
        {
          "internalType": "address",
          "name": "",
          "type": "address"
        }
      ],
      "stateMutability": "view",
      "type": "function"
    },
    {
      "inputs": [
        {
          "internalType": "bytes32",
          "name": "role",
          "type": "bytes32"
        }
      ],
      "name": "getRoleMemberCount",
      "outputs": [
        {
          "internalType": "uint256",
          "name": "",
          "type": "uint256"
        }
      ],
      "stateMutability": "view",
      "type": "function"
    },
    {
      "inputs": [
        {
          "internalType": "bytes32",
          "name": "role",
          "type": "bytes32"
        },
        {
          "internalType": "address",
          "name": "account",
          "type": "address"
        }
      ],
      "name": "grantRole",
      "outputs": [],
      "stateMutability": "nonpayable",
      "type": "function"
    },
    {
      "inputs": [
        {
          "internalType": "bytes32",
          "name": "role",
          "type": "bytes32"
        },
        {
          "internalType": "address",
          "name": "account",
          "type": "address"
        }
      ],
      "name": "hasRole",
      "outputs": [
        {
          "internalType": "bool",
          "name": "",
          "type": "bool"
        }
      ],
      "stateMutability": "view",
      "type": "function"
    },
    {
      "inputs": [
        {
          "internalType": "address",
          "name": "owner",
          "type": "address"
        },
        {
          "internalType": "address",
          "name": "operator",
          "type": "address"
        }
      ],
      "name": "isApprovedForAll",
      "outputs": [
        {
          "internalType": "bool",
          "name": "",
          "type": "bool"
        }
      ],
      "stateMutability": "view",
      "type": "function"
    },
    {
      "inputs": [
        {
          "internalType": "address",
          "name": "to",
          "type": "address"
        }
      ],
      "name": "mint",
      "outputs": [],
      "stateMutability": "nonpayable",
      "type": "function"
    },
    {
      "inputs": [
        {
          "internalType": "enum DerivativeType",
          "name": "derivativeType",
          "type": "uint8"
        },
        {
          "internalType": "uint64",
          "name": "size",
          "type": "uint64"
        },
        {
          "internalType": "uint64",
          "name": "provider",
          "type": "uint64"
        },
        {
          "internalType": "int64",
          "name": "dealTermStart",
          "type": "int64"
        },
        {
          "internalType": "int64",
          "name": "dealTermDuration",
          "type": "int64"
        },
        {
          "internalType": "uint256",
          "name": "pricePerEpoch",
          "type": "uint256"
        },
        {
          "internalType": "address",
          "name": "providerEthAddress",
          "type": "address"
        }
      ],
      "name": "mintDerivative",
      "outputs": [],
      "stateMutability": "nonpayable",
      "type": "function"
    },
    {
      "inputs": [],
      "name": "name",
      "outputs": [
        {
          "internalType": "string",
          "name": "",
          "type": "string"
        }
      ],
      "stateMutability": "view",
      "type": "function"
    },
    {
      "inputs": [
        {
          "internalType": "uint256",
          "name": "tokenId",
          "type": "uint256"
        }
      ],
      "name": "ownerOf",
      "outputs": [
        {
          "internalType": "address",
          "name": "",
          "type": "address"
        }
      ],
      "stateMutability": "view",
      "type": "function"
    },
    {
      "inputs": [],
      "name": "pause",
      "outputs": [],
      "stateMutability": "nonpayable",
      "type": "function"
    },
    {
      "inputs": [],
      "name": "paused",
      "outputs": [
        {
          "internalType": "bool",
          "name": "",
          "type": "bool"
        }
      ],
      "stateMutability": "view",
      "type": "function"
    },
    {
      "inputs": [
        {
          "internalType": "uint256",
          "name": "tokenId",
          "type": "uint256"
        },
        {
          "internalType": "uint64",
          "name": "client",
          "type": "uint64"
        }
      ],
      "name": "purchase",
      "outputs": [],
      "stateMutability": "nonpayable",
      "type": "function"
    },
    {
      "inputs": [
        {
          "internalType": "bytes32",
          "name": "role",
          "type": "bytes32"
        },
        {
          "internalType": "address",
          "name": "account",
          "type": "address"
        }
      ],
      "name": "renounceRole",
      "outputs": [],
      "stateMutability": "nonpayable",
      "type": "function"
    },
    {
      "inputs": [
        {
          "internalType": "bytes32",
          "name": "role",
          "type": "bytes32"
        },
        {
          "internalType": "address",
          "name": "account",
          "type": "address"
        }
      ],
      "name": "revokeRole",
      "outputs": [],
      "stateMutability": "nonpayable",
      "type": "function"
    },
    {
      "inputs": [
        {
          "internalType": "address",
          "name": "from",
          "type": "address"
        },
        {
          "internalType": "address",
          "name": "to",
          "type": "address"
        },
        {
          "internalType": "uint256",
          "name": "tokenId",
          "type": "uint256"
        }
      ],
      "name": "safeTransferFrom",
      "outputs": [],
      "stateMutability": "nonpayable",
      "type": "function"
    },
    {
      "inputs": [
        {
          "internalType": "address",
          "name": "from",
          "type": "address"
        },
        {
          "internalType": "address",
          "name": "to",
          "type": "address"
        },
        {
          "internalType": "uint256",
          "name": "tokenId",
          "type": "uint256"
        },
        {
          "internalType": "bytes",
          "name": "data",
          "type": "bytes"
        }
      ],
      "name": "safeTransferFrom",
      "outputs": [],
      "stateMutability": "nonpayable",
      "type": "function"
    },
    {
      "inputs": [
        {
          "internalType": "address",
          "name": "operator",
          "type": "address"
        },
        {
          "internalType": "bool",
          "name": "approved",
          "type": "bool"
        }
      ],
      "name": "setApprovalForAll",
      "outputs": [],
      "stateMutability": "nonpayable",
      "type": "function"
    },
    {
      "inputs": [
        {
          "internalType": "uint256",
          "name": "tokenId",
          "type": "uint256"
        },
        {
          "internalType": "uint64",
          "name": "client",
          "type": "uint64"
        }
      ],
      "name": "setClient",
      "outputs": [],
      "stateMutability": "nonpayable",
      "type": "function"
    },
    {
      "inputs": [
        {
          "internalType": "uint256",
          "name": "tokenId",
          "type": "uint256"
        },
        {
          "internalType": "uint256",
          "name": "price",
          "type": "uint256"
        }
      ],
      "name": "setPrice",
      "outputs": [],
      "stateMutability": "nonpayable",
      "type": "function"
    },
    {
      "inputs": [
        {
          "internalType": "uint256",
          "name": "tokenId",
          "type": "uint256"
        }
      ],
      "name": "submitDealProposal",
      "outputs": [],
      "stateMutability": "nonpayable",
      "type": "function"
    },
    {
      "inputs": [
        {
          "internalType": "bytes4",
          "name": "interfaceId",
          "type": "bytes4"
        }
      ],
      "name": "supportsInterface",
      "outputs": [
        {
          "internalType": "bool",
          "name": "",
          "type": "bool"
        }
      ],
      "stateMutability": "view",
      "type": "function"
    },
    {
      "inputs": [],
      "name": "symbol",
      "outputs": [
        {
          "internalType": "string",
          "name": "",
          "type": "string"
        }
      ],
      "stateMutability": "view",
      "type": "function"
    },
    {
      "inputs": [
        {
          "internalType": "uint256",
          "name": "index",
          "type": "uint256"
        }
      ],
      "name": "tokenByIndex",
      "outputs": [
        {
          "internalType": "uint256",
          "name": "",
          "type": "uint256"
        }
      ],
      "stateMutability": "view",
      "type": "function"
    },
    {
      "inputs": [
        {
          "internalType": "address",
          "name": "owner",
          "type": "address"
        },
        {
          "internalType": "uint256",
          "name": "index",
          "type": "uint256"
        }
      ],
      "name": "tokenOfOwnerByIndex",
      "outputs": [
        {
          "internalType": "uint256",
          "name": "",
          "type": "uint256"
        }
      ],
      "stateMutability": "view",
      "type": "function"
    },
    {
      "inputs": [
        {
          "internalType": "uint256",
          "name": "tokenId",
          "type": "uint256"
        }
      ],
      "name": "tokenURI",
      "outputs": [
        {
          "internalType": "string",
          "name": "",
          "type": "string"
        }
      ],
      "stateMutability": "view",
      "type": "function"
    },
    {
      "inputs": [],
      "name": "totalSupply",
      "outputs": [
        {
          "internalType": "uint256",
          "name": "",
          "type": "uint256"
        }
      ],
      "stateMutability": "view",
      "type": "function"
    },
    {
      "inputs": [
        {
          "internalType": "address",
          "name": "from",
          "type": "address"
        },
        {
          "internalType": "address",
          "name": "to",
          "type": "address"
        },
        {
          "internalType": "uint256",
          "name": "tokenId",
          "type": "uint256"
        }
      ],
      "name": "transferFrom",
      "outputs": [],
      "stateMutability": "nonpayable",
      "type": "function"
    },
    {
      "inputs": [],
      "name": "unpause",
      "outputs": [],
      "stateMutability": "nonpayable",
      "type": "function"
    }
  ],
  "bytecode": "0x60806040523480156200001157600080fd5b506040518060400160405280601581526020017f537061636574696d6520446572697661746976657300000000000000000000008152506040518060400160405280600481526020017f53504458000000000000000000000000000000000000000000000000000000008152506040518060200160405280600081525082828160029081620000a19190620006a2565b508060039081620000b39190620006a2565b5050506000600c60006101000a81548160ff02191690831515021790555080600e9081620000e29190620006a2565b50620001076000801b620000fb6200019260201b60201c565b6200019a60201b60201c565b620001487f9f2df0fed2c77648de5860a4cc508cd0818c85b8b8a1ab4ceeef8d981c8956a66200013c6200019260201b60201c565b6200019a60201b60201c565b620001897f65d7a28e3265b37a6474929f336521b332c1681b933f6cb9f3376673440d862a6200017d6200019260201b60201c565b6200019a60201b60201c565b50505062000789565b600033905090565b620001ac8282620001b060201b60201c565b5050565b620001c78282620001f860201b62001e2e1760201c565b620001f38160016000858152602001908152602001600020620002e960201b62001f0e1790919060201c565b505050565b6200020a82826200032160201b60201c565b620002e557600160008084815260200190815260200160002060000160008373ffffffffffffffffffffffffffffffffffffffff1673ffffffffffffffffffffffffffffffffffffffff16815260200190815260200160002060006101000a81548160ff0219169083151502179055506200028a6200019260201b60201c565b73ffffffffffffffffffffffffffffffffffffffff168173ffffffffffffffffffffffffffffffffffffffff16837f2f8788117e7eff1d82e926ec794901d17c78024a50270940304540a733656f0d60405160405180910390a45b5050565b600062000319836000018373ffffffffffffffffffffffffffffffffffffffff1660001b6200038b60201b60201c565b905092915050565b600080600084815260200190815260200160002060000160008373ffffffffffffffffffffffffffffffffffffffff1673ffffffffffffffffffffffffffffffffffffffff16815260200190815260200160002060009054906101000a900460ff16905092915050565b60006200039f83836200040560201b60201c565b620003fa578260000182908060018154018082558091505060019003906000526020600020016000909190919091505582600001805490508360010160008481526020019081526020016000208190555060019050620003ff565b600090505b92915050565b600080836001016000848152602001908152602001600020541415905092915050565b600081519050919050565b7f4e487b7100000000000000000000000000000000000000000000000000000000600052604160045260246000fd5b7f4e487b7100000000000000000000000000000000000000000000000000000000600052602260045260246000fd5b60006002820490506001821680620004aa57607f821691505b602082108103620004c057620004bf62000462565b5b50919050565b60008190508160005260206000209050919050565b60006020601f8301049050919050565b600082821b905092915050565b6000600883026200052a7fffffffffffffffffffffffffffffffffffffffffffffffffffffffffffffffff82620004eb565b620005368683620004eb565b95508019841693508086168417925050509392505050565b6000819050919050565b6000819050919050565b6000620005836200057d62000577846200054e565b62000558565b6200054e565b9050919050565b6000819050919050565b6200059f8362000562565b620005b7620005ae826200058a565b848454620004f8565b825550505050565b600090565b620005ce620005bf565b620005db81848462000594565b505050565b5b818110156200060357620005f7600082620005c4565b600181019050620005e1565b5050565b601f82111562000652576200061c81620004c6565b6200062784620004db565b8101602085101562000637578190505b6200064f6200064685620004db565b830182620005e0565b50505b505050565b600082821c905092915050565b6000620006776000198460080262000657565b1980831691505092915050565b600062000692838362000664565b9150826002028217905092915050565b620006ad8262000428565b67ffffffffffffffff811115620006c957620006c862000433565b5b620006d5825462000491565b620006e282828562000607565b600060209050601f8311600181146200071a576000841562000705578287015190505b62000711858262000684565b86555062000781565b601f1984166200072a86620004c6565b60005b8281101562000754578489015182556001820191506020850194506020810190506200072d565b8683101562000774578489015162000770601f89168262000664565b8355505b6001600288020188555050505b505050505050565b615afc80620007996000396000f3fe608060405234801561001057600080fd5b506004361061023d5760003560e01c80636a6278421161013b578063a87d942c116100b8578063d53913931161007c578063d5391393146106d2578063d547741f146106f0578063e63ab1e91461070c578063e985e9c51461072a578063f7d975771461075a5761023d565b8063a87d942c1461061c578063b79bd6501461063a578063b88d4fde14610656578063c87b56dd14610672578063ca15c873146106a25761023d565b806394f5bf6c116100ff57806394f5bf6c1461057857806395d89b41146105945780639743eae6146105b2578063a217fddf146105e2578063a22cb465146106005761023d565b80636a627842146104c257806370a08231146104de5780638456cb591461050e5780639010d07c1461051857806391d14854146105485761023d565b8063248a9ca3116101c957806342842e0e1161018d57806342842e0e1461040c57806342966c68146104285780634f6ccce7146104445780635c975abb146104745780636352211e146104925761023d565b8063248a9ca31461036a5780632f2ff15d1461039a5780632f745c59146103b657806336568abe146103e65780633f4ba83a146104025761023d565b8063095ea7b311610210578063095ea7b3146102dc5780630cdc0783146102f857806318160ddd146103145780631ecb24c41461033257806323b872dd1461034e5761023d565b806301ffc9a714610242578063035936221461027257806306fdde031461028e578063081812fc146102ac575b600080fd5b61025c60048036038101906102579190613fe9565b610776565b6040516102699190614031565b60405180910390f35b61028c60048036038101906102879190614082565b610788565b005b610296610858565b6040516102a3919061413f565b60405180910390f35b6102c660048036038101906102c19190614082565b6108ea565b6040516102d391906141a2565b60405180910390f35b6102f660048036038101906102f191906141e9565b610930565b005b610312600480360381019061030d9190614269565b610a47565b005b61031c610b70565b60405161032991906142b8565b60405180910390f35b61034c60048036038101906103479190614331565b610b7d565b005b610368600480360381019061036391906143d3565b610f55565b005b610384600480360381019061037f919061445c565b610fb5565b6040516103919190614498565b60405180910390f35b6103b460048036038101906103af91906144b3565b610fd4565b005b6103d060048036038101906103cb91906141e9565b610ff5565b6040516103dd91906142b8565b60405180910390f35b61040060048036038101906103fb91906144b3565b61109a565b005b61040a61111d565b005b610426600480360381019061042191906143d3565b611197565b005b610442600480360381019061043d9190614082565b6111b7565b005b61045e60048036038101906104599190614082565b611213565b60405161046b91906142b8565b60405180910390f35b61047c611284565b6040516104899190614031565b60405180910390f35b6104ac60048036038101906104a79190614082565b61129b565b6040516104b991906141a2565b60405180910390f35b6104dc60048036038101906104d791906144f3565b611321565b005b6104f860048036038101906104f391906144f3565b6113b1565b60405161050591906142b8565b60405180910390f35b610516611468565b005b610532600480360381019061052d9190614520565b6114e2565b60405161053f91906141a2565b60405180910390f35b610562600480360381019061055d91906144b3565b611511565b60405161056f9190614031565b60405180910390f35b610592600480360381019061058d9190614082565b61157b565b005b61059c611663565b6040516105a9919061413f565b60405180910390f35b6105cc60048036038101906105c79190614082565b6116f5565b6040516105d99190614760565b60405180910390f35b6105ea61194a565b6040516105f79190614498565b60405180910390f35b61061a600480360381019061061591906147a8565b611951565b005b610624611967565b60405161063191906142b8565b60405180910390f35b610654600480360381019061064f9190614269565b611971565b005b610670600480360381019061066b919061491d565b611afd565b005b61068c60048036038101906106879190614082565b611b5f565b604051610699919061413f565b60405180910390f35b6106bc60048036038101906106b7919061445c565b611bc7565b6040516106c991906142b8565b60405180910390f35b6106da611beb565b6040516106e79190614498565b60405180910390f35b61070a600480360381019061070591906144b3565b611c0f565b005b610714611c30565b6040516107219190614498565b60405180910390f35b610744600480360381019061073f91906149a0565b611c54565b6040516107519190614031565b60405180910390f35b610774600480360381019061076f91906149e0565b611ce8565b005b600061078182611f3e565b9050919050565b6107b97f9f2df0fed2c77648de5860a4cc508cd0818c85b8b8a1ab4ceeef8d981c8956a66107b4611fb8565b611511565b6107c257600080fd5b600060068111156107d6576107d5614560565b5b6010600083815260200190815260200160002060000160019054906101000a900460ff16600681111561080c5761080b614560565b5b1461081657600080fd5b60026010600083815260200190815260200160002060000160016101000a81548160ff021916908360068111156108505761084f614560565b5b021790555050565b60606002805461086790614a4f565b80601f016020809104026020016040519081016040528092919081815260200182805461089390614a4f565b80156108e05780601f106108b5576101008083540402835291602001916108e0565b820191906000526020600020905b8154815290600101906020018083116108c357829003601f168201915b5050505050905090565b60006108f582611fc0565b6006600083815260200190815260200160002060009054906101000a900473ffffffffffffffffffffffffffffffffffffffff169050919050565b600061093b8261129b565b90508073ffffffffffffffffffffffffffffffffffffffff168373ffffffffffffffffffffffffffffffffffffffff16036109ab576040517f08c379a00000000000000000000000000000000000000000000000000000000081526004016109a290614af2565b60405180910390fd5b8073ffffffffffffffffffffffffffffffffffffffff166109ca611fb8565b73ffffffffffffffffffffffffffffffffffffffff1614806109f957506109f8816109f3611fb8565b611c54565b5b610a38576040517f08c379a0000000000000000000000000000000000000000000000000000000008152600401610a2f90614b84565b60405180910390fd5b610a42838361200b565b505050565b60006006811115610a5b57610a5a614560565b5b6010600084815260200190815260200160002060000160019054906101000a900460ff166006811115610a9157610a90614560565b5b14610a9b57600080fd5b336010600084815260200190815260200160002060010160006101000a81548173ffffffffffffffffffffffffffffffffffffffff021916908373ffffffffffffffffffffffffffffffffffffffff1602179055508060106000848152602001908152602001600020600001600a6101000a81548167ffffffffffffffff021916908367ffffffffffffffff16021790555060016010600084815260200190815260200160002060000160016101000a81548160ff02191690836006811115610b6757610b66614560565b5b02179055505050565b6000600a80549050905090565b610ba77f9f2df0fed2c77648de5860a4cc508cd0818c85b8b8a1ab4ceeef8d981c8956a633611511565b610be6576040517f08c379a0000000000000000000000000000000000000000000000000000000008152600401610bdd90614bf0565b60405180910390fd5b610bee613ea6565b8781600001906002811115610c0657610c05614560565b5b90816002811115610c1a57610c19614560565b5b81525050600081602001906006811115610c3757610c36614560565b5b90816006811115610c4b57610c4a614560565b5b8152505086816040019067ffffffffffffffff16908167ffffffffffffffff1681525050858160a0019067ffffffffffffffff16908167ffffffffffffffff1681525050818160c0019073ffffffffffffffffffffffffffffffffffffffff16908173ffffffffffffffffffffffffffffffffffffffff1681525050848160e0019060070b908160070b815250508381610100019060070b908160070b815250508281610120018181525050610d0333600f546120c4565b8060106000600f54815260200190815260200160002060008201518160000160006101000a81548160ff02191690836002811115610d4457610d43614560565b5b021790555060208201518160000160016101000a81548160ff02191690836006811115610d7457610d73614560565b5b021790555060408201518160000160026101000a81548167ffffffffffffffff021916908367ffffffffffffffff160217905550606082015181600001600a6101000a81548167ffffffffffffffff021916908367ffffffffffffffff16021790555060808201518160010160006101000a81548173ffffffffffffffffffffffffffffffffffffffff021916908373ffffffffffffffffffffffffffffffffffffffff16021790555060a08201518160010160146101000a81548167ffffffffffffffff021916908367ffffffffffffffff16021790555060c08201518160020160006101000a81548173ffffffffffffffffffffffffffffffffffffffff021916908373ffffffffffffffffffffffffffffffffffffffff16021790555060e08201518160020160146101000a81548167ffffffffffffffff021916908360070b67ffffffffffffffff1602179055506101008201518160030160006101000a81548167ffffffffffffffff021916908360070b67ffffffffffffffff16021790555061012082015181600401556101408201518160050160006101000a81548160ff0219169083151502179055506101608201518160060155905050600f6000815480929190610f4690614c3f565b91905055505050505050505050565b610f66610f60611fb8565b826122e1565b610fa5576040517f08c379a0000000000000000000000000000000000000000000000000000000008152600401610f9c90614cf9565b60405180910390fd5b610fb0838383612376565b505050565b6000806000838152602001908152602001600020600101549050919050565b610fdd82610fb5565b610fe68161266f565b610ff08383612683565b505050565b6000611000836113b1565b8210611041576040517f08c379a000000000000000000000000000000000000000000000000000000000815260040161103890614d8b565b60405180910390fd5b600860008473ffffffffffffffffffffffffffffffffffffffff1673ffffffffffffffffffffffffffffffffffffffff168152602001908152602001600020600083815260200190815260200160002054905092915050565b6110a2611fb8565b73ffffffffffffffffffffffffffffffffffffffff168173ffffffffffffffffffffffffffffffffffffffff161461110f576040517f08c379a000000000000000000000000000000000000000000000000000000000815260040161110690614e1d565b60405180910390fd5b61111982826126b7565b5050565b61114e7f65d7a28e3265b37a6474929f336521b332c1681b933f6cb9f3376673440d862a611149611fb8565b611511565b61118d576040517f08c379a000000000000000000000000000000000000000000000000000000000815260040161118490614eaf565b60405180910390fd5b6111956126eb565b565b6111b283838360405180602001604052806000815250611afd565b505050565b6111c86111c2611fb8565b826122e1565b611207576040517f08c379a00000000000000000000000000000000000000000000000000000000081526004016111fe90614cf9565b60405180910390fd5b6112108161274e565b50565b600061121d610b70565b821061125e576040517f08c379a000000000000000000000000000000000000000000000000000000000815260040161125590614f41565b60405180910390fd5b600a828154811061127257611271614f61565b5b90600052602060002001549050919050565b6000600c60009054906101000a900460ff16905090565b6000806112a78361289c565b9050600073ffffffffffffffffffffffffffffffffffffffff168173ffffffffffffffffffffffffffffffffffffffff1603611318576040517f08c379a000000000000000000000000000000000000000000000000000000000815260040161130f90614fdc565b60405180910390fd5b80915050919050565b6113527f9f2df0fed2c77648de5860a4cc508cd0818c85b8b8a1ab4ceeef8d981c8956a661134d611fb8565b611511565b611391576040517f08c379a00000000000000000000000000000000000000000000000000000000081526004016113889061506e565b60405180910390fd5b6113a48161139f600d6128d9565b6120c4565b6113ae600d6128e7565b50565b60008073ffffffffffffffffffffffffffffffffffffffff168273ffffffffffffffffffffffffffffffffffffffff1603611421576040517f08c379a000000000000000000000000000000000000000000000000000000000815260040161141890615100565b60405180910390fd5b600560008373ffffffffffffffffffffffffffffffffffffffff1673ffffffffffffffffffffffffffffffffffffffff168152602001908152602001600020549050919050565b6114997f65d7a28e3265b37a6474929f336521b332c1681b933f6cb9f3376673440d862a611494611fb8565b611511565b6114d8576040517f08c379a00000000000000000000000000000000000000000000000000000000081526004016114cf90615192565b60405180910390fd5b6114e06128fd565b565b6000611509826001600086815260200190815260200160002061296090919063ffffffff16565b905092915050565b600080600084815260200190815260200160002060000160008373ffffffffffffffffffffffffffffffffffffffff1673ffffffffffffffffffffffffffffffffffffffff16815260200190815260200160002060009054906101000a900460ff16905092915050565b6000600681111561158f5761158e614560565b5b6010600083815260200190815260200160002060000160019054906101000a900460ff1660068111156115c5576115c4614560565b5b14806116185750600260068111156115e0576115df614560565b5b6010600083815260200190815260200160002060000160019054906101000a900460ff16600681111561161657611615614560565b5b145b61162157600080fd5b60036010600083815260200190815260200160002060000160016101000a81548160ff0219169083600681111561165b5761165a614560565b5b021790555050565b60606003805461167290614a4f565b80601f016020809104026020016040519081016040528092919081815260200182805461169e90614a4f565b80156116eb5780601f106116c0576101008083540402835291602001916116eb565b820191906000526020600020905b8154815290600101906020018083116116ce57829003601f168201915b5050505050905090565b6116fd613ea6565b600060106000848152602001908152602001600020604051806101800160405290816000820160009054906101000a900460ff16600281111561174357611742614560565b5b600281111561175557611754614560565b5b81526020016000820160019054906101000a900460ff16600681111561177e5761177d614560565b5b60068111156117905761178f614560565b5b81526020016000820160029054906101000a900467ffffffffffffffff1667ffffffffffffffff1667ffffffffffffffff16815260200160008201600a9054906101000a900467ffffffffffffffff1667ffffffffffffffff1667ffffffffffffffff1681526020016001820160009054906101000a900473ffffffffffffffffffffffffffffffffffffffff1673ffffffffffffffffffffffffffffffffffffffff1673ffffffffffffffffffffffffffffffffffffffff1681526020016001820160149054906101000a900467ffffffffffffffff1667ffffffffffffffff1667ffffffffffffffff1681526020016002820160009054906101000a900473ffffffffffffffffffffffffffffffffffffffff1673ffffffffffffffffffffffffffffffffffffffff1673ffffffffffffffffffffffffffffffffffffffff1681526020016002820160149054906101000a900460070b60070b60070b81526020016003820160009054906101000a900460070b60070b60070b8152602001600482015481526020016005820160009054906101000a900460ff16151515158152602001600682015481525050905080915050919050565b6000801b81565b61196361195c611fb8565b838361297a565b5050565b6000600f54905090565b6001600681111561198557611984614560565b5b6010600084815260200190815260200160002060000160019054906101000a900460ff1660068111156119bb576119ba614560565b5b146119c557600080fd5b600115156010600084815260200190815260200160002060050160009054906101000a900460ff161515146119f957600080fd5b6000601060008481526020019081526020016000206006015411611a1c57600080fd5b8060106000848152602001908152602001600020600001600a6101000a81548167ffffffffffffffff021916908367ffffffffffffffff160217905550336010600084815260200190815260200160002060010160006101000a81548173ffffffffffffffffffffffffffffffffffffffff021916908373ffffffffffffffffffffffffffffffffffffffff16021790555060006010600084815260200190815260200160002060050160006101000a81548160ff021916908315150217905550600060106000848152602001908152602001600020600601819055505050565b611b0e611b08611fb8565b836122e1565b611b4d576040517f08c379a0000000000000000000000000000000000000000000000000000000008152600401611b4490614cf9565b60405180910390fd5b611b5984848484612ae6565b50505050565b6060611b6a82611fc0565b6000611b74612b42565b90506000815111611b945760405180602001604052806000815250611bbf565b80611b9e84612bd4565b604051602001611baf9291906151ee565b6040516020818303038152906040525b915050919050565b6000611be460016000848152602001908152602001600020612ca2565b9050919050565b7f9f2df0fed2c77648de5860a4cc508cd0818c85b8b8a1ab4ceeef8d981c8956a681565b611c1882610fb5565b611c218161266f565b611c2b83836126b7565b505050565b7f65d7a28e3265b37a6474929f336521b332c1681b933f6cb9f3376673440d862a81565b6000600760008473ffffffffffffffffffffffffffffffffffffffff1673ffffffffffffffffffffffffffffffffffffffff16815260200190815260200160002060008373ffffffffffffffffffffffffffffffffffffffff1673ffffffffffffffffffffffffffffffffffffffff16815260200190815260200160002060009054906101000a900460ff16905092915050565b60016006811115611cfc57611cfb614560565b5b6010600084815260200190815260200160002060000160019054906101000a900460ff166006811115611d3257611d31614560565b5b14611d72576040517f08c379a0000000000000000000000000000000000000000000000000000000008152600401611d699061525e565b60405180910390fd5b6010600083815260200190815260200160002060010160009054906101000a900473ffffffffffffffffffffffffffffffffffffffff1673ffffffffffffffffffffffffffffffffffffffff163373ffffffffffffffffffffffffffffffffffffffff1614611de057600080fd5b80601060008481526020019081526020016000206006018190555060016010600084815260200190815260200160002060050160006101000a81548160ff0219169083151502179055505050565b611e388282611511565b611f0a57600160008084815260200190815260200160002060000160008373ffffffffffffffffffffffffffffffffffffffff1673ffffffffffffffffffffffffffffffffffffffff16815260200190815260200160002060006101000a81548160ff021916908315150217905550611eaf611fb8565b73ffffffffffffffffffffffffffffffffffffffff168173ffffffffffffffffffffffffffffffffffffffff16837f2f8788117e7eff1d82e926ec794901d17c78024a50270940304540a733656f0d60405160405180910390a45b5050565b6000611f36836000018373ffffffffffffffffffffffffffffffffffffffff1660001b612cb7565b905092915050565b60007f780e9d63000000000000000000000000000000000000000000000000000000007bffffffffffffffffffffffffffffffffffffffffffffffffffffffff1916827bffffffffffffffffffffffffffffffffffffffffffffffffffffffff19161480611fb15750611fb082612d27565b5b9050919050565b600033905090565b611fc981612e09565b612008576040517f08c379a0000000000000000000000000000000000000000000000000000000008152600401611fff90614fdc565b60405180910390fd5b50565b816006600083815260200190815260200160002060006101000a81548173ffffffffffffffffffffffffffffffffffffffff021916908373ffffffffffffffffffffffffffffffffffffffff160217905550808273ffffffffffffffffffffffffffffffffffffffff1661207e8361129b565b73ffffffffffffffffffffffffffffffffffffffff167f8c5be1e5ebec7d5bd14f71427d1e84f3dd0314c0f7b2291e5b200ac8c7c3b92560405160405180910390a45050565b600073ffffffffffffffffffffffffffffffffffffffff168273ffffffffffffffffffffffffffffffffffffffff1603612133576040517f08c379a000000000000000000000000000000000000000000000000000000000815260040161212a906152ca565b60405180910390fd5b61213c81612e09565b1561217c576040517f08c379a000000000000000000000000000000000000000000000000000000000815260040161217390615336565b60405180910390fd5b61218a600083836001612e4a565b61219381612e09565b156121d3576040517f08c379a00000000000000000000000000000000000000000000000000000000081526004016121ca90615336565b60405180910390fd5b6001600560008473ffffffffffffffffffffffffffffffffffffffff1673ffffffffffffffffffffffffffffffffffffffff16815260200190815260200160002060008282540192505081905550816004600083815260200190815260200160002060006101000a81548173ffffffffffffffffffffffffffffffffffffffff021916908373ffffffffffffffffffffffffffffffffffffffff160217905550808273ffffffffffffffffffffffffffffffffffffffff16600073ffffffffffffffffffffffffffffffffffffffff167fddf252ad1be2c89b69c2b068fc378daa952ba7f163c4a11628f55a4df523b3ef60405160405180910390a46122dd600083836001612e5c565b5050565b6000806122ed8361129b565b90508073ffffffffffffffffffffffffffffffffffffffff168473ffffffffffffffffffffffffffffffffffffffff16148061232f575061232e8185611c54565b5b8061236d57508373ffffffffffffffffffffffffffffffffffffffff16612355846108ea565b73ffffffffffffffffffffffffffffffffffffffff16145b91505092915050565b8273ffffffffffffffffffffffffffffffffffffffff166123968261129b565b73ffffffffffffffffffffffffffffffffffffffff16146123ec576040517f08c379a00000000000000000000000000000000000000000000000000000000081526004016123e3906153c8565b60405180910390fd5b600073ffffffffffffffffffffffffffffffffffffffff168273ffffffffffffffffffffffffffffffffffffffff160361245b576040517f08c379a00000000000000000000000000000000000000000000000000000000081526004016124529061545a565b60405180910390fd5b6124688383836001612e4a565b8273ffffffffffffffffffffffffffffffffffffffff166124888261129b565b73ffffffffffffffffffffffffffffffffffffffff16146124de576040517f08c379a00000000000000000000000000000000000000000000000000000000081526004016124d5906153c8565b60405180910390fd5b6006600082815260200190815260200160002060006101000a81549073ffffffffffffffffffffffffffffffffffffffff02191690556001600560008573ffffffffffffffffffffffffffffffffffffffff1673ffffffffffffffffffffffffffffffffffffffff168152602001908152602001600020600082825403925050819055506001600560008473ffffffffffffffffffffffffffffffffffffffff1673ffffffffffffffffffffffffffffffffffffffff16815260200190815260200160002060008282540192505081905550816004600083815260200190815260200160002060006101000a81548173ffffffffffffffffffffffffffffffffffffffff021916908373ffffffffffffffffffffffffffffffffffffffff160217905550808273ffffffffffffffffffffffffffffffffffffffff168473ffffffffffffffffffffffffffffffffffffffff167fddf252ad1be2c89b69c2b068fc378daa952ba7f163c4a11628f55a4df523b3ef60405160405180910390a461266a8383836001612e5c565b505050565b6126808161267b611fb8565b612e62565b50565b61268d8282611e2e565b6126b28160016000858152602001908152602001600020611f0e90919063ffffffff16565b505050565b6126c18282612ee7565b6126e68160016000858152602001908152602001600020612fc890919063ffffffff16565b505050565b6126f3612ff8565b6000600c60006101000a81548160ff0219169083151502179055507f5db9ee0a495bf2e6ff9c91a7834c1ba4fdd244a5e8aa4e537bd38aeae4b073aa612737611fb8565b60405161274491906141a2565b60405180910390a1565b60006127598261129b565b9050612769816000846001612e4a565b6127728261129b565b90506006600083815260200190815260200160002060006101000a81549073ffffffffffffffffffffffffffffffffffffffff02191690556001600560008373ffffffffffffffffffffffffffffffffffffffff1673ffffffffffffffffffffffffffffffffffffffff168152602001908152602001600020600082825403925050819055506004600083815260200190815260200160002060006101000a81549073ffffffffffffffffffffffffffffffffffffffff021916905581600073ffffffffffffffffffffffffffffffffffffffff168273ffffffffffffffffffffffffffffffffffffffff167fddf252ad1be2c89b69c2b068fc378daa952ba7f163c4a11628f55a4df523b3ef60405160405180910390a4612898816000846001612e5c565b5050565b60006004600083815260200190815260200160002060009054906101000a900473ffffffffffffffffffffffffffffffffffffffff169050919050565b600081600001549050919050565b6001816000016000828254019250508190555050565b612905613041565b6001600c60006101000a81548160ff0219169083151502179055507f62e78cea01bee320cd4e420270b5ea74000d11b0c9f74754ebdbfc544b05a258612949611fb8565b60405161295691906141a2565b60405180910390a1565b600061296f836000018361308b565b60001c905092915050565b8173ffffffffffffffffffffffffffffffffffffffff168373ffffffffffffffffffffffffffffffffffffffff16036129e8576040517f08c379a00000000000000000000000000000000000000000000000000000000081526004016129df906154c6565b60405180910390fd5b80600760008573ffffffffffffffffffffffffffffffffffffffff1673ffffffffffffffffffffffffffffffffffffffff16815260200190815260200160002060008473ffffffffffffffffffffffffffffffffffffffff1673ffffffffffffffffffffffffffffffffffffffff16815260200190815260200160002060006101000a81548160ff0219169083151502179055508173ffffffffffffffffffffffffffffffffffffffff168373ffffffffffffffffffffffffffffffffffffffff167f17307eab39ab6107e8899845ad3d59bd9653f200f220920489ca2b5937696c3183604051612ad99190614031565b60405180910390a3505050565b612af1848484612376565b612afd848484846130b6565b612b3c576040517f08c379a0000000000000000000000000000000000000000000000000000000008152600401612b3390615558565b60405180910390fd5b50505050565b6060600e8054612b5190614a4f565b80601f0160208091040260200160405190810160405280929190818152602001828054612b7d90614a4f565b8015612bca5780601f10612b9f57610100808354040283529160200191612bca565b820191906000526020600020905b815481529060010190602001808311612bad57829003601f168201915b5050505050905090565b606060006001612be38461323d565b01905060008167ffffffffffffffff811115612c0257612c016147f2565b5b6040519080825280601f01601f191660200182016040528015612c345781602001600182028036833780820191505090505b509050600082602001820190505b600115612c97578080600190039150507f3031323334353637383961626364656600000000000000000000000000000000600a86061a8153600a8581612c8b57612c8a615578565b5b04945060008503612c42575b819350505050919050565b6000612cb082600001613390565b9050919050565b6000612cc383836133a1565b612d1c578260000182908060018154018082558091505060019003906000526020600020016000909190919091505582600001805490508360010160008481526020019081526020016000208190555060019050612d21565b600090505b92915050565b60007f80ac58cd000000000000000000000000000000000000000000000000000000007bffffffffffffffffffffffffffffffffffffffffffffffffffffffff1916827bffffffffffffffffffffffffffffffffffffffffffffffffffffffff19161480612df257507f5b5e139f000000000000000000000000000000000000000000000000000000007bffffffffffffffffffffffffffffffffffffffffffffffffffffffff1916827bffffffffffffffffffffffffffffffffffffffffffffffffffffffff1916145b80612e025750612e01826133c4565b5b9050919050565b60008073ffffffffffffffffffffffffffffffffffffffff16612e2b8361289c565b73ffffffffffffffffffffffffffffffffffffffff1614159050919050565b612e568484848461343e565b50505050565b50505050565b612e6c8282611511565b612ee357612e7981613498565b612e878360001c60206134c5565b604051602001612e9892919061563f565b6040516020818303038152906040526040517f08c379a0000000000000000000000000000000000000000000000000000000008152600401612eda919061413f565b60405180910390fd5b5050565b612ef18282611511565b15612fc457600080600084815260200190815260200160002060000160008373ffffffffffffffffffffffffffffffffffffffff1673ffffffffffffffffffffffffffffffffffffffff16815260200190815260200160002060006101000a81548160ff021916908315150217905550612f69611fb8565b73ffffffffffffffffffffffffffffffffffffffff168173ffffffffffffffffffffffffffffffffffffffff16837ff6391f5c32d9c69d2a47ea670b442974b53935d1edc7fd64eb21e047a839171b60405160405180910390a45b5050565b6000612ff0836000018373ffffffffffffffffffffffffffffffffffffffff1660001b613701565b905092915050565b613000611284565b61303f576040517f08c379a0000000000000000000000000000000000000000000000000000000008152600401613036906156c5565b60405180910390fd5b565b613049611284565b15613089576040517f08c379a000000000000000000000000000000000000000000000000000000000815260040161308090615731565b60405180910390fd5b565b60008260000182815481106130a3576130a2614f61565b5b9060005260206000200154905092915050565b60006130d78473ffffffffffffffffffffffffffffffffffffffff16613815565b15613230578373ffffffffffffffffffffffffffffffffffffffff1663150b7a02613100611fb8565b8786866040518563ffffffff1660e01b815260040161312294939291906157a6565b6020604051808303816000875af192505050801561315e57506040513d601f19601f8201168201806040525081019061315b9190615807565b60015b6131e0573d806000811461318e576040519150601f19603f3d011682016040523d82523d6000602084013e613193565b606091505b5060008151036131d8576040517f08c379a00000000000000000000000000000000000000000000000000000000081526004016131cf90615558565b60405180910390fd5b805181602001fd5b63150b7a0260e01b7bffffffffffffffffffffffffffffffffffffffffffffffffffffffff1916817bffffffffffffffffffffffffffffffffffffffffffffffffffffffff191614915050613235565b600190505b949350505050565b600080600090507a184f03e93ff9f4daa797ed6e38ed64bf6a1f010000000000000000831061329b577a184f03e93ff9f4daa797ed6e38ed64bf6a1f010000000000000000838161329157613290615578565b5b0492506040810190505b6d04ee2d6d415b85acef810000000083106132d8576d04ee2d6d415b85acef810000000083816132ce576132cd615578565b5b0492506020810190505b662386f26fc10000831061330757662386f26fc1000083816132fd576132fc615578565b5b0492506010810190505b6305f5e1008310613330576305f5e100838161332657613325615578565b5b0492506008810190505b612710831061335557612710838161334b5761334a615578565b5b0492506004810190505b60648310613378576064838161336e5761336d615578565b5b0492506002810190505b600a8310613387576001810190505b80915050919050565b600081600001805490509050919050565b600080836001016000848152602001908152602001600020541415905092915050565b60007f5a05180f000000000000000000000000000000000000000000000000000000007bffffffffffffffffffffffffffffffffffffffffffffffffffffffff1916827bffffffffffffffffffffffffffffffffffffffffffffffffffffffff19161480613437575061343682613838565b5b9050919050565b61344a848484846138b2565b613452611284565b15613492576040517f08c379a0000000000000000000000000000000000000000000000000000000008152600401613489906158a6565b60405180910390fd5b50505050565b60606134be8273ffffffffffffffffffffffffffffffffffffffff16601460ff166134c5565b9050919050565b6060600060028360026134d891906158c6565b6134e29190615908565b67ffffffffffffffff8111156134fb576134fa6147f2565b5b6040519080825280601f01601f19166020018201604052801561352d5781602001600182028036833780820191505090505b5090507f30000000000000000000000000000000000000000000000000000000000000008160008151811061356557613564614f61565b5b60200101907effffffffffffffffffffffffffffffffffffffffffffffffffffffffffffff1916908160001a9053507f7800000000000000000000000000000000000000000000000000000000000000816001815181106135c9576135c8614f61565b5b60200101907effffffffffffffffffffffffffffffffffffffffffffffffffffffffffffff1916908160001a9053506000600184600261360991906158c6565b6136139190615908565b90505b60018111156136b3577f3031323334353637383961626364656600000000000000000000000000000000600f86166010811061365557613654614f61565b5b1a60f81b82828151811061366c5761366b614f61565b5b60200101907effffffffffffffffffffffffffffffffffffffffffffffffffffffffffffff1916908160001a905350600485901c9450806136ac9061593c565b9050613616565b50600084146136f7576040517f08c379a00000000000000000000000000000000000000000000000000000000081526004016136ee906159b1565b60405180910390fd5b8091505092915050565b6000808360010160008481526020019081526020016000205490506000811461380957600060018261373391906159d1565b905060006001866000018054905061374b91906159d1565b90508181146137ba57600086600001828154811061376c5761376b614f61565b5b90600052602060002001549050808760000184815481106137905761378f614f61565b5b90600052602060002001819055508387600101600083815260200190815260200160002081905550505b856000018054806137ce576137cd615a05565b5b60019003818190600052602060002001600090559055856001016000868152602001908152602001600020600090556001935050505061380f565b60009150505b92915050565b6000808273ffffffffffffffffffffffffffffffffffffffff163b119050919050565b60007f7965db0b000000000000000000000000000000000000000000000000000000007bffffffffffffffffffffffffffffffffffffffffffffffffffffffff1916827bffffffffffffffffffffffffffffffffffffffffffffffffffffffff191614806138ab57506138aa82613a10565b5b9050919050565b6138be84848484613a7a565b6001811115613902576040517f08c379a00000000000000000000000000000000000000000000000000000000081526004016138f990615aa6565b60405180910390fd5b6000829050600073ffffffffffffffffffffffffffffffffffffffff168573ffffffffffffffffffffffffffffffffffffffff16036139495761394481613ba0565b613988565b8373ffffffffffffffffffffffffffffffffffffffff168573ffffffffffffffffffffffffffffffffffffffff1614613987576139868582613be9565b5b5b600073ffffffffffffffffffffffffffffffffffffffff168473ffffffffffffffffffffffffffffffffffffffff16036139ca576139c581613d56565b613a09565b8473ffffffffffffffffffffffffffffffffffffffff168473ffffffffffffffffffffffffffffffffffffffff1614613a0857613a078482613e27565b5b5b5050505050565b60007f01ffc9a7000000000000000000000000000000000000000000000000000000007bffffffffffffffffffffffffffffffffffffffffffffffffffffffff1916827bffffffffffffffffffffffffffffffffffffffffffffffffffffffff1916149050919050565b6001811115613b9a57600073ffffffffffffffffffffffffffffffffffffffff168473ffffffffffffffffffffffffffffffffffffffff1614613b0e5780600560008673ffffffffffffffffffffffffffffffffffffffff1673ffffffffffffffffffffffffffffffffffffffff1681526020019081526020016000206000828254613b0691906159d1565b925050819055505b600073ffffffffffffffffffffffffffffffffffffffff168373ffffffffffffffffffffffffffffffffffffffff1614613b995780600560008573ffffffffffffffffffffffffffffffffffffffff1673ffffffffffffffffffffffffffffffffffffffff1681526020019081526020016000206000828254613b919190615908565b925050819055505b5b50505050565b600a80549050600b600083815260200190815260200160002081905550600a81908060018154018082558091505060019003906000526020600020016000909190919091505550565b60006001613bf6846113b1565b613c0091906159d1565b9050600060096000848152602001908152602001600020549050818114613ce5576000600860008673ffffffffffffffffffffffffffffffffffffffff1673ffffffffffffffffffffffffffffffffffffffff168152602001908152602001600020600084815260200190815260200160002054905080600860008773ffffffffffffffffffffffffffffffffffffffff1673ffffffffffffffffffffffffffffffffffffffff168152602001908152602001600020600084815260200190815260200160002081905550816009600083815260200190815260200160002081905550505b6009600084815260200190815260200160002060009055600860008573ffffffffffffffffffffffffffffffffffffffff1673ffffffffffffffffffffffffffffffffffffffff16815260200190815260200160002060008381526020019081526020016000206000905550505050565b60006001600a80549050613d6a91906159d1565b90506000600b60008481526020019081526020016000205490506000600a8381548110613d9a57613d99614f61565b5b9060005260206000200154905080600a8381548110613dbc57613dbb614f61565b5b906000526020600020018190555081600b600083815260200190815260200160002081905550600b600085815260200190815260200160002060009055600a805480613e0b57613e0a615a05565b5b6001900381819060005260206000200160009055905550505050565b6000613e32836113b1565b905081600860008573ffffffffffffffffffffffffffffffffffffffff1673ffffffffffffffffffffffffffffffffffffffff168152602001908152602001600020600083815260200190815260200160002081905550806009600084815260200190815260200160002081905550505050565b60405180610180016040528060006002811115613ec657613ec5614560565b5b815260200160006006811115613edf57613ede614560565b5b8152602001600067ffffffffffffffff168152602001600067ffffffffffffffff168152602001600073ffffffffffffffffffffffffffffffffffffffff168152602001600067ffffffffffffffff168152602001600073ffffffffffffffffffffffffffffffffffffffff168152602001600060070b8152602001600060070b815260200160008152602001600015158152602001600081525090565b6000604051905090565b600080fd5b600080fd5b60007fffffffff0000000000000000000000000000000000000000000000000000000082169050919050565b613fc681613f91565b8114613fd157600080fd5b50565b600081359050613fe381613fbd565b92915050565b600060208284031215613fff57613ffe613f87565b5b600061400d84828501613fd4565b91505092915050565b60008115159050919050565b61402b81614016565b82525050565b60006020820190506140466000830184614022565b92915050565b6000819050919050565b61405f8161404c565b811461406a57600080fd5b50565b60008135905061407c81614056565b92915050565b60006020828403121561409857614097613f87565b5b60006140a68482850161406d565b91505092915050565b600081519050919050565b600082825260208201905092915050565b60005b838110156140e95780820151818401526020810190506140ce565b60008484015250505050565b6000601f19601f8301169050919050565b6000614111826140af565b61411b81856140ba565b935061412b8185602086016140cb565b614134816140f5565b840191505092915050565b600060208201905081810360008301526141598184614106565b905092915050565b600073ffffffffffffffffffffffffffffffffffffffff82169050919050565b600061418c82614161565b9050919050565b61419c81614181565b82525050565b60006020820190506141b76000830184614193565b92915050565b6141c681614181565b81146141d157600080fd5b50565b6000813590506141e3816141bd565b92915050565b60008060408385031215614200576141ff613f87565b5b600061420e858286016141d4565b925050602061421f8582860161406d565b9150509250929050565b600067ffffffffffffffff82169050919050565b61424681614229565b811461425157600080fd5b50565b6000813590506142638161423d565b92915050565b600080604083850312156142805761427f613f87565b5b600061428e8582860161406d565b925050602061429f85828601614254565b9150509250929050565b6142b28161404c565b82525050565b60006020820190506142cd60008301846142a9565b92915050565b600381106142e057600080fd5b50565b6000813590506142f2816142d3565b92915050565b60008160070b9050919050565b61430e816142f8565b811461431957600080fd5b50565b60008135905061432b81614305565b92915050565b600080600080600080600060e0888a0312156143505761434f613f87565b5b600061435e8a828b016142e3565b975050602061436f8a828b01614254565b96505060406143808a828b01614254565b95505060606143918a828b0161431c565b94505060806143a28a828b0161431c565b93505060a06143b38a828b0161406d565b92505060c06143c48a828b016141d4565b91505092959891949750929550565b6000806000606084860312156143ec576143eb613f87565b5b60006143fa868287016141d4565b935050602061440b868287016141d4565b925050604061441c8682870161406d565b9150509250925092565b6000819050919050565b61443981614426565b811461444457600080fd5b50565b60008135905061445681614430565b92915050565b60006020828403121561447257614471613f87565b5b600061448084828501614447565b91505092915050565b61449281614426565b82525050565b60006020820190506144ad6000830184614489565b92915050565b600080604083850312156144ca576144c9613f87565b5b60006144d885828601614447565b92505060206144e9858286016141d4565b9150509250929050565b60006020828403121561450957614508613f87565b5b6000614517848285016141d4565b91505092915050565b6000806040838503121561453757614536613f87565b5b600061454585828601614447565b92505060206145568582860161406d565b9150509250929050565b7f4e487b7100000000000000000000000000000000000000000000000000000000600052602160045260246000fd5b600381106145a05761459f614560565b5b50565b60008190506145b18261458f565b919050565b60006145c1826145a3565b9050919050565b6145d1816145b6565b82525050565b600781106145e8576145e7614560565b5b50565b60008190506145f9826145d7565b919050565b6000614609826145eb565b9050919050565b614619816145fe565b82525050565b61462881614229565b82525050565b61463781614181565b82525050565b614646816142f8565b82525050565b6146558161404c565b82525050565b61466481614016565b82525050565b6101808201600082015161468160008501826145c8565b5060208201516146946020850182614610565b5060408201516146a7604085018261461f565b5060608201516146ba606085018261461f565b5060808201516146cd608085018261462e565b5060a08201516146e060a085018261461f565b5060c08201516146f360c085018261462e565b5060e082015161470660e085018261463d565b5061010082015161471b61010085018261463d565b5061012082015161473061012085018261464c565b5061014082015161474561014085018261465b565b5061016082015161475a61016085018261464c565b50505050565b600061018082019050614776600083018461466a565b92915050565b61478581614016565b811461479057600080fd5b50565b6000813590506147a28161477c565b92915050565b600080604083850312156147bf576147be613f87565b5b60006147cd858286016141d4565b92505060206147de85828601614793565b9150509250929050565b600080fd5b600080fd5b7f4e487b7100000000000000000000000000000000000000000000000000000000600052604160045260246000fd5b61482a826140f5565b810181811067ffffffffffffffff82111715614849576148486147f2565b5b80604052505050565b600061485c613f7d565b90506148688282614821565b919050565b600067ffffffffffffffff821115614888576148876147f2565b5b614891826140f5565b9050602081019050919050565b82818337600083830152505050565b60006148c06148bb8461486d565b614852565b9050828152602081018484840111156148dc576148db6147ed565b5b6148e784828561489e565b509392505050565b600082601f830112614904576149036147e8565b5b81356149148482602086016148ad565b91505092915050565b6000806000806080858703121561493757614936613f87565b5b6000614945878288016141d4565b9450506020614956878288016141d4565b93505060406149678782880161406d565b925050606085013567ffffffffffffffff81111561498857614987613f8c565b5b614994878288016148ef565b91505092959194509250565b600080604083850312156149b7576149b6613f87565b5b60006149c5858286016141d4565b92505060206149d6858286016141d4565b9150509250929050565b600080604083850312156149f7576149f6613f87565b5b6000614a058582860161406d565b9250506020614a168582860161406d565b9150509250929050565b7f4e487b7100000000000000000000000000000000000000000000000000000000600052602260045260246000fd5b60006002820490506001821680614a6757607f821691505b602082108103614a7a57614a79614a20565b5b50919050565b7f4552433732313a20617070726f76616c20746f2063757272656e74206f776e6560008201527f7200000000000000000000000000000000000000000000000000000000000000602082015250565b6000614adc6021836140ba565b9150614ae782614a80565b604082019050919050565b60006020820190508181036000830152614b0b81614acf565b9050919050565b7f4552433732313a20617070726f76652063616c6c6572206973206e6f7420746f60008201527f6b656e206f776e6572206f7220617070726f76656420666f7220616c6c000000602082015250565b6000614b6e603d836140ba565b9150614b7982614b12565b604082019050919050565b60006020820190508181036000830152614b9d81614b61565b9050919050565b7f55736572206973206e6f742061206d696e746572000000000000000000000000600082015250565b6000614bda6014836140ba565b9150614be582614ba4565b602082019050919050565b60006020820190508181036000830152614c0981614bcd565b9050919050565b7f4e487b7100000000000000000000000000000000000000000000000000000000600052601160045260246000fd5b6000614c4a8261404c565b91507fffffffffffffffffffffffffffffffffffffffffffffffffffffffffffffffff8203614c7c57614c7b614c10565b5b600182019050919050565b7f4552433732313a2063616c6c6572206973206e6f7420746f6b656e206f776e6560008201527f72206f7220617070726f76656400000000000000000000000000000000000000602082015250565b6000614ce3602d836140ba565b9150614cee82614c87565b604082019050919050565b60006020820190508181036000830152614d1281614cd6565b9050919050565b7f455243373231456e756d657261626c653a206f776e657220696e646578206f7560008201527f74206f6620626f756e6473000000000000000000000000000000000000000000602082015250565b6000614d75602b836140ba565b9150614d8082614d19565b604082019050919050565b60006020820190508181036000830152614da481614d68565b9050919050565b7f416363657373436f6e74726f6c3a2063616e206f6e6c792072656e6f756e636560008201527f20726f6c657320666f722073656c660000000000000000000000000000000000602082015250565b6000614e07602f836140ba565b9150614e1282614dab565b604082019050919050565b60006020820190508181036000830152614e3681614dfa565b9050919050565b7f4552433732315072657365744d696e7465725061757365724175746f49643a2060008201527f6d75737420686176652070617573657220726f6c6520746f20756e7061757365602082015250565b6000614e996040836140ba565b9150614ea482614e3d565b604082019050919050565b60006020820190508181036000830152614ec881614e8c565b9050919050565b7f455243373231456e756d657261626c653a20676c6f62616c20696e646578206f60008201527f7574206f6620626f756e64730000000000000000000000000000000000000000602082015250565b6000614f2b602c836140ba565b9150614f3682614ecf565b604082019050919050565b60006020820190508181036000830152614f5a81614f1e565b9050919050565b7f4e487b7100000000000000000000000000000000000000000000000000000000600052603260045260246000fd5b7f4552433732313a20696e76616c696420746f6b656e2049440000000000000000600082015250565b6000614fc66018836140ba565b9150614fd182614f90565b602082019050919050565b60006020820190508181036000830152614ff581614fb9565b9050919050565b7f4552433732315072657365744d696e7465725061757365724175746f49643a2060008201527f6d7573742068617665206d696e74657220726f6c6520746f206d696e74000000602082015250565b6000615058603d836140ba565b915061506382614ffc565b604082019050919050565b600060208201905081810360008301526150878161504b565b9050919050565b7f4552433732313a2061646472657373207a65726f206973206e6f74206120766160008201527f6c6964206f776e65720000000000000000000000000000000000000000000000602082015250565b60006150ea6029836140ba565b91506150f58261508e565b604082019050919050565b60006020820190508181036000830152615119816150dd565b9050919050565b7f4552433732315072657365744d696e7465725061757365724175746f49643a2060008201527f6d75737420686176652070617573657220726f6c6520746f2070617573650000602082015250565b600061517c603e836140ba565b915061518782615120565b604082019050919050565b600060208201905081810360008301526151ab8161516f565b9050919050565b600081905092915050565b60006151c8826140af565b6151d281856151b2565b93506151e28185602086016140cb565b80840191505092915050565b60006151fa82856151bd565b915061520682846151bd565b91508190509392505050565b7f43616e6e6f742073656c6c207468697300000000000000000000000000000000600082015250565b60006152486010836140ba565b915061525382615212565b602082019050919050565b600060208201905081810360008301526152778161523b565b9050919050565b7f4552433732313a206d696e7420746f20746865207a65726f2061646472657373600082015250565b60006152b46020836140ba565b91506152bf8261527e565b602082019050919050565b600060208201905081810360008301526152e3816152a7565b9050919050565b7f4552433732313a20746f6b656e20616c7265616479206d696e74656400000000600082015250565b6000615320601c836140ba565b915061532b826152ea565b602082019050919050565b6000602082019050818103600083015261534f81615313565b9050919050565b7f4552433732313a207472616e736665722066726f6d20696e636f72726563742060008201527f6f776e6572000000000000000000000000000000000000000000000000000000602082015250565b60006153b26025836140ba565b91506153bd82615356565b604082019050919050565b600060208201905081810360008301526153e1816153a5565b9050919050565b7f4552433732313a207472616e7366657220746f20746865207a65726f2061646460008201527f7265737300000000000000000000000000000000000000000000000000000000602082015250565b60006154446024836140ba565b915061544f826153e8565b604082019050919050565b6000602082019050818103600083015261547381615437565b9050919050565b7f4552433732313a20617070726f766520746f2063616c6c657200000000000000600082015250565b60006154b06019836140ba565b91506154bb8261547a565b602082019050919050565b600060208201905081810360008301526154df816154a3565b9050919050565b7f4552433732313a207472616e7366657220746f206e6f6e20455243373231526560008201527f63656976657220696d706c656d656e7465720000000000000000000000000000602082015250565b60006155426032836140ba565b915061554d826154e6565b604082019050919050565b6000602082019050818103600083015261557181615535565b9050919050565b7f4e487b7100000000000000000000000000000000000000000000000000000000600052601260045260246000fd5b7f416363657373436f6e74726f6c3a206163636f756e7420000000000000000000600082015250565b60006155dd6017836151b2565b91506155e8826155a7565b601782019050919050565b7f206973206d697373696e6720726f6c6520000000000000000000000000000000600082015250565b60006156296011836151b2565b9150615634826155f3565b601182019050919050565b600061564a826155d0565b915061565682856151bd565b91506156618261561c565b915061566d82846151bd565b91508190509392505050565b7f5061757361626c653a206e6f7420706175736564000000000000000000000000600082015250565b60006156af6014836140ba565b91506156ba82615679565b602082019050919050565b600060208201905081810360008301526156de816156a2565b9050919050565b7f5061757361626c653a2070617573656400000000000000000000000000000000600082015250565b600061571b6010836140ba565b9150615726826156e5565b602082019050919050565b6000602082019050818103600083015261574a8161570e565b9050919050565b600081519050919050565b600082825260208201905092915050565b600061577882615751565b615782818561575c565b93506157928185602086016140cb565b61579b816140f5565b840191505092915050565b60006080820190506157bb6000830187614193565b6157c86020830186614193565b6157d560408301856142a9565b81810360608301526157e7818461576d565b905095945050505050565b60008151905061580181613fbd565b92915050565b60006020828403121561581d5761581c613f87565b5b600061582b848285016157f2565b91505092915050565b7f4552433732315061757361626c653a20746f6b656e207472616e73666572207760008201527f68696c6520706175736564000000000000000000000000000000000000000000602082015250565b6000615890602b836140ba565b915061589b82615834565b604082019050919050565b600060208201905081810360008301526158bf81615883565b9050919050565b60006158d18261404c565b91506158dc8361404c565b92508282026158ea8161404c565b9150828204841483151761590157615900614c10565b5b5092915050565b60006159138261404c565b915061591e8361404c565b925082820190508082111561593657615935614c10565b5b92915050565b60006159478261404c565b91506000820361595a57615959614c10565b5b600182039050919050565b7f537472696e67733a20686578206c656e67746820696e73756666696369656e74600082015250565b600061599b6020836140ba565b91506159a682615965565b602082019050919050565b600060208201905081810360008301526159ca8161598e565b9050919050565b60006159dc8261404c565b91506159e78361404c565b92508282039050818111156159ff576159fe614c10565b5b92915050565b7f4e487b7100000000000000000000000000000000000000000000000000000000600052603160045260246000fd5b7f455243373231456e756d657261626c653a20636f6e736563757469766520747260008201527f616e7366657273206e6f7420737570706f727465640000000000000000000000602082015250565b6000615a906035836140ba565b9150615a9b82615a34565b604082019050919050565b60006020820190508181036000830152615abf81615a83565b905091905056fea2646970667358221220d6f87c41abee8aa8aaff330b09090883294680a60dca924b1f0bbcd1fa8a832164736f6c63430008110033",
  "linkReferences": {},
  "deployedLinkReferences": {}
}