{
  "_format": "hh-sol-artifact-1",
  "contractName": "SpacetimeDAO",
  "sourceName": "contracts/spacetimeDao/SpacetimeDAO.sol",
  "abi": [
    {
      "inputs": [
        {
          "internalType": "address",
          "name": "spacetimeToken",
          "type": "address"
        },
        {
          "internalType": "address",
          "name": "spacetimeERC721",
          "type": "address"
        }
      ],
      "stateMutability": "nonpayable",
      "type": "constructor"
    },
    {
      "anonymous": false,
      "inputs": [
        {
          "indexed": true,
          "internalType": "bytes32",
          "name": "role",
          "type": "bytes32"
        },
        {
          "indexed": true,
          "internalType": "bytes32",
          "name": "previousAdminRole",
          "type": "bytes32"
        },
        {
          "indexed": true,
          "internalType": "bytes32",
          "name": "newAdminRole",
          "type": "bytes32"
        }
      ],
      "name": "RoleAdminChanged",
      "type": "event"
    },
    {
      "anonymous": false,
      "inputs": [
        {
          "indexed": true,
          "internalType": "bytes32",
          "name": "role",
          "type": "bytes32"
        },
        {
          "indexed": true,
          "internalType": "address",
          "name": "account",
          "type": "address"
        },
        {
          "indexed": true,
          "internalType": "address",
          "name": "sender",
          "type": "address"
        }
      ],
      "name": "RoleGranted",
      "type": "event"
    },
    {
      "anonymous": false,
      "inputs": [
        {
          "indexed": true,
          "internalType": "bytes32",
          "name": "role",
          "type": "bytes32"
        },
        {
          "indexed": true,
          "internalType": "address",
          "name": "account",
          "type": "address"
        },
        {
          "indexed": true,
          "internalType": "address",
          "name": "sender",
          "type": "address"
        }
      ],
      "name": "RoleRevoked",
      "type": "event"
    },
    {
      "inputs": [],
      "name": "ADMIN",
      "outputs": [
        {
          "internalType": "bytes32",
          "name": "",
          "type": "bytes32"
        }
      ],
      "stateMutability": "view",
      "type": "function"
    },
    {
      "inputs": [],
      "name": "DEAL_PROPOSAL_VALIDATOR",
      "outputs": [
        {
          "internalType": "bytes32",
          "name": "",
          "type": "bytes32"
        }
      ],
      "stateMutability": "view",
      "type": "function"
    },
    {
      "inputs": [],
      "name": "DEFAULT_ADMIN_ROLE",
      "outputs": [
        {
          "internalType": "bytes32",
          "name": "",
          "type": "bytes32"
        }
      ],
      "stateMutability": "view",
      "type": "function"
    },
    {
      "inputs": [],
      "name": "MEMBER",
      "outputs": [
        {
          "internalType": "bytes32",
          "name": "",
          "type": "bytes32"
        }
      ],
      "stateMutability": "view",
      "type": "function"
    },
    {
      "inputs": [
        {
          "internalType": "enum DerivativeType",
          "name": "derivativeType",
          "type": "uint8"
        },
        {
          "internalType": "uint64",
          "name": "size",
          "type": "uint64"
        },
        {
          "internalType": "uint64",
          "name": "provider",
          "type": "uint64"
        },
        {
          "internalType": "int64",
          "name": "dealTermStart",
          "type": "int64"
        },
        {
          "internalType": "int64",
          "name": "dealTermDuration",
          "type": "int64"
        },
        {
          "internalType": "uint256",
          "name": "pricePerEpoch",
          "type": "uint256"
        }
      ],
      "name": "createDerivative",
      "outputs": [],
      "stateMutability": "nonpayable",
      "type": "function"
    },
    {
      "inputs": [],
      "name": "faucet",
      "outputs": [],
      "stateMutability": "nonpayable",
      "type": "function"
    },
    {
      "inputs": [
        {
          "internalType": "bytes32",
          "name": "role",
          "type": "bytes32"
        }
      ],
      "name": "getRoleAdmin",
      "outputs": [
        {
          "internalType": "bytes32",
          "name": "",
          "type": "bytes32"
        }
      ],
      "stateMutability": "view",
      "type": "function"
    },
    {
      "inputs": [
        {
          "internalType": "bytes32",
          "name": "role",
          "type": "bytes32"
        },
        {
          "internalType": "uint256",
          "name": "index",
          "type": "uint256"
        }
      ],
      "name": "getRoleMember",
      "outputs": [
        {
          "internalType": "address",
          "name": "",
          "type": "address"
        }
      ],
      "stateMutability": "view",
      "type": "function"
    },
    {
      "inputs": [
        {
          "internalType": "bytes32",
          "name": "role",
          "type": "bytes32"
        }
      ],
      "name": "getRoleMemberCount",
      "outputs": [
        {
          "internalType": "uint256",
          "name": "",
          "type": "uint256"
        }
      ],
      "stateMutability": "view",
      "type": "function"
    },
    {
      "inputs": [],
      "name": "getTokenAddress",
      "outputs": [
        {
          "internalType": "address",
          "name": "",
          "type": "address"
        }
      ],
      "stateMutability": "view",
      "type": "function"
    },
    {
      "inputs": [
        {
          "internalType": "bytes32",
          "name": "role",
          "type": "bytes32"
        },
        {
          "internalType": "address",
          "name": "account",
          "type": "address"
        }
      ],
      "name": "grantRole",
      "outputs": [],
      "stateMutability": "nonpayable",
      "type": "function"
    },
    {
      "inputs": [
        {
          "internalType": "bytes32",
          "name": "role",
          "type": "bytes32"
        },
        {
          "internalType": "address",
          "name": "account",
          "type": "address"
        }
      ],
      "name": "hasRole",
      "outputs": [
        {
          "internalType": "bool",
          "name": "",
          "type": "bool"
        }
      ],
      "stateMutability": "view",
      "type": "function"
    },
    {
      "inputs": [
        {
          "internalType": "address",
          "name": "participant",
          "type": "address"
        }
      ],
      "name": "isMember",
      "outputs": [
        {
          "internalType": "bool",
          "name": "",
          "type": "bool"
        }
      ],
      "stateMutability": "view",
      "type": "function"
    },
    {
      "inputs": [],
      "name": "join",
      "outputs": [],
      "stateMutability": "nonpayable",
      "type": "function"
    },
    {
      "inputs": [],
      "name": "quit",
      "outputs": [],
      "stateMutability": "nonpayable",
      "type": "function"
    },
    {
      "inputs": [
        {
          "internalType": "bytes32",
          "name": "role",
          "type": "bytes32"
        },
        {
          "internalType": "address",
          "name": "account",
          "type": "address"
        }
      ],
      "name": "renounceRole",
      "outputs": [],
      "stateMutability": "nonpayable",
      "type": "function"
    },
    {
      "inputs": [
        {
          "internalType": "bytes32",
          "name": "role",
          "type": "bytes32"
        },
        {
          "internalType": "address",
          "name": "account",
          "type": "address"
        }
      ],
      "name": "revokeRole",
      "outputs": [],
      "stateMutability": "nonpayable",
      "type": "function"
    },
    {
      "inputs": [
        {
          "internalType": "bytes4",
          "name": "interfaceId",
          "type": "bytes4"
        }
      ],
      "name": "supportsInterface",
      "outputs": [
        {
          "internalType": "bool",
          "name": "",
          "type": "bool"
        }
      ],
      "stateMutability": "view",
      "type": "function"
    },
    {
      "inputs": [
        {
          "internalType": "uint256",
          "name": "tokenId",
          "type": "uint256"
        }
      ],
      "name": "transferDeal",
      "outputs": [],
      "stateMutability": "nonpayable",
      "type": "function"
    },
    {
      "inputs": [
        {
          "internalType": "uint256",
          "name": "tokenId",
          "type": "uint256"
        }
      ],
      "name": "validateDealProposal",
      "outputs": [],
      "stateMutability": "nonpayable",
      "type": "function"
    }
  ],
  "bytecode": "0x60806040523480156200001157600080fd5b5060405162001fd538038062001fd583398181016040528101906200003791906200012b565b81600260006101000a81548173ffffffffffffffffffffffffffffffffffffffff021916908373ffffffffffffffffffffffffffffffffffffffff16021790555080600360006101000a81548173ffffffffffffffffffffffffffffffffffffffff021916908373ffffffffffffffffffffffffffffffffffffffff160217905550505062000172565b600080fd5b600073ffffffffffffffffffffffffffffffffffffffff82169050919050565b6000620000f382620000c6565b9050919050565b6200010581620000e6565b81146200011157600080fd5b50565b6000815190506200012581620000fa565b92915050565b60008060408385031215620001455762000144620000c1565b5b6000620001558582860162000114565b9250506020620001688582860162000114565b9150509250929050565b611e5380620001826000396000f3fe608060405234801561001057600080fd5b506004361061012c5760003560e01c806391d14854116100ad578063c914d9d411610071578063c914d9d414610331578063ca15c8731461034d578063d547741f1461037d578063de5f72fd14610399578063fc2b8cc3146103a35761012c565b806391d148541461028d578063a217fddf146102bd578063a230c524146102db578063b688a3631461030b578063bc0cccb4146103155761012c565b80632a0acc6a116100f45780632a0acc6a146101e95780632f2ff15d146102075780633588d58a1461022357806336568abe146102415780639010d07c1461025d5761012c565b806301e9fbeb1461013157806301ffc9a71461014d57806310fe9ae81461017d5780631c681a421461019b578063248a9ca3146101b9575b600080fd5b61014b60048036038101906101469190611425565b6103ad565b005b6101676004803603810190610162919061150a565b6104be565b6040516101749190611552565b60405180910390f35b610185610538565b60405161019291906115ae565b60405180910390f35b6101a3610562565b6040516101b091906115e2565b60405180910390f35b6101d360048036038101906101ce9190611629565b610586565b6040516101e091906115e2565b60405180910390f35b6101f16105a5565b6040516101fe91906115e2565b60405180910390f35b610221600480360381019061021c9190611682565b6105c9565b005b61022b6105ea565b60405161023891906115e2565b60405180910390f35b61025b60048036038101906102569190611682565b61060e565b005b610277600480360381019061027291906116c2565b610691565b60405161028491906115ae565b60405180910390f35b6102a760048036038101906102a29190611682565b6106c0565b6040516102b49190611552565b60405180910390f35b6102c561072a565b6040516102d291906115e2565b60405180910390f35b6102f560048036038101906102f09190611702565b610731565b6040516103029190611552565b60405180910390f35b610313610764565b005b61032f600480360381019061032a919061172f565b6108a0565b005b61034b6004803603810190610346919061172f565b6108a3565b005b61036760048036038101906103629190611629565b610933565b604051610374919061176b565b60405180910390f35b61039760048036038101906103929190611682565b610957565b005b6103a1610978565b005b6103ab610a12565b005b6103de7fffa60083152bd11704a80cc8c7a409dad8aa74288b454a3ba0e94c0abc7cf1686103d9610ab5565b6106c0565b61041d576040517f08c379a0000000000000000000000000000000000000000000000000000000008152600401610414906117e3565b60405180910390fd5b600360009054906101000a900473ffffffffffffffffffffffffffffffffffffffff1673ffffffffffffffffffffffffffffffffffffffff16631ecb24c4878787878787336040518863ffffffff1660e01b81526004016104849796959493929190611898565b600060405180830381600087803b15801561049e57600080fd5b505af11580156104b2573d6000803e3d6000fd5b50505050505050505050565b60007f5a05180f000000000000000000000000000000000000000000000000000000007bffffffffffffffffffffffffffffffffffffffffffffffffffffffff1916827bffffffffffffffffffffffffffffffffffffffffffffffffffffffff19161480610531575061053082610abd565b5b9050919050565b6000600260009054906101000a900473ffffffffffffffffffffffffffffffffffffffff16905090565b7fffa60083152bd11704a80cc8c7a409dad8aa74288b454a3ba0e94c0abc7cf16881565b6000806000838152602001908152602001600020600101549050919050565b7fdf8b4c520ffe197c5343c6f5aec59570151ef9a492f2c624fd45ddde6135ec4281565b6105d282610586565b6105db81610b37565b6105e58383610b4b565b505050565b7f75acc4e667ba484f58c1566c7cf4333d1cdd5a81fb9a7baf95635021b476aec581565b610616610ab5565b73ffffffffffffffffffffffffffffffffffffffff168173ffffffffffffffffffffffffffffffffffffffff1614610683576040517f08c379a000000000000000000000000000000000000000000000000000000000815260040161067a90611979565b60405180910390fd5b61068d8282610b7f565b5050565b60006106b88260016000868152602001908152602001600020610bb390919063ffffffff16565b905092915050565b600080600084815260200190815260200160002060000160008373ffffffffffffffffffffffffffffffffffffffff1673ffffffffffffffffffffffffffffffffffffffff16815260200190815260200160002060009054906101000a900460ff16905092915050565b6000801b81565b600061075d7fffa60083152bd11704a80cc8c7a409dad8aa74288b454a3ba0e94c0abc7cf168836106c0565b9050919050565b6107957fffa60083152bd11704a80cc8c7a409dad8aa74288b454a3ba0e94c0abc7cf168610790610ab5565b6106c0565b156107d5576040517f08c379a00000000000000000000000000000000000000000000000000000000081526004016107cc906119e5565b60405180910390fd5b6108067fffa60083152bd11704a80cc8c7a409dad8aa74288b454a3ba0e94c0abc7cf168610801610ab5565b610bcd565b600260009054906101000a900473ffffffffffffffffffffffffffffffffffffffff1673ffffffffffffffffffffffffffffffffffffffff166340c10f1961084c610ab5565b6127106040518363ffffffff1660e01b815260040161086c929190611a4a565b600060405180830381600087803b15801561088657600080fd5b505af115801561089a573d6000803e3d6000fd5b50505050565b50565b600360009054906101000a900473ffffffffffffffffffffffffffffffffffffffff1673ffffffffffffffffffffffffffffffffffffffff166303593622826040518263ffffffff1660e01b81526004016108fe919061176b565b600060405180830381600087803b15801561091857600080fd5b505af115801561092c573d6000803e3d6000fd5b5050505050565b600061095060016000848152602001908152602001600020610bdb565b9050919050565b61096082610586565b61096981610b37565b6109738383610b7f565b505050565b600260009054906101000a900473ffffffffffffffffffffffffffffffffffffffff1673ffffffffffffffffffffffffffffffffffffffff166340c10f196109be610ab5565b6127106040518363ffffffff1660e01b81526004016109de929190611a4a565b600060405180830381600087803b1580156109f857600080fd5b505af1158015610a0c573d6000803e3d6000fd5b50505050565b610a437fffa60083152bd11704a80cc8c7a409dad8aa74288b454a3ba0e94c0abc7cf168610a3e610ab5565b6106c0565b610a82576040517f08c379a0000000000000000000000000000000000000000000000000000000008152600401610a79906117e3565b60405180910390fd5b610ab37fffa60083152bd11704a80cc8c7a409dad8aa74288b454a3ba0e94c0abc7cf168610aae610ab5565b610b7f565b565b600033905090565b60007f7965db0b000000000000000000000000000000000000000000000000000000007bffffffffffffffffffffffffffffffffffffffffffffffffffffffff1916827bffffffffffffffffffffffffffffffffffffffffffffffffffffffff19161480610b305750610b2f82610bf0565b5b9050919050565b610b4881610b43610ab5565b610c5a565b50565b610b558282610cdf565b610b7a8160016000858152602001908152602001600020610dbf90919063ffffffff16565b505050565b610b898282610def565b610bae8160016000858152602001908152602001600020610ed090919063ffffffff16565b505050565b6000610bc28360000183610f00565b60001c905092915050565b610bd78282610b4b565b5050565b6000610be982600001610f2b565b9050919050565b60007f01ffc9a7000000000000000000000000000000000000000000000000000000007bffffffffffffffffffffffffffffffffffffffffffffffffffffffff1916827bffffffffffffffffffffffffffffffffffffffffffffffffffffffff1916149050919050565b610c6482826106c0565b610cdb57610c7181610f3c565b610c7f8360001c6020610f69565b604051602001610c90929190611b7c565b6040516020818303038152906040526040517f08c379a0000000000000000000000000000000000000000000000000000000008152600401610cd29190611c00565b60405180910390fd5b5050565b610ce982826106c0565b610dbb57600160008084815260200190815260200160002060000160008373ffffffffffffffffffffffffffffffffffffffff1673ffffffffffffffffffffffffffffffffffffffff16815260200190815260200160002060006101000a81548160ff021916908315150217905550610d60610ab5565b73ffffffffffffffffffffffffffffffffffffffff168173ffffffffffffffffffffffffffffffffffffffff16837f2f8788117e7eff1d82e926ec794901d17c78024a50270940304540a733656f0d60405160405180910390a45b5050565b6000610de7836000018373ffffffffffffffffffffffffffffffffffffffff1660001b6111a5565b905092915050565b610df982826106c0565b15610ecc57600080600084815260200190815260200160002060000160008373ffffffffffffffffffffffffffffffffffffffff1673ffffffffffffffffffffffffffffffffffffffff16815260200190815260200160002060006101000a81548160ff021916908315150217905550610e71610ab5565b73ffffffffffffffffffffffffffffffffffffffff168173ffffffffffffffffffffffffffffffffffffffff16837ff6391f5c32d9c69d2a47ea670b442974b53935d1edc7fd64eb21e047a839171b60405160405180910390a45b5050565b6000610ef8836000018373ffffffffffffffffffffffffffffffffffffffff1660001b611215565b905092915050565b6000826000018281548110610f1857610f17611c22565b5b9060005260206000200154905092915050565b600081600001805490509050919050565b6060610f628273ffffffffffffffffffffffffffffffffffffffff16601460ff16610f69565b9050919050565b606060006002836002610f7c9190611c80565b610f869190611cc2565b67ffffffffffffffff811115610f9f57610f9e611cf6565b5b6040519080825280601f01601f191660200182016040528015610fd15781602001600182028036833780820191505090505b5090507f30000000000000000000000000000000000000000000000000000000000000008160008151811061100957611008611c22565b5b60200101907effffffffffffffffffffffffffffffffffffffffffffffffffffffffffffff1916908160001a9053507f78000000000000000000000000000000000000000000000000000000000000008160018151811061106d5761106c611c22565b5b60200101907effffffffffffffffffffffffffffffffffffffffffffffffffffffffffffff1916908160001a905350600060018460026110ad9190611c80565b6110b79190611cc2565b90505b6001811115611157577f3031323334353637383961626364656600000000000000000000000000000000600f8616601081106110f9576110f8611c22565b5b1a60f81b8282815181106111105761110f611c22565b5b60200101907effffffffffffffffffffffffffffffffffffffffffffffffffffffffffffff1916908160001a905350600485901c94508061115090611d25565b90506110ba565b506000841461119b576040517f08c379a000000000000000000000000000000000000000000000000000000000815260040161119290611d9a565b60405180910390fd5b8091505092915050565b60006111b18383611329565b61120a57826000018290806001815401808255809150506001900390600052602060002001600090919091909150558260000180549050836001016000848152602001908152602001600020819055506001905061120f565b600090505b92915050565b6000808360010160008481526020019081526020016000205490506000811461131d5760006001826112479190611dba565b905060006001866000018054905061125f9190611dba565b90508181146112ce5760008660000182815481106112805761127f611c22565b5b90600052602060002001549050808760000184815481106112a4576112a3611c22565b5b90600052602060002001819055508387600101600083815260200190815260200160002081905550505b856000018054806112e2576112e1611dee565b5b600190038181906000526020600020016000905590558560010160008681526020019081526020016000206000905560019350505050611323565b60009150505b92915050565b600080836001016000848152602001908152602001600020541415905092915050565b600080fd5b6003811061135e57600080fd5b50565b60008135905061137081611351565b92915050565b600067ffffffffffffffff82169050919050565b61139381611376565b811461139e57600080fd5b50565b6000813590506113b08161138a565b92915050565b60008160070b9050919050565b6113cc816113b6565b81146113d757600080fd5b50565b6000813590506113e9816113c3565b92915050565b6000819050919050565b611402816113ef565b811461140d57600080fd5b50565b60008135905061141f816113f9565b92915050565b60008060008060008060c087890312156114425761144161134c565b5b600061145089828a01611361565b965050602061146189828a016113a1565b955050604061147289828a016113a1565b945050606061148389828a016113da565b935050608061149489828a016113da565b92505060a06114a589828a01611410565b9150509295509295509295565b60007fffffffff0000000000000000000000000000000000000000000000000000000082169050919050565b6114e7816114b2565b81146114f257600080fd5b50565b600081359050611504816114de565b92915050565b6000602082840312156115205761151f61134c565b5b600061152e848285016114f5565b91505092915050565b60008115159050919050565b61154c81611537565b82525050565b60006020820190506115676000830184611543565b92915050565b600073ffffffffffffffffffffffffffffffffffffffff82169050919050565b60006115988261156d565b9050919050565b6115a88161158d565b82525050565b60006020820190506115c3600083018461159f565b92915050565b6000819050919050565b6115dc816115c9565b82525050565b60006020820190506115f760008301846115d3565b92915050565b611606816115c9565b811461161157600080fd5b50565b600081359050611623816115fd565b92915050565b60006020828403121561163f5761163e61134c565b5b600061164d84828501611614565b91505092915050565b61165f8161158d565b811461166a57600080fd5b50565b60008135905061167c81611656565b92915050565b600080604083850312156116995761169861134c565b5b60006116a785828601611614565b92505060206116b88582860161166d565b9150509250929050565b600080604083850312156116d9576116d861134c565b5b60006116e785828601611614565b92505060206116f885828601611410565b9150509250929050565b6000602082840312156117185761171761134c565b5b60006117268482850161166d565b91505092915050565b6000602082840312156117455761174461134c565b5b600061175384828501611410565b91505092915050565b611765816113ef565b82525050565b6000602082019050611780600083018461175c565b92915050565b600082825260208201905092915050565b7f55736572206973206e6f742061206d656d626572000000000000000000000000600082015250565b60006117cd601483611786565b91506117d882611797565b602082019050919050565b600060208201905081810360008301526117fc816117c0565b9050919050565b7f4e487b7100000000000000000000000000000000000000000000000000000000600052602160045260246000fd5b6003811061184357611842611803565b5b50565b600081905061185482611832565b919050565b600061186482611846565b9050919050565b61187481611859565b82525050565b61188381611376565b82525050565b611892816113b6565b82525050565b600060e0820190506118ad600083018a61186b565b6118ba602083018961187a565b6118c7604083018861187a565b6118d46060830187611889565b6118e16080830186611889565b6118ee60a083018561175c565b6118fb60c083018461159f565b98975050505050505050565b7f416363657373436f6e74726f6c3a2063616e206f6e6c792072656e6f756e636560008201527f20726f6c657320666f722073656c660000000000000000000000000000000000602082015250565b6000611963602f83611786565b915061196e82611907565b604082019050919050565b6000602082019050818103600083015261199281611956565b9050919050565b7f5573657220697320616c72656164792061206d656d6265720000000000000000600082015250565b60006119cf601883611786565b91506119da82611999565b602082019050919050565b600060208201905081810360008301526119fe816119c2565b9050919050565b6000819050919050565b6000819050919050565b6000611a34611a2f611a2a84611a05565b611a0f565b6113ef565b9050919050565b611a4481611a19565b82525050565b6000604082019050611a5f600083018561159f565b611a6c6020830184611a3b565b9392505050565b600081905092915050565b7f416363657373436f6e74726f6c3a206163636f756e7420000000000000000000600082015250565b6000611ab4601783611a73565b9150611abf82611a7e565b601782019050919050565b600081519050919050565b60005b83811015611af3578082015181840152602081019050611ad8565b60008484015250505050565b6000611b0a82611aca565b611b148185611a73565b9350611b24818560208601611ad5565b80840191505092915050565b7f206973206d697373696e6720726f6c6520000000000000000000000000000000600082015250565b6000611b66601183611a73565b9150611b7182611b30565b601182019050919050565b6000611b8782611aa7565b9150611b938285611aff565b9150611b9e82611b59565b9150611baa8284611aff565b91508190509392505050565b6000601f19601f8301169050919050565b6000611bd282611aca565b611bdc8185611786565b9350611bec818560208601611ad5565b611bf581611bb6565b840191505092915050565b60006020820190508181036000830152611c1a8184611bc7565b905092915050565b7f4e487b7100000000000000000000000000000000000000000000000000000000600052603260045260246000fd5b7f4e487b7100000000000000000000000000000000000000000000000000000000600052601160045260246000fd5b6000611c8b826113ef565b9150611c96836113ef565b9250828202611ca4816113ef565b91508282048414831517611cbb57611cba611c51565b5b5092915050565b6000611ccd826113ef565b9150611cd8836113ef565b9250828201905080821115611cf057611cef611c51565b5b92915050565b7f4e487b7100000000000000000000000000000000000000000000000000000000600052604160045260246000fd5b6000611d30826113ef565b915060008203611d4357611d42611c51565b5b600182039050919050565b7f537472696e67733a20686578206c656e67746820696e73756666696369656e74600082015250565b6000611d84602083611786565b9150611d8f82611d4e565b602082019050919050565b60006020820190508181036000830152611db381611d77565b9050919050565b6000611dc5826113ef565b9150611dd0836113ef565b9250828203905081811115611de857611de7611c51565b5b92915050565b7f4e487b7100000000000000000000000000000000000000000000000000000000600052603160045260246000fdfea2646970667358221220e46508e2e0c7193cf89774669707bef449d41c73311d791822f0f3a065b710df64736f6c63430008110033",
  "linkReferences": {},
  "deployedLinkReferences": {}
}