{
  "_format": "hh-sol-artifact-1",
  "contractName": "SpacetimeDAO",
  "sourceName": "contracts/spacetimeDao/SpacetimeDAO.sol",
  "abi": [
    {
      "inputs": [
        {
          "internalType": "address",
          "name": "spacetimeToken",
          "type": "address"
        },
        {
          "internalType": "address",
          "name": "spacetimeERC721",
          "type": "address"
        }
      ],
      "stateMutability": "nonpayable",
      "type": "constructor"
    },
    {
      "anonymous": false,
      "inputs": [
        {
          "indexed": true,
          "internalType": "bytes32",
          "name": "role",
          "type": "bytes32"
        },
        {
          "indexed": true,
          "internalType": "bytes32",
          "name": "previousAdminRole",
          "type": "bytes32"
        },
        {
          "indexed": true,
          "internalType": "bytes32",
          "name": "newAdminRole",
          "type": "bytes32"
        }
      ],
      "name": "RoleAdminChanged",
      "type": "event"
    },
    {
      "anonymous": false,
      "inputs": [
        {
          "indexed": true,
          "internalType": "bytes32",
          "name": "role",
          "type": "bytes32"
        },
        {
          "indexed": true,
          "internalType": "address",
          "name": "account",
          "type": "address"
        },
        {
          "indexed": true,
          "internalType": "address",
          "name": "sender",
          "type": "address"
        }
      ],
      "name": "RoleGranted",
      "type": "event"
    },
    {
      "anonymous": false,
      "inputs": [
        {
          "indexed": true,
          "internalType": "bytes32",
          "name": "role",
          "type": "bytes32"
        },
        {
          "indexed": true,
          "internalType": "address",
          "name": "account",
          "type": "address"
        },
        {
          "indexed": true,
          "internalType": "address",
          "name": "sender",
          "type": "address"
        }
      ],
      "name": "RoleRevoked",
      "type": "event"
    },
    {
      "inputs": [],
      "name": "ADMIN",
      "outputs": [
        {
          "internalType": "bytes32",
          "name": "",
          "type": "bytes32"
        }
      ],
      "stateMutability": "view",
      "type": "function"
    },
    {
      "inputs": [],
      "name": "DEAL_PROPOSAL_VALIDATOR",
      "outputs": [
        {
          "internalType": "bytes32",
          "name": "",
          "type": "bytes32"
        }
      ],
      "stateMutability": "view",
      "type": "function"
    },
    {
      "inputs": [],
      "name": "DEFAULT_ADMIN_ROLE",
      "outputs": [
        {
          "internalType": "bytes32",
          "name": "",
          "type": "bytes32"
        }
      ],
      "stateMutability": "view",
      "type": "function"
    },
    {
      "inputs": [],
      "name": "MEMBER",
      "outputs": [
        {
          "internalType": "bytes32",
          "name": "",
          "type": "bytes32"
        }
      ],
      "stateMutability": "view",
      "type": "function"
    },
    {
      "inputs": [
        {
          "internalType": "enum DerivativeType",
          "name": "derivativeType",
          "type": "uint8"
        },
        {
          "internalType": "uint64",
          "name": "size",
          "type": "uint64"
        },
        {
          "internalType": "uint64",
          "name": "provider",
          "type": "uint64"
        },
        {
          "internalType": "int64",
          "name": "dealTermStart",
          "type": "int64"
        },
        {
          "internalType": "int64",
          "name": "dealTermDuration",
          "type": "int64"
        },
        {
          "internalType": "uint256",
          "name": "pricePerEpoch",
          "type": "uint256"
        }
      ],
      "name": "createDerivative",
      "outputs": [],
      "stateMutability": "nonpayable",
      "type": "function"
    },
    {
      "inputs": [],
      "name": "faucet",
      "outputs": [],
      "stateMutability": "nonpayable",
      "type": "function"
    },
    {
      "inputs": [],
      "name": "getAllDerivatives",
      "outputs": [
        {
          "components": [
            {
              "internalType": "enum DerivativeType",
              "name": "derivativeType",
              "type": "uint8"
            },
            {
              "internalType": "enum DerivativeState",
              "name": "derivativeState",
              "type": "uint8"
            },
            {
              "internalType": "uint64",
              "name": "size",
              "type": "uint64"
            },
            {
              "internalType": "uint64",
              "name": "client",
              "type": "uint64"
            },
            {
              "internalType": "address",
              "name": "clientEthAddress",
              "type": "address"
            },
            {
              "internalType": "uint64",
              "name": "provider",
              "type": "uint64"
            },
            {
              "internalType": "address",
              "name": "providerEthAddress",
              "type": "address"
            },
            {
              "internalType": "int64",
              "name": "dealTermStart",
              "type": "int64"
            },
            {
              "internalType": "int64",
              "name": "dealTermDuration",
              "type": "int64"
            },
            {
              "internalType": "uint256",
              "name": "pricePerEpoch",
              "type": "uint256"
            },
            {
              "internalType": "bool",
              "name": "onSale",
              "type": "bool"
            },
            {
              "internalType": "uint256",
              "name": "salePrice",
              "type": "uint256"
            }
          ],
          "internalType": "struct Derivative[]",
          "name": "",
          "type": "tuple[]"
        }
      ],
      "stateMutability": "view",
      "type": "function"
    },
    {
      "inputs": [
        {
          "internalType": "bytes32",
          "name": "role",
          "type": "bytes32"
        }
      ],
      "name": "getRoleAdmin",
      "outputs": [
        {
          "internalType": "bytes32",
          "name": "",
          "type": "bytes32"
        }
      ],
      "stateMutability": "view",
      "type": "function"
    },
    {
      "inputs": [
        {
          "internalType": "bytes32",
          "name": "role",
          "type": "bytes32"
        },
        {
          "internalType": "uint256",
          "name": "index",
          "type": "uint256"
        }
      ],
      "name": "getRoleMember",
      "outputs": [
        {
          "internalType": "address",
          "name": "",
          "type": "address"
        }
      ],
      "stateMutability": "view",
      "type": "function"
    },
    {
      "inputs": [
        {
          "internalType": "bytes32",
          "name": "role",
          "type": "bytes32"
        }
      ],
      "name": "getRoleMemberCount",
      "outputs": [
        {
          "internalType": "uint256",
          "name": "",
          "type": "uint256"
        }
      ],
      "stateMutability": "view",
      "type": "function"
    },
    {
      "inputs": [],
      "name": "getTokenAddress",
      "outputs": [
        {
          "internalType": "address",
          "name": "",
          "type": "address"
        }
      ],
      "stateMutability": "view",
      "type": "function"
    },
    {
      "inputs": [
        {
          "internalType": "bytes32",
          "name": "role",
          "type": "bytes32"
        },
        {
          "internalType": "address",
          "name": "account",
          "type": "address"
        }
      ],
      "name": "grantRole",
      "outputs": [],
      "stateMutability": "nonpayable",
      "type": "function"
    },
    {
      "inputs": [
        {
          "internalType": "bytes32",
          "name": "role",
          "type": "bytes32"
        },
        {
          "internalType": "address",
          "name": "account",
          "type": "address"
        }
      ],
      "name": "hasRole",
      "outputs": [
        {
          "internalType": "bool",
          "name": "",
          "type": "bool"
        }
      ],
      "stateMutability": "view",
      "type": "function"
    },
    {
      "inputs": [
        {
          "internalType": "address",
          "name": "participant",
          "type": "address"
        }
      ],
      "name": "isMember",
      "outputs": [
        {
          "internalType": "bool",
          "name": "",
          "type": "bool"
        }
      ],
      "stateMutability": "view",
      "type": "function"
    },
    {
      "inputs": [],
      "name": "join",
      "outputs": [],
      "stateMutability": "nonpayable",
      "type": "function"
    },
    {
      "inputs": [],
      "name": "quit",
      "outputs": [],
      "stateMutability": "nonpayable",
      "type": "function"
    },
    {
      "inputs": [
        {
          "internalType": "bytes32",
          "name": "role",
          "type": "bytes32"
        },
        {
          "internalType": "address",
          "name": "account",
          "type": "address"
        }
      ],
      "name": "renounceRole",
      "outputs": [],
      "stateMutability": "nonpayable",
      "type": "function"
    },
    {
      "inputs": [
        {
          "internalType": "bytes32",
          "name": "role",
          "type": "bytes32"
        },
        {
          "internalType": "address",
          "name": "account",
          "type": "address"
        }
      ],
      "name": "revokeRole",
      "outputs": [],
      "stateMutability": "nonpayable",
      "type": "function"
    },
    {
      "inputs": [
        {
          "internalType": "bytes4",
          "name": "interfaceId",
          "type": "bytes4"
        }
      ],
      "name": "supportsInterface",
      "outputs": [
        {
          "internalType": "bool",
          "name": "",
          "type": "bool"
        }
      ],
      "stateMutability": "view",
      "type": "function"
    },
    {
      "inputs": [
        {
          "internalType": "uint256",
          "name": "tokenId",
          "type": "uint256"
        }
      ],
      "name": "transferDeal",
      "outputs": [],
      "stateMutability": "nonpayable",
      "type": "function"
    },
    {
      "inputs": [
        {
          "internalType": "uint256",
          "name": "tokenId",
          "type": "uint256"
        }
      ],
      "name": "validateDealProposal",
      "outputs": [],
      "stateMutability": "nonpayable",
      "type": "function"
    }
  ],
  "bytecode": "0x60806040523480156200001157600080fd5b506040516200287a3803806200287a83398181016040528101906200003791906200012b565b81600260006101000a81548173ffffffffffffffffffffffffffffffffffffffff021916908373ffffffffffffffffffffffffffffffffffffffff16021790555080600360006101000a81548173ffffffffffffffffffffffffffffffffffffffff021916908373ffffffffffffffffffffffffffffffffffffffff160217905550505062000172565b600080fd5b600073ffffffffffffffffffffffffffffffffffffffff82169050919050565b6000620000f382620000c6565b9050919050565b6200010581620000e6565b81146200011157600080fd5b50565b6000815190506200012581620000fa565b92915050565b60008060408385031215620001455762000144620000c1565b5b6000620001558582860162000114565b9250506020620001688582860162000114565b9150509250929050565b6126f880620001826000396000f3fe608060405234801561001057600080fd5b50600436106101375760003560e01c80639010d07c116100b8578063bc0cccb41161007c578063bc0cccb41461033e578063c914d9d41461035a578063ca15c87314610376578063d547741f146103a6578063de5f72fd146103c2578063fc2b8cc3146103cc57610137565b80639010d07c1461028657806391d14854146102b6578063a217fddf146102e6578063a230c52414610304578063b688a3631461033457610137565b80632a0acc6a116100ff5780632a0acc6a146101f45780632f2ff15d146102125780633588d58a1461022e57806336568abe1461024c578063410d95591461026857610137565b806301e9fbeb1461013c57806301ffc9a71461015857806310fe9ae8146101885780631c681a42146101a6578063248a9ca3146101c4575b600080fd5b61015660048036038101906101519190611790565b6103d6565b005b610172600480360381019061016d9190611875565b6104e7565b60405161017f91906118bd565b60405180910390f35b610190610561565b60405161019d9190611919565b60405180910390f35b6101ae61058b565b6040516101bb919061194d565b60405180910390f35b6101de60048036038101906101d99190611994565b6105af565b6040516101eb919061194d565b60405180910390f35b6101fc6105ce565b604051610209919061194d565b60405180910390f35b61022c600480360381019061022791906119ed565b6105f2565b005b610236610613565b604051610243919061194d565b60405180910390f35b610266600480360381019061026191906119ed565b610637565b005b6102706106ba565b60405161027d9190611cdd565b60405180910390f35b6102a0600480360381019061029b9190611cff565b61091b565b6040516102ad9190611919565b60405180910390f35b6102d060048036038101906102cb91906119ed565b61094a565b6040516102dd91906118bd565b60405180910390f35b6102ee6109b4565b6040516102fb919061194d565b60405180910390f35b61031e60048036038101906103199190611d3f565b6109bb565b60405161032b91906118bd565b60405180910390f35b61033c6109ee565b005b61035860048036038101906103539190611d6c565b610b2a565b005b610374600480360381019061036f9190611d6c565b610b2d565b005b610390600480360381019061038b9190611994565b610bbd565b60405161039d9190611da8565b60405180910390f35b6103c060048036038101906103bb91906119ed565b610be1565b005b6103ca610c02565b005b6103d4610c9c565b005b6104077fffa60083152bd11704a80cc8c7a409dad8aa74288b454a3ba0e94c0abc7cf168610402610d3f565b61094a565b610446576040517f08c379a000000000000000000000000000000000000000000000000000000000815260040161043d90611e20565b60405180910390fd5b600360009054906101000a900473ffffffffffffffffffffffffffffffffffffffff1673ffffffffffffffffffffffffffffffffffffffff16631ecb24c4878787878787336040518863ffffffff1660e01b81526004016104ad9796959493929190611e6d565b600060405180830381600087803b1580156104c757600080fd5b505af11580156104db573d6000803e3d6000fd5b50505050505050505050565b60007f5a05180f000000000000000000000000000000000000000000000000000000007bffffffffffffffffffffffffffffffffffffffffffffffffffffffff1916827bffffffffffffffffffffffffffffffffffffffffffffffffffffffff1916148061055a575061055982610d47565b5b9050919050565b6000600260009054906101000a900473ffffffffffffffffffffffffffffffffffffffff16905090565b7fffa60083152bd11704a80cc8c7a409dad8aa74288b454a3ba0e94c0abc7cf16881565b6000806000838152602001908152602001600020600101549050919050565b7fdf8b4c520ffe197c5343c6f5aec59570151ef9a492f2c624fd45ddde6135ec4281565b6105fb826105af565b61060481610dc1565b61060e8383610dd5565b505050565b7f75acc4e667ba484f58c1566c7cf4333d1cdd5a81fb9a7baf95635021b476aec581565b61063f610d3f565b73ffffffffffffffffffffffffffffffffffffffff168173ffffffffffffffffffffffffffffffffffffffff16146106ac576040517f08c379a00000000000000000000000000000000000000000000000000000000081526004016106a390611f4e565b60405180910390fd5b6106b68282610e09565b5050565b60606000600360009054906101000a900473ffffffffffffffffffffffffffffffffffffffff1673ffffffffffffffffffffffffffffffffffffffff1663a87d942c6040518163ffffffff1660e01b8152600401602060405180830381865afa15801561072b573d6000803e3d6000fd5b505050506040513d601f19601f8201168201806040525081019061074f9190611f83565b67ffffffffffffffff81111561076857610767611fb0565b5b6040519080825280602002602001820160405280156107a157816020015b61078e6115d6565b8152602001906001900390816107865790505b50905060005b600360009054906101000a900473ffffffffffffffffffffffffffffffffffffffff1673ffffffffffffffffffffffffffffffffffffffff1663a87d942c6040518163ffffffff1660e01b8152600401602060405180830381865afa158015610814573d6000803e3d6000fd5b505050506040513d601f19601f820116820180604052508101906108389190611f83565b811015610913576000600360009054906101000a900473ffffffffffffffffffffffffffffffffffffffff1673ffffffffffffffffffffffffffffffffffffffff16639743eae6836040518263ffffffff1660e01b815260040161089c9190611da8565b61018060405180830381865afa1580156108ba573d6000803e3d6000fd5b505050506040513d601f19601f820116820180604052508101906108de9190612208565b9050808383815181106108f4576108f3612236565b5b602002602001018190525050808061090b90612294565b9150506107a7565b508091505090565b60006109428260016000868152602001908152602001600020610e3d90919063ffffffff16565b905092915050565b600080600084815260200190815260200160002060000160008373ffffffffffffffffffffffffffffffffffffffff1673ffffffffffffffffffffffffffffffffffffffff16815260200190815260200160002060009054906101000a900460ff16905092915050565b6000801b81565b60006109e77fffa60083152bd11704a80cc8c7a409dad8aa74288b454a3ba0e94c0abc7cf1688361094a565b9050919050565b610a1f7fffa60083152bd11704a80cc8c7a409dad8aa74288b454a3ba0e94c0abc7cf168610a1a610d3f565b61094a565b15610a5f576040517f08c379a0000000000000000000000000000000000000000000000000000000008152600401610a5690612328565b60405180910390fd5b610a907fffa60083152bd11704a80cc8c7a409dad8aa74288b454a3ba0e94c0abc7cf168610a8b610d3f565b610e57565b600260009054906101000a900473ffffffffffffffffffffffffffffffffffffffff1673ffffffffffffffffffffffffffffffffffffffff166340c10f19610ad6610d3f565b6127106040518363ffffffff1660e01b8152600401610af692919061238d565b600060405180830381600087803b158015610b1057600080fd5b505af1158015610b24573d6000803e3d6000fd5b50505050565b50565b600360009054906101000a900473ffffffffffffffffffffffffffffffffffffffff1673ffffffffffffffffffffffffffffffffffffffff166303593622826040518263ffffffff1660e01b8152600401610b889190611da8565b600060405180830381600087803b158015610ba257600080fd5b505af1158015610bb6573d6000803e3d6000fd5b5050505050565b6000610bda60016000848152602001908152602001600020610e65565b9050919050565b610bea826105af565b610bf381610dc1565b610bfd8383610e09565b505050565b600260009054906101000a900473ffffffffffffffffffffffffffffffffffffffff1673ffffffffffffffffffffffffffffffffffffffff166340c10f19610c48610d3f565b6127106040518363ffffffff1660e01b8152600401610c6892919061238d565b600060405180830381600087803b158015610c8257600080fd5b505af1158015610c96573d6000803e3d6000fd5b50505050565b610ccd7fffa60083152bd11704a80cc8c7a409dad8aa74288b454a3ba0e94c0abc7cf168610cc8610d3f565b61094a565b610d0c576040517f08c379a0000000000000000000000000000000000000000000000000000000008152600401610d0390611e20565b60405180910390fd5b610d3d7fffa60083152bd11704a80cc8c7a409dad8aa74288b454a3ba0e94c0abc7cf168610d38610d3f565b610e09565b565b600033905090565b60007f7965db0b000000000000000000000000000000000000000000000000000000007bffffffffffffffffffffffffffffffffffffffffffffffffffffffff1916827bffffffffffffffffffffffffffffffffffffffffffffffffffffffff19161480610dba5750610db982610e7a565b5b9050919050565b610dd281610dcd610d3f565b610ee4565b50565b610ddf8282610f69565b610e04816001600085815260200190815260200160002061104990919063ffffffff16565b505050565b610e138282611079565b610e38816001600085815260200190815260200160002061115a90919063ffffffff16565b505050565b6000610e4c836000018361118a565b60001c905092915050565b610e618282610dd5565b5050565b6000610e73826000016111b5565b9050919050565b60007f01ffc9a7000000000000000000000000000000000000000000000000000000007bffffffffffffffffffffffffffffffffffffffffffffffffffffffff1916827bffffffffffffffffffffffffffffffffffffffffffffffffffffffff1916149050919050565b610eee828261094a565b610f6557610efb816111c6565b610f098360001c60206111f3565b604051602001610f1a9291906124bf565b6040516020818303038152906040526040517f08c379a0000000000000000000000000000000000000000000000000000000008152600401610f5c9190612532565b60405180910390fd5b5050565b610f73828261094a565b61104557600160008084815260200190815260200160002060000160008373ffffffffffffffffffffffffffffffffffffffff1673ffffffffffffffffffffffffffffffffffffffff16815260200190815260200160002060006101000a81548160ff021916908315150217905550610fea610d3f565b73ffffffffffffffffffffffffffffffffffffffff168173ffffffffffffffffffffffffffffffffffffffff16837f2f8788117e7eff1d82e926ec794901d17c78024a50270940304540a733656f0d60405160405180910390a45b5050565b6000611071836000018373ffffffffffffffffffffffffffffffffffffffff1660001b61142f565b905092915050565b611083828261094a565b1561115657600080600084815260200190815260200160002060000160008373ffffffffffffffffffffffffffffffffffffffff1673ffffffffffffffffffffffffffffffffffffffff16815260200190815260200160002060006101000a81548160ff0219169083151502179055506110fb610d3f565b73ffffffffffffffffffffffffffffffffffffffff168173ffffffffffffffffffffffffffffffffffffffff16837ff6391f5c32d9c69d2a47ea670b442974b53935d1edc7fd64eb21e047a839171b60405160405180910390a45b5050565b6000611182836000018373ffffffffffffffffffffffffffffffffffffffff1660001b61149f565b905092915050565b60008260000182815481106111a2576111a1612236565b5b9060005260206000200154905092915050565b600081600001805490509050919050565b60606111ec8273ffffffffffffffffffffffffffffffffffffffff16601460ff166111f3565b9050919050565b6060600060028360026112069190612554565b6112109190612596565b67ffffffffffffffff81111561122957611228611fb0565b5b6040519080825280601f01601f19166020018201604052801561125b5781602001600182028036833780820191505090505b5090507f30000000000000000000000000000000000000000000000000000000000000008160008151811061129357611292612236565b5b60200101907effffffffffffffffffffffffffffffffffffffffffffffffffffffffffffff1916908160001a9053507f7800000000000000000000000000000000000000000000000000000000000000816001815181106112f7576112f6612236565b5b60200101907effffffffffffffffffffffffffffffffffffffffffffffffffffffffffffff1916908160001a905350600060018460026113379190612554565b6113419190612596565b90505b60018111156113e1577f3031323334353637383961626364656600000000000000000000000000000000600f86166010811061138357611382612236565b5b1a60f81b82828151811061139a57611399612236565b5b60200101907effffffffffffffffffffffffffffffffffffffffffffffffffffffffffffff1916908160001a905350600485901c9450806113da906125ca565b9050611344565b5060008414611425576040517f08c379a000000000000000000000000000000000000000000000000000000000815260040161141c9061263f565b60405180910390fd5b8091505092915050565b600061143b83836115b3565b611494578260000182908060018154018082558091505060019003906000526020600020016000909190919091505582600001805490508360010160008481526020019081526020016000208190555060019050611499565b600090505b92915050565b600080836001016000848152602001908152602001600020549050600081146115a75760006001826114d1919061265f565b90506000600186600001805490506114e9919061265f565b905081811461155857600086600001828154811061150a57611509612236565b5b906000526020600020015490508087600001848154811061152e5761152d612236565b5b90600052602060002001819055508387600101600083815260200190815260200160002081905550505b8560000180548061156c5761156b612693565b5b6001900381819060005260206000200160009055905585600101600086815260200190815260200160002060009055600193505050506115ad565b60009150505b92915050565b600080836001016000848152602001908152602001600020541415905092915050565b604051806101800160405280600060028111156115f6576115f5611a59565b5b81526020016000600681111561160f5761160e611a59565b5b8152602001600067ffffffffffffffff168152602001600067ffffffffffffffff168152602001600073ffffffffffffffffffffffffffffffffffffffff168152602001600067ffffffffffffffff168152602001600073ffffffffffffffffffffffffffffffffffffffff168152602001600060070b8152602001600060070b815260200160008152602001600015158152602001600081525090565b6000604051905090565b600080fd5b600381106116c957600080fd5b50565b6000813590506116db816116bc565b92915050565b600067ffffffffffffffff82169050919050565b6116fe816116e1565b811461170957600080fd5b50565b60008135905061171b816116f5565b92915050565b60008160070b9050919050565b61173781611721565b811461174257600080fd5b50565b6000813590506117548161172e565b92915050565b6000819050919050565b61176d8161175a565b811461177857600080fd5b50565b60008135905061178a81611764565b92915050565b60008060008060008060c087890312156117ad576117ac6116b7565b5b60006117bb89828a016116cc565b96505060206117cc89828a0161170c565b95505060406117dd89828a0161170c565b94505060606117ee89828a01611745565b93505060806117ff89828a01611745565b92505060a061181089828a0161177b565b9150509295509295509295565b60007fffffffff0000000000000000000000000000000000000000000000000000000082169050919050565b6118528161181d565b811461185d57600080fd5b50565b60008135905061186f81611849565b92915050565b60006020828403121561188b5761188a6116b7565b5b600061189984828501611860565b91505092915050565b60008115159050919050565b6118b7816118a2565b82525050565b60006020820190506118d260008301846118ae565b92915050565b600073ffffffffffffffffffffffffffffffffffffffff82169050919050565b6000611903826118d8565b9050919050565b611913816118f8565b82525050565b600060208201905061192e600083018461190a565b92915050565b6000819050919050565b61194781611934565b82525050565b6000602082019050611962600083018461193e565b92915050565b61197181611934565b811461197c57600080fd5b50565b60008135905061198e81611968565b92915050565b6000602082840312156119aa576119a96116b7565b5b60006119b88482850161197f565b91505092915050565b6119ca816118f8565b81146119d557600080fd5b50565b6000813590506119e7816119c1565b92915050565b60008060408385031215611a0457611a036116b7565b5b6000611a128582860161197f565b9250506020611a23858286016119d8565b9150509250929050565b600081519050919050565b600082825260208201905092915050565b6000819050602082019050919050565b7f4e487b7100000000000000000000000000000000000000000000000000000000600052602160045260246000fd5b60038110611a9957611a98611a59565b5b50565b6000819050611aaa82611a88565b919050565b6000611aba82611a9c565b9050919050565b611aca81611aaf565b82525050565b60078110611ae157611ae0611a59565b5b50565b6000819050611af282611ad0565b919050565b6000611b0282611ae4565b9050919050565b611b1281611af7565b82525050565b611b21816116e1565b82525050565b611b30816118f8565b82525050565b611b3f81611721565b82525050565b611b4e8161175a565b82525050565b611b5d816118a2565b82525050565b61018082016000820151611b7a6000850182611ac1565b506020820151611b8d6020850182611b09565b506040820151611ba06040850182611b18565b506060820151611bb36060850182611b18565b506080820151611bc66080850182611b27565b5060a0820151611bd960a0850182611b18565b5060c0820151611bec60c0850182611b27565b5060e0820151611bff60e0850182611b36565b50610100820151611c14610100850182611b36565b50610120820151611c29610120850182611b45565b50610140820151611c3e610140850182611b54565b50610160820151611c53610160850182611b45565b50505050565b6000611c658383611b63565b6101808301905092915050565b6000602082019050919050565b6000611c8a82611a2d565b611c948185611a38565b9350611c9f83611a49565b8060005b83811015611cd0578151611cb78882611c59565b9750611cc283611c72565b925050600181019050611ca3565b5085935050505092915050565b60006020820190508181036000830152611cf78184611c7f565b905092915050565b60008060408385031215611d1657611d156116b7565b5b6000611d248582860161197f565b9250506020611d358582860161177b565b9150509250929050565b600060208284031215611d5557611d546116b7565b5b6000611d63848285016119d8565b91505092915050565b600060208284031215611d8257611d816116b7565b5b6000611d908482850161177b565b91505092915050565b611da28161175a565b82525050565b6000602082019050611dbd6000830184611d99565b92915050565b600082825260208201905092915050565b7f55736572206973206e6f742061206d656d626572000000000000000000000000600082015250565b6000611e0a601483611dc3565b9150611e1582611dd4565b602082019050919050565b60006020820190508181036000830152611e3981611dfd565b9050919050565b611e4981611aaf565b82525050565b611e58816116e1565b82525050565b611e6781611721565b82525050565b600060e082019050611e82600083018a611e40565b611e8f6020830189611e4f565b611e9c6040830188611e4f565b611ea96060830187611e5e565b611eb66080830186611e5e565b611ec360a0830185611d99565b611ed060c083018461190a565b98975050505050505050565b7f416363657373436f6e74726f6c3a2063616e206f6e6c792072656e6f756e636560008201527f20726f6c657320666f722073656c660000000000000000000000000000000000602082015250565b6000611f38602f83611dc3565b9150611f4382611edc565b604082019050919050565b60006020820190508181036000830152611f6781611f2b565b9050919050565b600081519050611f7d81611764565b92915050565b600060208284031215611f9957611f986116b7565b5b6000611fa784828501611f6e565b91505092915050565b7f4e487b7100000000000000000000000000000000000000000000000000000000600052604160045260246000fd5b600080fd5b6000601f19601f8301169050919050565b611ffe82611fe4565b810181811067ffffffffffffffff8211171561201d5761201c611fb0565b5b80604052505050565b60006120306116ad565b905061203c8282611ff5565b919050565b600081519050612050816116bc565b92915050565b6007811061206357600080fd5b50565b60008151905061207581612056565b92915050565b60008151905061208a816116f5565b92915050565b60008151905061209f816119c1565b92915050565b6000815190506120b48161172e565b92915050565b6120c3816118a2565b81146120ce57600080fd5b50565b6000815190506120e0816120ba565b92915050565b600061018082840312156120fd576120fc611fdf565b5b612108610180612026565b9050600061211884828501612041565b600083015250602061212c84828501612066565b60208301525060406121408482850161207b565b60408301525060606121548482850161207b565b606083015250608061216884828501612090565b60808301525060a061217c8482850161207b565b60a08301525060c061219084828501612090565b60c08301525060e06121a4848285016120a5565b60e0830152506101006121b9848285016120a5565b610100830152506101206121cf84828501611f6e565b610120830152506101406121e5848285016120d1565b610140830152506101606121fb84828501611f6e565b6101608301525092915050565b6000610180828403121561221f5761221e6116b7565b5b600061222d848285016120e6565b91505092915050565b7f4e487b7100000000000000000000000000000000000000000000000000000000600052603260045260246000fd5b7f4e487b7100000000000000000000000000000000000000000000000000000000600052601160045260246000fd5b600061229f8261175a565b91507fffffffffffffffffffffffffffffffffffffffffffffffffffffffffffffffff82036122d1576122d0612265565b5b600182019050919050565b7f5573657220697320616c72656164792061206d656d6265720000000000000000600082015250565b6000612312601883611dc3565b915061231d826122dc565b602082019050919050565b6000602082019050818103600083015261234181612305565b9050919050565b6000819050919050565b6000819050919050565b600061237761237261236d84612348565b612352565b61175a565b9050919050565b6123878161235c565b82525050565b60006040820190506123a2600083018561190a565b6123af602083018461237e565b9392505050565b600081905092915050565b7f416363657373436f6e74726f6c3a206163636f756e7420000000000000000000600082015250565b60006123f76017836123b6565b9150612402826123c1565b601782019050919050565b600081519050919050565b60005b8381101561243657808201518184015260208101905061241b565b60008484015250505050565b600061244d8261240d565b61245781856123b6565b9350612467818560208601612418565b80840191505092915050565b7f206973206d697373696e6720726f6c6520000000000000000000000000000000600082015250565b60006124a96011836123b6565b91506124b482612473565b601182019050919050565b60006124ca826123ea565b91506124d68285612442565b91506124e18261249c565b91506124ed8284612442565b91508190509392505050565b60006125048261240d565b61250e8185611dc3565b935061251e818560208601612418565b61252781611fe4565b840191505092915050565b6000602082019050818103600083015261254c81846124f9565b905092915050565b600061255f8261175a565b915061256a8361175a565b92508282026125788161175a565b9150828204841483151761258f5761258e612265565b5b5092915050565b60006125a18261175a565b91506125ac8361175a565b92508282019050808211156125c4576125c3612265565b5b92915050565b60006125d58261175a565b9150600082036125e8576125e7612265565b5b600182039050919050565b7f537472696e67733a20686578206c656e67746820696e73756666696369656e74600082015250565b6000612629602083611dc3565b9150612634826125f3565b602082019050919050565b600060208201905081810360008301526126588161261c565b9050919050565b600061266a8261175a565b91506126758361175a565b925082820390508181111561268d5761268c612265565b5b92915050565b7f4e487b7100000000000000000000000000000000000000000000000000000000600052603160045260246000fdfea26469706673582212207da8242b319569d8f2876e5d6263f40a02e34d63c6dbb270480c062647205f9f64736f6c63430008110033",
  "linkReferences": {},
  "deployedLinkReferences": {}
}